S31508000000B00700249D030008F53F000821340008C6
S31508000010F13F0008FD060008254C00080000000016
S31508000020000000000000000000000000D1420008A7
S31508000030D70900080000000001400008F542000842
S31508000040BB030008BB030008BB030008BB0300088A
S31508000050BB030008BB030008BB030008BB0300087A
S31508000060BB030008BB030008BB030008FF06000823
S315080000700B070008BB030008BB030008BB03000806
S31508000080BB030008BB030008BB030008BB0300084A
S31508000090BB030008BB030008BB030008BB0300083A
S315080000A0BB030008BB030008BB030008BB0300082A
S315080000B0BB030008BB030008BB030008BB0300081A
S315080000C0BB030008BB030008BB030008BB0300080A
S315080000D0BB0300081D4C0008BB030008BB0300084F
S315080000E0BB030008BB03000800000000BB030008B0
S315080000F0BB030008BB030008BB030008BB030008DA
S31508000100BB030008BB030008BB030008BB030008C9
S31508000110BB030008BB030008BB030008BB030008B9
S31508000120BB030008BB030008BB030008BB030008A9
S31508000130BB030008BB030008BB030008BB03000899
S3150800014000000000000000000000000000000000A1
S31508000150BB030008BB030008BB030008214C0008CA
S31508000160BB030008BB030008BB030008BB03000869
S31508000170BB030008BB030008BB030008000000001F
S31508000180BB030008BB030008BB030008BB03000849
S31508000190BB030008BB030008BB030008BB03000839
S315080001A0BB030008BB030008BB03000800000000EF
S315080001B0BB030008BB030008BB030008BB03000819
S315080001C0BB030008BB030008000000000000000095
S315080001D00000000000000000BB030008000000004B
S315080001E00000000000000000000000000000000001
S315080001F00000000000000000BB030008BB03000865
S31508000200BB030008BB03000800000000BB0300088E
S31508000210BB030008BB0300088D440008BB030008A5
S31508000220BB03000800000000BB0300080000000034
S31508000230BB030008BB03000800000000BB0300085E
S31508000240BB030008BB030008BB030008BB03000888
S31508000250BB030008BB030008BB030008BB03000878
S31508000260BB030008BB030008BB030008BB03000868
S31508000270BB030008BB030008BB030008000000001E
S31508000280BB030008BB030008BB030008BB03000848
S3150800029000000000BB030008BB03000800000000C4
S315080002A000000000BB030008BB030008BB030008EE
S315080002B0BB030008BB030008BB030008BB03000818
S315080002C0BB030008BB030008BB03000800F002F8E4
S315080002D000F054F814A696E8000CB244B344DA4584
S315080002E001D100F04BF8BAE80F000FA696E83000E7
S315080002F0A5EB040504EB0607AAEB0704A7F101071B
S315080003004FEA15154FEA3414A4F10104AC4201D39F
S3150800031000F034F813F0010F18BFFB1A43F001037D
S3150800032000F001F8DBE718475C5400009C54000015
S31508000330103A24BF78C878C1FAD8520724BF30C803
S3150800034030C144BF04680C60704700007047000065
S315080003500023002400250026103A28BF78C1FBD8C0
S31508000360520728BF30C148BF0B6070471FB505F05C
S31508000370A9F900F019F91FBD10B510BD00F054F920
S315080003801146FFF7F3FF04F0B3FD00F072F903B46A
S31508000390FFF7F2FF03BC00F039F900000A4880476E
S315080003A00A4880470A480047FEE7FEE7FEE7FEE7F9
S315080003B0FEE7FEE7FEE7FEE7FEE7FEE70548064935
S315080003C0064A074B70470000E5090008BB430008CA
S315080003D0CD020008B0010024B0070024B0030024B1
S315080003E0B003002453EA020C00F069802DE9F04BB3
S315080003F04FF00006002B1FBFB3FA83F503FA05F486
S3150800040024FA05F65E4012BF1643B2FA82F502FADE
S3150800041005F4C5F120051EBF22FA05FC44EA0C04C2
S31508000420203556EA044C4FEA144418BF641C4FF0B2
S3150800043000084FF00009904271EB030C39D30029EC
S3150800044019BFB1FA81F701FA07F6B0FA80F700FA90
S3150800045007F6C7F120071EBF20FA07FC46EA0C0676
S315080004602037B6FBF4FCA7EB0507103F07F01F0B78
S31508000470CBF120062CFA06F60CFA0BFB44BFB34662
S315080004800026202FA4BF5E464FF0000B5BEA060C41
S3150800049008BF4FF0010B19EB0B0948EB0608ABFB3D
S315080004A0027C06FB02CC0BFB03CCC01B71EB0C01D8
S315080004B0C1E70B46024641464846BDE8F08B13B5F0
S315080004C0084318BF4FF0FF300146AFF30080BDE880
S315080004D01C4070470EB5054614460E4613A000F09C
S315080004E084F8284600F081F816A000F07EF8304619
S315080004F000F07BF815A000F078F800218DF80B10B5
S315080005000A210DF10A008DF80A1008E094FBF1F2B1
S3150800051001FB124294FBF1F4303200F8012D002C55
S31508000520F4DC00F062F800F055F800002A2A2A20C8
S31508000530617373657274696F6E206661696C656450
S315080005403A2000002C2066696C6520002C206C6916
S315080005506E6520004FF0000200B513469446964695
S31508000560203922BFA0E80C50A0E80C50B1F12001B8
S31508000570BFF4F7AF090728BFA0E80C5048BF0CC066
S315080005805DF804EB890028BF40F8042B08BF7047C4
S3150800059048BF20F8022B11F0804F18BF00F8012B36
S315080005A0704770477047704708487CB57844009094
S315080005B007487844009C0546019004E020460168F7
S315080005C008448047241DAC42F8D17CBD1452000073
S315080005D01252000010B5002000F01EF8FFF7CCFEFE
S315080005E0BDE81040012000F011B810B5044602E03D
S315080005F0641C00F004F820780028F9D110BD08B56D
S3150800060069468DF800000320ABBE08BD01491820D5
S31508000610ABBEFEE72600020010B500F039F8BDE8CB
S31508000620104000F02FB87047754600F049F8AE46FE
S3150800063005006946534620F00700854618B020B5E0
S31508000640FFF7BCFEBDE820404FF000064FF000075C
S315080006504FF000084FF0000BAC46ACE8C009ACE818
S31508000660C009ACE8C009ACE8C00921F007018D460D
S31508000670704710B50446AFF300802046BDE8104029
S31508000680FFF785BE002801D0FFF7C0BF70470000FE
S3150800069010B5002102A000F017F8012010BD0000D7
S315080006A0534947414252543A2041626E6F726D6116
S315080006B06C207465726D696E6174696F6E000000F6
S315080006C0004870470800002070B505460C460A2009
S315080006D000E06D1CFFF793FF35B128780028F8D1A4
S315080006E002E0641CFFF78BFF14B120780028F8D1CC
S315080006F0BDE870400A20FFF782BF0000FEE740F21F
S315080007003C10C2F2000000F079B940F2B410C2F20F
S31508000710000000F073B9000040F20F42D0F800C0A4
S31508000720C4F20202944510DC6F22C4F20202944518
S3150800073020DC3F22C4F20202944536DC1022C4F2C1
S315080007400202944554D028224EE040F26F42C4F289
S31508000750020294451ADC40F23F42C4F20202944572
S315080007602ADC40F21042C4F20202944540D040F21C
S31508000770284239E09F22C4F20202944525DC702201
S31508000780C4F20202944533D088222DE040F29F42FB
S31508000790C4F2020294451FDC40F27042C4F202021F
S315080007A0944525D040F288421EE04022C4F2020257
S315080007B094451DD0582217E040F24042C4F2020286
S315080007C0944515D040F258420EE0A022C4F2020227
S315080007D094450DD0B82207E040F2B842C4F20202AE
S315080007E0944505D040F2A042C4F20202944517D1BE
S315080007F00CF0F8024AF6AB23103ACAF6AA23A2FB73
S31508000800033109A35F2AC1F302115B5C40F2FF3191
S315080008102CEA0101C36588BF043181650846704723
S315080008202CF0FF01F9E700BF0006101600061016A7
S3150800083045F257420168C5F6020291420EDC45F2BE
S315080008402F42C5F60202914217DC45F20842C5F668
S315080008500202914226D045F21C421FE045F27F4231
S31508000860C5F60202914211DC45F25842C5F602026B
S31508000870914217D045F26C4210E045F23042C5F677
S31508000880020291420ED045F2444207E045F29442F4
S31508000890C5F60202914205D045F28042C5F602022B
S315080008A091421AD101F0FC014CF6CD420839CCF63A
S315080008B0CC42A1FB021245F60003C5F60203120953
S315080008C003F1800103EB820302F01F020366012392
S315080008D0416603FA02F18166704710B501F0F80225
S315080008E04AF6AB23103ACAF6AA23A2FB032340F220
S315080008F00F42C4F202024FF0080E4FEA131C91424F
S3150800090002F1AA04624688BF0EEB131240F60003F2
S31508000910A142C4F2020303F1800128BF6246BDE882
S315080009201040CFE70279511E072988BF704710B5D6
S3150800093045F2574C45F6FC0E0368C5F6020CC5F69B
S31508000940020E63450EF1440C0EDC45F22F44C5F643
S315080009500204A34217DC45F20844C5F60204A34282
S3150800096026D045F21C441FE045F27F44C5F6020432
S31508000970A34211DC45F25844C5F60204A34217D037
S3150800098045F26C4410E045F23044C5F60204A34231
S315080009900ED045F2444407E045F28044C5F6020409
S315080009A0A34205D045F29444C5F60204A3420BD1EE
S315080009B00EEB8202C2660122C0F870C002FA01F18B
S315080009C04167BDE81040704740F6FC0EC4F2020EBF
S315080009D00EF1440CECE77047EFF3108072B600BFD7
S315080009E0FEE7000044F60400C5F60200816841F0FF
S315080009F00201816001688904FCD570472DE9F0473A
S31508000A0082B00021019140F200010446C2F2004181
S31508000A1048F2B512C1F64E32A56D096840F26F4923
S31508000A200068C4F20209A1FB021848452E68296825
S31508000A3015DC9F21C4F2020188422BDC5721C4F23F
S31508000A40020188424FDC1021C4F20201884278D0A4
S31508000A502821C4F20201884273D040216CE045F295
S31508000A602F42C5F60202904227DC40F2B742C4F292
S31508000A700202904243DC40F27041C4F2020188420D
S31508000A805FD040F28841C4F20201884259D040F250
S31508000A90A04151E040F22741C4F2020188423DDC00
S31508000AA0A021C4F2020188424BD0B821C4F2020147
S31508000AB0884246D040F210413EE045F26B42C5F608
S31508000AC00202904273DC45F23042C5F602029042B9
S31508000AD000F0808045F24442C5F60202904279D081
S31508000AE045F2584271E05821C4F20201884228D0E2
S31508000AF07021C4F20201884223D088211CE040F20A
S31508000B00B842C4F2020290421BD045F20842C5F62A
S31508000B10020290425ED045F21C4256E040F228415D
S31508000B20C4F2020188420CD040F24041C4F20201EC
S31508000B30884206D040F25841C4F20201884240F089
S31508000B401183E16D082201F01F0140F20F4A8A4025
S31508000B50C4F2020A324200F0D18050454FF0040335
S31508000B6012DC6F27C4F20207B84264DC3F27C4F2DE
S31508000B700207B84200F392801027C4F20207B8426F
S31508000B8000F0B0802827A8E0484560DC40F23F47DF
S31508000B90C4F20207B84200F3888040F21047C4F254
S31508000BA00207B84200F09E8040F2284795E045F2D9
S31508000BB06C42C5F6020290420CD045F28042C5F658
S31508000BC00202904206D045F29442C5F602029042CD
S31508000BD040F0C8820268E36D03F01F0304279F40B4
S31508000BE00F4218BF12F004061BD102279F400F427E
S31508000BF018BF12F0020639D1D940090740F1B2826E
S31508000C0012F0080100F0AE82016821F00E010160C1
S31508000C10012000FA03F16960606584F83500E16C2B
S31508000C2058E211046F6033D4910635D4016821F077
S31508000C300401016030E09F27C4F20207B8423DDC98
S31508000C407027C4F20207B8424CD0882745E040F224
S31508000C509F47C4F20207B84237DC40F27047C4F235
S31508000C600207B8423ED040F2884736E011046F606A
S31508000C7000F17B82910600F17C82016821F00A016D
S31508000C800160012084F83500002084F8340070E201
S31508000C90D00301D4A16C5FE2216C5DE24027C4F267
S31508000CA00207B8421ED0582717E040F24047C4F260
S31508000CB00207B84216D040F258470EE0A027C4F201
S31508000CC00207B8420ED0B82707E040F2A047C4F2A0
S31508000CD00207B84206D040F2B847C4F20207B84243
S31508000CE018BF082307681F4208D0036823F00403C7
S31508000CF00360AA60626D42F00102626501228A40C1
S31508000D0032426AD0504510DC6F23C4F2020398427F
S31508000D101CDC3F23C4F20203984232DC1023C4F2DF
S31508000D200203984251D028234AE048451ADC40F28B
S31508000D303F43C4F2020398422ADC40F21043C4F24D
S31508000D400203984241D040F2284339E09F23C4F277
S31508000D500203984225DC7023C4F20203984234D079
S31508000D6088232DE040F29F43C4F2020398421FDC19
S31508000D7040F27043C4F20203984226D040F28843F8
S31508000D801EE04023C4F2020398421ED0582317E0FF
S31508000D9040F24043C4F20203984216D040F2584348
S31508000DA00EE0A023C4F2020398420ED0B82307E04F
S31508000DB040F2A043C4F20203984206D040F2B84378
S31508000DC0C4F20203984240F0D68143691B0604D553
S31508000DD0AA60626D42F00202626504228A403242CB
S31508000DE06AD0504510DC6F23C4F2020398421CDC1B
S31508000DF03F23C4F20203984232DC1023C4F20203F2
S31508000E00984251D028234AE048451ADC40F23F432D
S31508000E10C4F2020398422ADC40F21043C4F20203E9
S31508000E20984241D040F2284339E09F23C4F2020396
S31508000E30984225DC7023C4F20203984234D08823F2
S31508000E402DE040F29F43C4F2020398421FDC40F2B1
S31508000E507043C4F20203984226D040F288431EE04B
S31508000E604023C4F2020398421ED0582317E040F2EA
S31508000E704043C4F20203984216D040F258430EE0AB
S31508000E80A023C4F2020398420ED0B82307E040F22A
S31508000E90A043C4F20203984206D040F2B843C4F213
S31508000EA00203984240F0698103689B0704D5AA604B
S31508000EB0626D42F004026265102202FA01F13142C3
S31508000EC07BD050454FF0080210DC6F23C4F20203B2
S31508000ED098421CDC3F23C4F20203984232DC1023FA
S31508000EE0C4F20203984251D028234AE048451ADC46
S31508000EF040F23F43C4F2020398422ADC40F2104310
S31508000F00C4F20203984241D040F2284339E09F23B5
S31508000F10C4F20203984225DC7023C4F20203984205
S31508000F2034D088232DE040F29F43C4F2020398424E
S31508000F301FDC40F27043C4F20203984226D040F206
S31508000F4088431EE04023C4F2020398421ED0582369
S31508000F5017E040F24043C4F20203984216D040F22A
S31508000F6058430EE0A023C4F2020398420ED0B823D9
S31508000F7007E040F2A043C4F20203984206D040F2CA
S31508000F80B843C4F20203984218BF04220368134206
S31508000F9013D0A96001684903016806D4C90506D4B7
S31508000FA0016821F00801016001E0080301D4216C01
S31508000FB000E0A16C09B120468847E06D00F01F01EA
S31508000FC0202000FA01F2324200F0A28020681023A5
S31508000FD0504510DC6F27C4F20207B8421CDC3F27D5
S31508000FE0C4F20207B84232DC1027C4F20207B8423C
S31508000FF051D028274AE048451ADC40F23F47C4F258
S315080010000207B8422ADC40F21047C4F20207B84287
S3150800101041D040F2284739E09F27C4F20207B84278
S3150800102025DC7027C4F20207B84234D088272DE0A1
S3150800103040F29F47C4F20207B8421FDC40F27047ED
S31508001040C4F20207B84226D040F288471EE040277D
S31508001050C4F20207B8421ED0582717E040F24047AC
S31508001060C4F20207B84216D040F258470EE0A0274D
S31508001070C4F20207B8420ED0B82707E040F2A047EC
S31508001080C4F20207B84206D040F2B847C4F20207D3
S31508001090B84218BF022307681F4239D0AA6094F8DD
S315080010A03520042A02681BD122F016020260426922
S315080010B022F080024261226C0AB9A26C1AB1026857
S315080010C022F0080202603F208840A860012084F8C8
S315080010D03500216D4FF0000084F83400E9BB41E08B
S315080010E0510301680CD4C9050ED4016821F010011A
S315080010F00160012084F83500002084F8340003E0FC
S31508001100080301D4616C00E0E16B09B12046884709
S31508001110606D38B3606DC0071DD0042084F83500B3
S3150800112020684FEA9821026822F00102026000BF97
S31508001130019A013201928A4202D80268D207F7D18F
S315080011400068C0074FF0030008BF012084F8350087
S31508001150002084F83400E16C21B1204602B0BDE8D5
S31508001160F047084702B0BDE8F087D00301D4616CA8
S31508001170F2E7E16BF0E702682FE602689CE60000FA
S315080011802DE9F041044600F023FB002C00F0AC806A
S3150800119040F26F4805462068C4F20208404515DC4F
S315080011A09F21C4F2020188422BDC5721C4F20201B6
S315080011B0884251DC1021C4F2020188427BD02821E2
S315080011C0C4F20201884276D040216FE045F22F41F1
S315080011D0C5F60201884227DC40F2B741C4F2020193
S315080011E0884245DC40F27041C4F20201884262D06E
S315080011F040F28841C4F2020188425CD040F2A04124
S3150800120054E040F22741C4F20201884240DCA021A2
S31508001210C4F2020188424ED0B821C4F202018842C3
S3150800122049D040F2104141E045F26B41C5F6020152
S31508001230884200F3A88045F23041C5F6020188428B
S3150800124000F0B38045F24441C5F60201884200F039
S31508001250AC8045F25841A4E05821C4F20201884204
S3150800126029D07021C4F20201884224D088211DE0C9
S3150800127040F2B841C4F2020188421CD045F2084146
S31508001280C5F60201884200F0908045F21C4188E0CC
S3150800129040F22841C4F2020188420CD040F2404193
S315080012A0C4F20201884206D040F25841C4F2020153
S315080012B0884240F0B680022184F83510002184F86F
S315080012C03410016821F00101016000BF206801683F
S315080012D0C9070CD000F07CFA401B0628F6D320205C
S315080012E06065032084F835000120BDE8F08148F2E6
S315080012F03F0204F108060168CFF6106211406569DD
S315080013004CCE1143A2691943E3693143266A0D435A
S31508001310616A2B43042943EA060343EA020303D11D
S31508001320D4E90B652E4333436568A5F13F06132EB2
S3150800133007D80127B74040F20F36C0F20F063742EA
S3150800134004D1A5F12906062E80F0558143F48013B1
S3150800135003600429436923F0070341EA030140F0C7
S315080013607B80D4E90A53002B41EA050174D0B2F513
S31508001370005F58D0002A62D1022D63D0012D58D0C3
S31508001380002D5FD068E045F26C41C5F6020188423F
S315080013900BD045F28041C5F60201884205D045F2D8
S315080013A09441C5F6020188423BD104F1080E022198
S315080013B084F83510002184F834100168A3699EE882
S315080013C00450A2F18005E769B5FA85F566696D09E5
S315080013D0402A4FEA853543EA07026FF3101142EABD
S315080013E0060208BF102541EADC0142EA0E02236A1A
S315080013F0294341EAD20141EA131140F80819C0B25B
S31508001400CD2148433C2101EA9020E0652046FFF7BC
S3150800141083F9E16D012201F01F0102FA01F1416031
S3150800142025E040205CE7032D16D8DFE805F00E0B13
S315080014300E02A3F1C072B2FA82F2520904E0032D39
S3150800144003D309D1C3F3006232B14020606501209D
S3150800145084F83500BDE8F08141612046FFF75CF964
S31508001460E16D3F2201F01F0102FA01F18160206857
S31508001470404517DC9F21C4F2020188422DDC572122
S31508001480C4F20201884250DC1021C4F202018842EB
S3150800149000F089802821C4F20201884200F0838086
S315080014A040216BE045F22F41C5F60201884227DC50
S315080014B040F2B741C4F20201884242DC40F2704170
S315080014C0C4F2020188426ED040F28841C4F2020199
S315080014D0884268D040F2A04150E040F22741C4F269
S315080014E0020188423CDCA021C4F2020188425AD09B
S315080014F0B821C4F20201884255D040F210413DE0BD
S3150800150045F26B41C5F6020188423ADC45F23041A4
S31508001510C5F60201884246D045F24441C5F60201A5
S31508001520884240D045F2584139E05821C4F20201B8
S31508001530884238D07021C4F20201884233D088210B
S315080015401CE040F2B841C4F2020188422BD045F2B1
S315080015500841C5F60201884225D045F21C411EE025
S3150800156040F22841C4F2020188421CD040F24041B0
S31508001570C4F20201884216D040F25841C4F2020170
S315080015800FE045F26C41C5F6020188420BD045F2E0
S315080015909441C5F60201884205D045F28041C5F658
S315080015A00201884220D12046FFF742F9A068802828
S315080015B002D10020606000E06068C1B204F16007F3
S315080015C001388CCF072811605F6009D82046FFF7DD
S315080015D0A9F904F16C02002307CA03604A6003E014
S315080015E000206067C4E91B0000206065012184F8BB
S315080015F03510BDE8F08125F00307742F08BF43F4C2
S315080016008013A5E6B0B5044600F0E2F840F20401FE
S315080016100546C2F20001621C097818BF0C4400BFD7
S3150800162000F0D6F8401BA042FAD3B0BD2DE9F04F22
S3150800163083B00F68002F00F0C88000F1264642F2FA
S31508001640004506F1FF76C5F602050A22A8424FEACA
S31508001650B62540F2040C08BF092200F120030093C6
S31508001660082DC5F6000C38BF4FEAB622002400261E
S315080016704FF00008019200BF012202FA08FE17EA9D
S315080016800E0900F09780D1F804B003220BF0030787
S31508001690B2407D1E6FEA020A012D11D88268CD6814
S315080016A002EA0A02B5402A438260CBF30015426873
S315080016B022EA0E0205FA08F52A43426004E000BF52
S315080016C0032F01D103271FE0C2688D6802EA0A02C8
S315080016D0B540022F42EA0502C26015D16FF0030237
S315080016E004F01C0502EA580B009A0F2352F80BE087
S315080016F0AB400F692EEA0303AF403B4342F80B3079
S31508001700D1F804B00BF00307026807FA06F302EAF9
S315080017100A021BF4403F42EA030202604AD044F23E
S31508001720F44340F2084EC5F60203C5F6000E0F252F
S315080017301A6842F002021A601A6802F0020202925D
S3150800174028F00302029B04F00C0352F80E709D4029
S31508001750AF43019D05FA03F33B4342F80E304FF0C1
S31508001760B04EDEF800204B6842EA0907DD0258BF92
S3150800177022EA09079D02CEF80070DCF8002042EA4A
S31508001780090758BF22EA09079D03CCF80070DCF860
S31508001790802042EA090758BF22EA0907DB03CCF88A
S315080017A08070DCF87C2042EA090758BF22EA09075C
S315080017B0CCF87C7008F101080F6837FA08F206F1D0
S315080017C0020604F104047FF457AF03B0BDE8F08FB6
S315080017D040F25C70C2F200000068704740F20400F4
S315080017E040F25C71C2F20000C2F2000100780A6899
S315080017F010440860704780B5032000F01AF901F01C
S315080018009BF844F2184145F2EA63C5F60201C0F6B0
S3150800181000030A68C2F303229A5C096801F00F0103
S3150800182002F01F02595CD04040F20002C2F20002E8
S3150800183001F01F0120FA01F1116040F20001C2F225
S31508001840004108600F2000F007F808B1012080BDAC
S3150800185000F09DF8002080BD0F2842D8B0B58AB0A8
S315080018600446762000222146002500F0B5F87620A9
S3150800187000F0A2F840F20400C2F20040046044F20C
S31508001880F040C5F60200016841F480210160006855
S3150800189001A900F480200290029802A800F0D3FF64
S315080018A001F036F84DF683614000C4F21B3144F668
S315080018B00002A0FB010140F29C00C2F200404FF07A
S315080018C0FF33C4F20102026003EB9141C0E901153E
S315080018D040F2E731C0E9031501F039FB18B10120E0
S315080018E007E00120704740F29C00C2F2004001F078
S315080018F05FFB0AB0B0BD10B54EF6985E4378CEF2DF
S31508001900000E90F800C0CEF80030DEF8083023F05C
S315080019100103CEF808304368CEF80430037BC27A58
S31508001920817A447B120642EA0372837B42EAC1410A
S31508001930C27B41EA8441447A41EA4341007A41EA5A
S31508001940024141EA042141EA400040EA0C00CEF88F
S31508001950080010BD4EF62450CEF20000BFF35F8F8C
S31508001960016821F4803101600021016770474EF655
S31508001970245140F00100CEF200010867086840F4DF
S3150800198080300860BFF34F8FBFF36F8F704781B009
S3150800199044F2F4400022C5F60200016841F0020153
S315080019A0016000680F2100F0020000906FF001004E
S315080019B0009B01B000F010B800280CD400F01F01FD
S315080019C0012202FA01F14EF20012C0F34A10CEF2D9
S315080019D0000242F82010704770B54EF60C5C4FF0C6
S315080019E0FF36CEF2000C00F1604505F56445DCF8DB
S315080019F00030C3F3022E8EF00703042B28BF0423FE
S31508001A00BEF1030406FA03F321EA030100F00F030B
S31508001A1038BF0024043B0028634406FA04F048BF94
S31508001A2003F10C05A14022EA0000084300012870D2
S31508001A3070BD4EF60C514FF6FF03CEF200010A6850
S31508001A401A4060F30A2242F0806040F0FD70086098
S31508001A5070470000B0B544F60C05C5F602052968BE
S31508001A604907296805D401F00701081A18BF01209B
S31508001A70B0BD21F0070108432860FFF7A9FE044618
S31508001A8055F8080C800407D4FFF7A2FE001BB0F532
S31508001A907A7FF5D90120B0BD0020B0BD80B500F031
S31508001AA0FEFE44F2204145F2EA62C5F60201C0F69E
S31508001AB000020968C1F30211515C01F01F01C84018
S31508001AC080BD000080B544F2004EC5F6020EDEF871
S31508001AD02830DEF82810DEF82C20C1F3053CDEF8A5
S31508001AE03C10BCF1000F18D0C9089FED3A1AD2066F
S31508001AF001EAE27103F003026FF35F3100EE101A98
S31508001B00B8EE400ADFE802F0021E0D1EDEF80010ED
S31508001B10890609D49FED311A14E00021C0E90011A5
S31508001B2055E09FED2D1A0DE0DEF8001049F200028F
S31508001B30C0F2D032C1F3C10122FA01F101EE101A46
S31508001B40B8EE411ADEF838109FED253A6FF35F219B
S31508001B5002EE101ADEF83810C1F34621B8EE422A12
S31508001B60013100EE032A00EE10CAB7EE003AB8EECD
S31508001B70400A81EE000A32EE031A20EE010A01EE4F
S31508001B80101AB8EE411A80EE011ABCEEC11A80EDA1
S31508001B90001ADEF83810C1F30641013101EE101AB9
S31508001BA0B8EE411A80EE011ABCEEC11A80ED011A90
S31508001BB0DEF83810C1F30661013101EE101AB8EEED
S31508001BC0411A80EE010ABCEEC00A10EE101A8160B6
S31508001BD080BD00BF0024744A20BCBE4B0024744C50
S31508001BE00000003980B544F2004EC5F6020EDEF854
S31508001BF02830DEF82810DEF82C20C1F3055CDEF864
S31508001C004410BCF1000F18D0C9089FED3A1AD20546
S31508001C1001EAE27103F003026FF35F3100EE101A76
S31508001C20B8EE400ADFE802F0021E0D1EDEF80010CC
S31508001C30890609D49FED311A14E00021C0E9001184
S31508001C4055E09FED2D1A0DE0DEF8001049F200026E
S31508001C50C0F2D032C1F3C10122FA01F101EE101A25
S31508001C60B8EE411ADEF840109FED253A6FF35F2172
S31508001C7002EE101ADEF84010C1F34621B8EE422AE9
S31508001C80013100EE032A00EE10CAB7EE003AB8EEAC
S31508001C90400A81EE000A32EE031A20EE010A01EE2E
S31508001CA0101AB8EE411A80EE011ABCEEC11A80ED80
S31508001CB0001ADEF84010C1F30641013101EE101A90
S31508001CC0B8EE411A80EE011ABCEEC11A80ED011A6F
S31508001CD0DEF84010C1F30661013101EE101AB8EEC4
S31508001CE0411A80EE010ABCEEC00A10EE101A816095
S31508001CF080BD00BF0024744A20BCBE4B0024744C2F
S31508001D00000000392DE9F0470446C07844F210482F
S31508001D100007C5F6020824D5606E4FEA305103293C
S31508001D2036D8DFE801F002090F17D8F81C1041F47D
S31508001D300031C8F81C100DE004F10800022102F079
S31508001D4091F904E004F12800022102F00FFA064690
S31508001D5040B9606ED8F8401021F440110843C8F81D
S31508001D60400000266078C00701D1354629E0A06DFD
S31508001D7004283CD83546DFE800F003130D1919008E
S31508001D80D8F81C00354640F40030C8F81C000DE0B1
S31508001D900126E7E704F12800002102F0E7F904E04C
S31508001DA004F10800002102F05DF905462F464DB9F9
S31508001DB0D8F84000A16D20F0070000250843C8F8B0
S31508001DC040003746607840072FD5D4F8A4004FEA7C
S31508001DD07050052814D8DFE800F003160D1C1C1CEB
S31508001DE0D8F81C0040F40030C8F81C0011E00125A2
S31508001DF00127E7E704F12800002102F0B7F907E018
S31508001E000125012612E004F10800002102F02AF952
S31508001E1005462E4655B9D8F84800D4F8A41020F43B
S31508001E20600000250843C8F848003E466078000769
S31508001E302CD5D4F8A8004FEA3060052811D8DFE879
S31508001E4000F003130A191919D8F81C0040F40030D9
S31508001E50C8F81C000EE004F12800002102F086F9FB
S31508001E6007E00125012712E004F10800002102F02D
S31508001E70F9F805462F4655B9D8F84800D4F8A810F9
S31508001E8020F0E06000250843C8F848003746E078A7
S31508001E90800720D5E06C4FEA3010032830D8DFE8F9
S31508001EA000F00F02090FD8F81C0040F40030C8F8FB
S31508001EB01C0005E004F10800022102F0D3F80546EB
S31508001EC02E464DB9D8F83C00E16C20F030000025CC
S31508001ED00843C8F83C003E466078C0062AD5E06D3F
S31508001EE04FEA303004283AD8DFE800F003130D191A
S31508001EF01900D8F81C0040F40030C8F81C000EE0A1
S31508001F0001250126E8E704F12800002102F02EF950
S31508001F1004E004F10800002102F0A4F805462F4663
S31508001F204DB9D8F84000E16D20F4E040002508439B
S31508001F30C8F8400037466078800624D5206E4FEAF8
S31508001F403040052800F22683DFE800F012030C1261
S31508001F50121204F10800012102F084F807E00125B5
S31508001F600127E8E704F12800012102F0FFF80546F9
S31508001F702E464DB9D8F84000216E20F4E020002501
S31508001F800843C8F840003E466078400623D5D4F892
S31508001F90AC004FEA3070052800F2FF82DFE800F057
S31508001FA00F03090F0F0F04F10800012102F05AF878
S31508001FB004E004F12800012102F0D8F805462F466E
S31508001FC055B9D8F84800D4F8AC1020F0E040002500
S31508001FD00843C8F848003746607800061FD5E06E03
S31508001FE090B1B0F1005F09D0B0F1805F29D1D8F87F
S31508001FF01C0040F40030C8F81C0005E004F1080095
S31508002000012102F02FF805462E464DB9D8F84000B2
S31508002010E16E20F0405000250843C8F840003E46CF
S31508002020E078C00721D0A06C03284FD8DFE800F07D
S3150800203012020C12D8F81C0040F40030C8F81C0034
S3150800204008E001250126EBE704F10800022102F069
S3150800205009F80546A9464DB9D8F83C00A16C20F008
S31508002060030000250843C8F83C00B146A07840069E
S3150800207001D44F4616E0D8F8F00340F48070C8F84B
S31508002080F003FFF7A5FB0646D8F8F003C00507D40A
S31508002090FFF79EFB801B6428F6D90325032701E07A
S315080020A02F46BDB12078C00756D0A06F4FEAF00082
S315080020B0052800F27582DFE800F044033E444444F4
S315080020C004F10800012101F0CDFF39E001254FF0A8
S315080020D00109CBE7D8F86010D4F8B000414011F4F4
S315080020E0407F11D0D8F86010D8F8602042F48032CA
S315080020F0C8F86020D8F8602021F4407122F48032B4
S31508002100C8F86020C8F86010B0F5807F40F05C829F
S31508002110FFF75EFB064641F2883A0325032700BF10
S31508002120D8F86000800700F14D82FFF751FB801B4D
S315080021305045F5D9B6E704F12800012102F016F852
S3150800214005462E464DB9D8F84400A16F20F0380050
S3150800215000250843C8F844003E46207880071FD566
S31508002160606F052800F21F82DFE800F00F03090FF1
S315080021700F0F04F10800012101F074FF04E004F1D7
S315080021802800012101F0F2FF05462F464DB9D8F87F
S315080021904400616F20F0070000250843C8F8440092
S315080021A037462078400721D5D4F89000052800F254
S315080021B0FD81DFE800F00F03090F0F0F04F1080097
S315080021C0012101F04FFF04E004F12800012101F08C
S315080021D0CDFF05462E4655B9D8F84800D4F89010D4
S315080021E020F0070000250843C8F848003E46207836
S315080021F0800623D5D4F88C004FEA3070052800F203
S31508002200D881DFE800F00F03090F0F0F04F108006B
S31508002210002101F027FF04E004F12800022101F063
S31508002220A5FF05462F4655B9D8F84400D4F88C10B2
S3150800223020F0E04000250843C8F8440037462078D7
S31508002240400623D5D4F898004FEAB020052800F2B6
S31508002250B381DFE800F00F03090F0F0F04F1080040
S31508002260002101F0FFFE04E004F12800022101F03C
S315080022707DFF05462E4655B9D8F84800D4F898107B
S3150800228020F4E05000250843C8F848003E46207868
S31508002290000623D5D4F89C004FEA7030052800F2D2
S315080022A08E81DFE800F00F03090F0F0F04F1080015
S315080022B0002101F0D7FE04E004F12800022101F014
S315080022C055FF05462F4655B9D8F84800D4F89C104E
S315080022D020F4604000250843C8F8480037462068BF
S315080022E0010716D5D4F88000B0F5805F09D104F14E
S315080022F02800022101F03AFF002818BF0127D4F868
S315080023008000D8F8441021F440510843C8F8440026
S315080023102068C10616D5D4F89400B0F5807F09D197
S3150800232004F12800022101F021FF002818BF012727
S31508002330D4F89400D8F8481021F440710843C8F836
S3150800234048002068000322D5D4F8A000B0F5003F65
S3150800235011D0B0F5803F08D0002840F0138104F171
S315080023600800002101F07EFE04E004F128000221A5
S3150800237001F0FCFE05462E4655B9D8F84800D4F8B3
S31508002380A01020F4403000250843C8F848003E460F
S31508002390A078400724D5D4F88400B0F5401F13D0A0
S315080023A0B0F5001F0AD0B0F5801F40F0EE80D8F8CF
S315080023B01C0040F40030C8F81C0005E004F12800B1
S315080023C0012101F0D3FE05462F4655B9D8F8440039
S315080023D0D4F8841020F4401000250843C8F84400B7
S315080023E03746A078C00701D13E461FE0206DB0F5FC
S315080023F0803F07D0C0B9D8F81C0040F40030C8F8B0
S315080024001C0005E004F10800022101F02BFE054638
S315080024102E465DB9D8F83C00216D20F480300025A1
S315080024200843C8F83C00DFE7012501262168880033
S3150800243001D4606809E004F12800022101F096FE43
S31508002440002818BF0126D4E900108A031AD5E26FBE
S315080024506FF0010303EB3223022B0BD34FEA32232F
S3150800246043B1012B40F09480D8F81C3043F4003374
S31508002470C8F81C303DB9D8F8443023F440731A43E1
S31508002480C8F844203546CA0207D5D8F84020236F35
S3150800249022F000421A43C8F840208A0207D5D8F825
S315080024A04020A36E22F080721A43C8F840204A00E2
S315080024B00CD5D8F8002022F40042C8F80020D4F839
S315080024C0B420D8F800301A43C8F80020CA0F07D03D
S315080024D0D8F83C20636D22F040521A43C8F83C20D5
S315080024E0090208D5D8F84410D4F8882021F4400108
S315080024F01143C8F84410C10708D004F108000021A8
S3150800250001F0B0FD002818BF05466068810708D5A8
S3150800251004F10800012101F0A5FD002818BF0546B1
S315080025206068410708D504F10800022101F09AFD08
S31508002530002818BF05466068010708D504F1280079
S31508002540002101F013FE002818BF05466068C10681
S3150800255008D504F12800012101F008FE002818BF5B
S3150800256005466068800607D504F12800022101F0B7
S31508002570FDFD002818BF0125002D18BF0125284696
S31508002580BDE8F0870125012602E70125012728E78E
S31508002590012578E701250126F6E4012501271BE533
S315080025A001250126D9E501250127FAE50125012698
S315080025B01DE60125012742E60125012667E60125D4
S315080025C001278CE6D4F8B0004FF6CF73D8F8002070
S315080025D0C0F2FF0300F4407122F47C5203EA1013A0
S315080025E06FF31F30B1F5407F08BF1A430025C8F8BE
S315080025F00020D8F860100843C8F8600039E50000E4
S315080026002DE9F04381B0002800F0198142F2000854
S315080026100446C5F200288946D8F8000000F00F00E5
S3150800262081420ED9D8F8000020F00F0040EA0900D0
S31508002630C8F80000D8F8000000F00F00484540F040
S31508002640FE80206844F210474107C5F602070AD5FE
S315080026502169BA6802F07002914204D9BA6822F078
S3150800266070021143B96001070AD56169FA6802F078
S315080026707002914204D9FA6822F070021143F96097
S31508002680C1060AD5A169FA6802F4E062914204D942
S31508002690FA6822F4E0621143F96081060AD5E16915
S315080026A03A6902F07002914204D93A6922F070023E
S315080026B01143396110F002010AD0E268BB6803F0E1
S315080026C00F039A4204D9BB6823F00F031A43BA6072
S315080026D0C20736D0B86820F47061D4E90102114304
S315080026E0B960012857F8101C09D0032804D002281D
S315080026F008D1890309D4A2E0890106D49FE0C90557
S3150800270003D49CE0490740F19A80396821F0070113
S3150800271008433860FFF75CF8064641F2883500BF83
S315080027203868616800F03800B0EBC10F06D0FFF7D3
S315080027304FF8801BA842F3D9032081E0206800F0F7
S31508002740020151B1E168BA6802F00F02914204D25F
S31508002750BA6822F00F021143B960D8F8001001F0E8
S315080027600F0189450DD2D8F8001021F00F0141EA72
S315080027700901C8F80010D8F8001001F00F01494502
S315080027805DD141070AD52169BA6802F07002914203
S3150800279004D2BA6822F070021143B96001070AD55B
S315080027A06169FA6802F07002914204D2FA6822F06E
S315080027B070021143F960C1060AD5A169FA6802F4E4
S315080027C0E062914204D2FA6822F4E0621143F960A9
S315080027D080060AD5E069396901F07001884204D299
S315080027E0396921F070010843386100F0A5F8B96825
S315080027F045F2EA62C0F60002C1F30321515CBB68E8
S3150800280003F00F0301F01F01D25C20FA01F102F078
S315080028101F0040F20002C2F2000221FA00F0106026
S3150800282040F2040040F20002C2F20040C2F2004246
S315080028300068116001B0BDE8F043FFF70DB801204C
S3150800284001B0BDE8F0833F22026044F21842C5F6A3
S31508002850020252F8083C03F007034360136803F4C6
S3150800286070638360136803F00F03C360136803F093
S3150800287070030361536803F070034361536803F4FC
S31508002880E0638361926802F07002C26142F200005E
S31508002890C5F20020006800F00F000860704780B598
S315080028A000F04AF844F2184145F2EA63C5F6020117
S315080028B0C0F600030A68C2F303229A5C096801F0AD
S315080028C00F0102F01F02595C20FA02F201F01F0004
S315080028D040F20001C2F2000122FA00F0086040F25C
S315080028E00001C2F200410A6080BD80B5FFF7D7FF3C
S315080028F044F21C4145F2EA62C5F60201C0F600023E
S315080029000968C1F30211515C01F01F01C84080BD7E
S3150800291080B5FFF7C4FF44F21C4145F2EA62C5F6EA
S315080029200201C0F600020968C1F30221515C01F0F8
S315080029301F01C84080BD000044F20041C5F60201EF
S315080029400869C0F3C200032814D002280DD088BB3A
S315080029500868800649F20000C0F2D03058BF7047B8
S315080029600968C1F3C101C840704747F64000C0F284
S315080029707D1070478B6A886AD1F82CC04A6BC0F301
S315080029800510E0B1C2F3CC0203F0030300EE102AEF
S315080029909FED291AB8EE400A20EE010A9FED271A84
S315080029A0DFE803F0021F0F1F0A6892060CD49FED9A
S315080029B0251A16E040F60010C0F23D0070470020C8
S315080029C070479FED1F1A0CE00A6849F20003C0F22F
S315080029D0D033C2F3C10223FA02F201EE102AB8EE8E
S315080029E0411A0A6B9FED183A6FF35F2202EE102A1E
S315080029F05FEACC7203FE000A03EE100A086BB8EE13
S31508002A00422AC0F34620B8EE433A013030EE020AB5
S31508002A10B7EE002A81EE031A30EE020A21EE000A0A
S31508002A2001EE100AB8EE411A80EE010ABCEEC00AA1
S31508002A3010EE100A704700BF000000390024744ADF
S31508002A4020BCBE4B0024744C0000000058B3F0B5FF
S31508002A5081B00446007844F20046C007C5F602066F
S31508002A6023D12078800769D5306910F03801B06A1B
S31508002A7042D0182908BF5FEA80703DD0E068316807
S31508002A80002800F03B8121F0190108433060FEF769
S31508002A909FFE05463068400749D4FEF799FE401B5D
S31508002AA00228F7D973E101207047306900F0380130
S31508002AB0B06A102905D018290AD100F003000228A7
S31508002AC006D130688003CCD560680028C9D1C0E03B
S31508002AD061683068002900F05D81B1F5A02F00F02B
S31508002AE04381B1F5803F00F0438120F480303060A7
S31508002AF0306820F480203DE130684007E06802D560
S31508002B00002800F0A680316821F0190108433060DA
S31508002B10FEF75EFE054600BF3068400707D4FEF79D
S31508002B2057FE401B02284FF00300F5D930E17068C4
S31508002B30216920F0FE4040EA016070602078C006F6
S31508002B401AD5306900F03801B06A082907D0182963
S31508002B5040F0968000F00300012840F0918030682C
S31508002B60C00502D5E069802873D1F068216A20F093
S31508002B707C5040EA0160F0602078000755D4207840
S31508002B80800668D42078400700F19280656A002D97
S31508002B9049D0306900F03800182840F02381012D0B
S31508002BA0B16A306B55D001F00302A36A9A4250D13C
S31508002BB0C1F30511E26A91424BD10146226B6FF3CC
S31508002BC05F21013A914244D1C0F34622616B013933
S31508002BD08A423ED1C0F30642A16B01398A4238D1F6
S31508002BE0C0F30660E16B0139884232D1706BA16C83
S31508002BF0C0F3CC00814216D0F06A20F00100F062E2
S31508002C00FEF7E6FD0546FEF7E3FDA842FBD0706B2E
S31508002C104FF6F871A26C884340EAC2007063F06A06
S31508002C2040F00100F0620020B2E060690028706F91
S31508002C3052D040F001007067FEF7CAFD054600BF96
S31508002C40706F80079BD4FEF7C3FD401B0228F7D997
S31508002C509DE001209CE0A0690028306872D040F40D
S31508002C6080503060FEF7B4FD054600BF306880042A
S31508002C703FF588AFFEF7ACFD401B0228F6D986E083
S31508002C80E0690028306800F09B8040F080003060E2
S31508002C90FEF79EFD054600BF3068C0053FF565AFE7
S31508002CA0FEF796FD401B02284FF00300F4D96FE0AB
S31508002CB0D6F8000440F48070C6F80004FEF788FDD4
S31508002CC0054600BFD6F80004C00529D4FEF780FDE6
S31508002CD0401B6428F6D95AE020F001007067FEF719
S31508002CE077FD0546706F80077FF549AFFEF770FDE3
S31508002CF0401B02284FF00300F4D949E021F00100F7
S31508002D003060FEF765FD0546306840077FF516AF6B
S31508002D10FEF75EFD401B02284FF00300F4D937E0AA
S31508002D20A168306F002900F09780052900F07C80A3
S31508002D30012900F07D8020F001003067306F20F017
S31508002D40040077E020F480503060FEF741FD054628
S31508002D50306880047FF516AFFEF73AFD401B02285F
S31508002D604FF00300F4D913E040F480203060306857
S31508002D7040F480303060FEF72BFD0546306880034E
S31508002D803FF56FAEFEF724FD401B6428F6D90320F5
S31508002D9001B0F0BD20F480303060306820F4802027
S31508002DA03060FEF715FD0546306880037FF559AE9D
S31508002DB0FEF70EFD401B64284FF00300F4D9E7E741
S31508002DC020F080003060FEF703FD05463068C00538
S31508002DD07FF5D2AEFEF7FCFC401B02284FF003003D
S31508002DE0F4D9D5E7306820F080703060FEF7F0FC43
S31508002DF0022D05460CD100BF3068800144D5FEF788
S31508002E00E7FC401B02284FF00300F5D9C0E700BFD6
S31508002E10306880017FF507AFFEF7DAFC401B022811
S31508002E204FF00300F4D9B3E740F004003067306F81
S31508002E3040F001003067FEF7CBFC054641F28837C3
S31508002E40306F80073FF5A2AEFEF7C2FC401BB842C2
S31508002E504FF00300F4D99BE720F001003067306F8C
S31508002E6020F004003067FEF7B3FC054641F28837C8
S31508002E70306F80077FF58AAEFEF7AAFC401BB84282
S31508002E804FF00300F4D983E704F12807B06A40F24B
S31508002E90F33188438ECF0843591E40EA02104FF497
S31508002EA07E426FF35F21B06202EB47204FF4FE02C9
S31508002EB080B2E36B0844A16B02EB01414FF0FE427E
S31508002EC001F4FE0102EB0362084402F0FE410844E5
S31508002ED03063F06A4FF6F87120F00100F062706B0B
S31508002EE0A26C884340EAC2007063F06A216C20F045
S31508002EF00C000843F062F06A616C20F00200084397
S31508002F00F062F06A40F48030F062F06A40F4003013
S31508002F10F062F06A40F48020F062F06A40F0010046
S31508002F20F062306840F080703060FEF751FC04466D
S31508002F30306880013FF577AEFEF74AFC001B022891
S31508002F404FF00300F4D923E770477047704760B322
S31508002F5010B5044690F83D0028B9002084F83C00D6
S31508002F60204600F024F8022084F83D002068211D40
S31508002F7001F092FA012084F8480084F83E0084F8AB
S31508002F803F0084F8400084F8410084F8420084F841
S31508002F90430084F8440084F8450084F8460084F821
S31508002FA0470084F83D00002010BD01207047704797
S31508002FB090F83D10012922D1022180F83D100168C0
S31508002FC04DF6FF70C4F200008142C86840F0010067
S31508002FD0C86016DC40F2FF70C4F20000814226DDAC
S31508002FE040F60000C4F20000814232D040F60040AC
S31508002FF0C4F2000081422CD041F6000025E00120F1
S3150800300070474FF6FF70C4F20000814215DD0020BC
S31508003010C4F2010081421CD044F20000C4F201004F
S31508003020814216D040F20040C4F201000FE0B1F12F
S31508003030804F0ED040F2004007E04EF20000C4F286
S315080030400000814205D04EF20040C4F200008142E1
S315080030500BD107228868C0F2010202400020062A26
S3150800306018BFB2F5803F00D17047086840F00100EC
S315080030700860002070477047F0B581B004460068C4
S31508003080C5680669B10716D515F0020113D06FF0A9
S3150800309002010161012121778069800703D020465A
S315080030A0FFF7E9FF05E0204600F096F8204600F015
S315080030B094F800202077700718D515F0040015D06D
S315080030C020686FF00401016102212177806910F4FC
S315080030D0407F03D02046FFF7CEFF05E0204600F0EC
S315080030E07BF8204600F079F800202077300717D5BE
S315080030F015F0080014D020686FF00801016104215A
S315080031002177C069800703D02046FFF7B4FF05E0A2
S31508003110204600F061F8204600F05FF8002020778E
S31508003120F00618D515F0100015D020686FF01001BC
S31508003130016108212177C06910F4407F03D0204639
S31508003140FFF799FF05E0204600F046F8204600F014
S3150800315044F800202077F00718BF15F0010006D0C4
S3150800316020686FF001010161204600F037F805F08C
S31508003170800716F4025F18BF002F06D020686FF488
S31508003180025101612046FFF7E0FEF00507D537B189
S3150800319020686FF4807101612046FFF7D5FE70063E
S315080031A009D515F0400006D020686FF0400101618E
S315080031B0204600F01DF8B0060CD515F0200009D001
S315080031C020686FF020010161204601B0BDE8F0409B
S315080031D0FFF7BCBE01B0F0BD7047704744F600016A
S315080031E00068C4F20101884218BF7047FEF7F6BAB4
S315080031F0704790F88410012901D1022112E0242198
S31508003200C0F8881002681368116823F0005321F08B
S31508003210010111600021416613602022C0F8882050
S3150800322080F8841008467047B0B5044690F88400C4
S31508003230012801D10220B0BD012084F88400242091
S31508003240C4F8880020680568026822F00102026056
S31508003250826822F0606211438160204601F0C5F958
S31508003260206805602020C4F88800002084F88400BF
S31508003270B0BDB0B5044690F88400012801D10220FB
S31508003280B0BD012084F884002420C4F88800206892
S315080032900568026822F001020260826822F0604234
S315080032A011438160204601F0A0F9206805602020BE
S315080032B0C4F88800002084F88400B0BD10B5D8B1E1
S315080032C00446D0F8880028B9002084F884002046EF
S315080032D000F026F82420C4F888002068A16A02684D
S315080032E0002922F00101016002D0204601F0A6F96A
S315080032F0204601F093FA08B1012010BD2068416804
S3150800330021F490414160816821F02A0181600168B9
S3150800331041F0010101602046BDE8104001F0F2B914
S315080033202DE9F041B6B0044631A81421FDF712F98B
S3150800333002A8B0210830FDF70DF944F200412068D3
S31508003340C4F20001884267D102A800260396022526
S315080033500295FEF7D7FC08B1FDF73EFB44F2E040C4
S3150800336040F21008C5F60200C4F20208816841F46A
S3150800337000318160816801F4003101910199016889
S3150800338041F001010160006831A900F001000190D7
S3150800339001980C2061C107203590002031A9C5F697
S315080033A002003496FEF742F940F23C152B20C2F291
S315080033B000054FF48067C5E901064FF48070C5F82B
S315080033C00080C5E907062846EE60C5E90476AE61C1
S315080033D06E62FDF7D5FE08B1FDF7FEFAC4F8805017
S315080033E008F11800AC6340F2B415C2F200051421C6
S315080033F028602C2068604020A8600020C5E90307E3
S3150800340005F11400FDF7A6F82846FDF7B9FE08B140
S31508003410FDF7E2FAE567AC6336B0BDE8F081000077
S31508003420FEE700002DE9F0470B6893FAA3F2B2FA1B
S3150800343082F233FA02F654D04FF0010C0CFA02F677
S3150800344013EA060449D04E6804FB04FE751E022DD5
S3150800345016D2D0F808800EEB4E05D1E9027907FBA3
S315080034600EFA28EA0507ED4347EA0A078760D0F807
S31508003470048009FB03F728EA03033B43436002E0A1
S315080034800EEB4E03DD430B69C7682F40022E03FB84
S315080034900EF343EA0703C36017D1230AB4F5807F06
S315080034A003FB03F34FF0240403FB03F33CBF202480
S315080034B00EFB0EF3D1F814800759C3EB031608FB6D
S315080034C003F327EA060633430351D1E900340668B5
S315080034D004FB0EF72E4037430760013233FA02F732
S315080034E0ACD10020BDE8F08710B544F200444FF097
S315080034F0000EC5F60204A26A02F00302DFE802F033
S31508003500020F161E2268520718D5226849F20003D0
S31508003510C0F2D033C2F3C10223FA02FE0EE02268DB
S3150800352040F60013D205C0F23D0305E0226847F6CF
S3150800353040039203C0F27D1303EAE27E0022826012
S31508003540C0E90022A36A226BE16AC907C3F305131F
S3150800355002D19FED3F0A0AE0616B9FED3E1AC1F367
S31508003560CC0100EE101AB8EE400A20EE010A002B34
S315080035706CD06FF35F22E16AC90302F1010C1FD513
S3150800358001EE10EA02EE103A03EE10CA216BC1F3FF
S315080035904621B8EE411AB8EE422A0131B8EE433A4E
S315080035A081EE021A30EE032A21EE021A02EE101AF2
S315080035B0B8EE422A81EE021ABCEEC11A80ED001A54
S315080035C0E16A89031FD501EE10EA02EE103A03EE0E
S315080035D010CA216BC1F30641B8EE411AB8EE422A69
S315080035E00131B8EE433A81EE021A30EE032A21EE93
S315080035F0021A02EE101AB8EE422A81EE021ABCEE40
S31508003600C11A80ED011AE16A49031FD501EE10EAD5
S3150800361002EE103A03EE10CA216BC1F30661B8EE4A
S31508003620411AB8EE422A0131B8EE433A81EE021A3F
S3150800363030EE030A21EE000A01EE101AB8EE411A1E
S3150800364080EE010ABCEEC00A80ED020A10BD00BF7A
S31508003650000000000000003910B544F200444FF0A5
S31508003660000EC5F60204A26A02F00302DFE802F0C1
S31508003670020F161E2268520718D5226849F200035F
S31508003680C0F2D033C2F3C10223FA02FE0EE022686A
S3150800369040F60013D205C0F23D0305E0226847F65E
S315080036A040039203C0F27D1303EAE27E00228260A1
S315080036B0C0E90022A36AA26BE16AC906C3F305330F
S315080036C002D49FED3F0A0AE0E16B9FED3E1AC1F373
S315080036D0CC0100EE101AB8EE400A20EE010A002BC3
S315080036E06CD06FF35F22E16A090302F1010C1FD562
S315080036F001EE10EA02EE103A03EE10CAA16BC1F30E
S315080037004621B8EE411AB8EE422A0131B8EE433ADC
S3150800371081EE021A30EE032A21EE021A02EE101A80
S31508003720B8EE422A81EE021ABCEEC11A80ED001AE2
S31508003730E16AC9021FD501EE10EA02EE103A03EE5D
S3150800374010CAA16BC1F30641B8EE411AB8EE422A77
S315080037500131B8EE433A81EE021A30EE032A21EE21
S31508003760021A02EE101AB8EE422A81EE021ABCEECE
S31508003770C11A80ED011AE16A89021FD501EE10EA25
S3150800378002EE103A03EE10CAA16BC1F30661B8EE59
S31508003790411AB8EE422A0131B8EE433A81EE021ACE
S315080037A030EE030A21EE000A01EE101AB8EE411AAD
S315080037B080EE010ABCEEC00A80ED020A10BD00BF09
S315080037C0000000000000003910B544F200444FF034
S315080037D0000EC5F60204A26A02F00302DFE802F050
S315080037E0020F161E2268520718D5226849F20003EE
S315080037F0C0F2D033C2F3C10223FA02FE0EE02268F9
S3150800380040F60013D205C0F23D0305E0226847F6EC
S3150800381040039203C0F27D1303EAE27E002282602F
S31508003820C0E90022A36A226CE16AC905C3F30553FD
S3150800383002D49FED400A0AE0616C9FED3F1AC1F37E
S31508003840CC0100EE101AB8EE400A20EE010A002B51
S315080038506FD0BEF1000F6CD06FF35F22E16A4902A8
S3150800386002F1010C1FD501EE10EA02EE103A03EE42
S3150800387010CA216CC1F34621B8EE411AB8EE422AA5
S315080038800131B8EE433A81EE021A30EE032A21EEF0
S31508003890021A02EE101AB8EE422A81EE021ABCEE9D
S315080038A0C11A80ED001AE16A09021FD501EE10EA75
S315080038B002EE103A03EE10CA216CC1F30641B8EEC7
S315080038C0411AB8EE422A0131B8EE433A81EE021A9D
S315080038D030EE032A21EE021A02EE101AB8EE422A38
S315080038E081EE021ABCEEC11A80ED011AE16AC9011D
S315080038F01FD501EE10EA02EE103A03EE10CA216C4B
S31508003900C1F30661B8EE411AB8EE422A0131B8EEA3
S31508003910433A81EE021A30EE030A21EE000A01EE5E
S31508003920101AB8EE411A80EE010ABCEEC00A80ED04
S31508003930020A10BD000000000000003910B584B06E
S3150800394040F244210246C0F30423C0F2580161F351
S315080039501F2244F20044010EC5F60204D26C9940B7
S315080039601140D94040EA01410720C0F20370814264
S315080039704FF0000016DC40F20732C0F201729142A5
S3150800398027DC0822C0F20072914267D040F2083262
S31508003990C0F2007291427DD00822C0F201729142B3
S315080039A046D092E040F20732C0F20472914228DC17
S315080039B00822C0F2037291424BD040F20832C0F29C
S315080039C00372914245D00822C0F20472914237D060
S315080039D07BE040F20832C0F20172914228D00822F8
S315080039E0C0F20272914205D040F20832C0F2027269
S315080039F091426AD1206880002ED501A8FFF7E4FE1F
S31508003A001CE040F20832C0F20472914218D0082233
S31508003A10C0F20572914205D040F20832C0F2057232
S31508003A20914252D1206F4FF4004101EA80304CE0B8
S31508003A302068000110D501A8FFF70EFE029844E0A1
S31508003A40206840F60011C005C0F23D0101EAE070A9
S31508003A503BE02068400713D4002036E000F00AFC5B
S31508003A60A16945F2FA62C0F60002C1F30321515C6E
S31508003A70A36903F00F03D35CE469C4F302141AE0E4
S31508003A80206849F20001C0F2D031C0F3C10021FA22
S31508003A9000F01AE000F0EEFBA16945F2FA62C0F602
S31508003AA00002C1F30321515CA36903F00F03D35C41
S31508003AB0E469C4F30224125D01F01F01C84003F053
S31508003AC01F01C84002F01F01C84004B010BD000025
S31508003AD0B0B504460068C0073BD10D4646F6F3115B
S31508003AE005F108032068CEF6FF7108400ECB08439F
S31508003AF069691843EB690843082118432060606820
S31508003B0047F6FF3320F44050C4F2000310436060C8
S31508003B10A869A26822F44072C0F2007110439C4260
S31508003B20A0604FF0010016DC44F6FF32C4F2000232
S31508003B30944227DD44F60042C4F2000294423DD086
S31508003B4045F20002C4F20002944237D047F600025A
S31508003B5020E00120B0BD41F2FF32C4F201029442D6
S31508003B6001F540721BDD41F20041C4F201018C42AD
S31508003B7023D041F60001C4F201018C421DD041F662
S31508003B80004114E044F20042C4F20002944215D007
S31508003B9044F60002C4F2000294420FD035E047F61C
S31508003BA00043C4F200039C4208D041F20001C4F26B
S31508003BB001018C42114601D027E011460846FFF75D
S31508003BC0BDFEC8B16968B9B12A680B2A1CD812A308
S31508003BD053F82220B0FBF2F0EA69B2F5004F0DD196
S31508003BE0400000EB5100B0FBF1F04FF6F0710140D8
S31508003BF0C0F34200084406E0012006E000EB51004D
S31508003C00B0FBF1F080B2E06000202988E26A22F079
S31508003C100F021143E162B0BD01000000020000007E
S31508003C200400000006000000080000000A0000006A
S31508003C300C000000100000002000000040000000FA
S31508003C40800000000001000080B582B044F2D84030
S31508003C500022C5F60200016841F001010160006812
S31508003C60052100F00100019001980B20FDF7B4FE34
S31508003C700B20FDF7A1FE0C2005210022FDF7ACFE66
S31508003C800C2002B0BDE88040FDF796BE81B044F234
S31508003C90E040C5F60200016841F080010160016854
S31508003CA001F0800100910099016841F0010101606D
S31508003CB0016801F0010100910099016841F00201D3
S31508003CC00160016801F0020100910099016841F064
S31508003CD004010160006800F004000090009801B03B
S31508003CE070470000F0B5BDB034A820212025FCF7A8
S31508003CF031FC2EA81821FCF72DFC6C46B02104F1E6
S31508003D000800FCF727FC01200090204600260196B3
S31508003D10FDF7F8FF08B1FCF75FFE44F2E04041F218
S31508003D200004C5F60200C4F201040427016941F043
S31508003D3010010161016901F010013C913C9901688B
S31508003D4041F00201016000682EA900F002003C90D3
S31508003D503C984FF440402E900220CDE92F0640F2C1
S31508003D6000403196C5F6020032963397FFF75AFBA4
S31508003D704EF60C500522CEF200000068C0F3022071
S31508003D8080F00701042938BF0F4603384FF0FF318A
S31508003D9038BF3046B94022EA010101FA00F04EF276
S31508003DA02541CEF20001000108704EF20410CEF251
S31508003DB0000034A905604FF4E1303496CDE93506A4
S31508003DC00C203B96CDE939062046CDE93766FFF744
S31508003DD07FFE41F20800C4F2010000BF50E8001F50
S31508003DE021F0604140E80012002AF7D150E8001F90
S31508003DF021F0606140E80012002AF7D1206820F01F
S31508003E0000502060606820F490406060A06820F050
S31508003E102A00A060206840F001002060E069800266
S31508003E20FCD5E0694002F9D53DB0F0BD10B540F2C9
S31508003E302C2444F20040C2F20004C4F2000014210B
S31508003E4020604FF4E13060600020C4E90200206180
S31508003E500C20606104F11800FCF77CFB2046FFF794
S31508003E602DFA08B1FCF7B8FD40F22C200021C2F269
S31508003E700000FFF7FEF908B1FCF7AEFD40F22C2072
S31508003E800021C2F20000FFF7CFF908B1FCF7A4FD44
S31508003E9040F22C20C2F20000FFF7ABF918B1BDE8DA
S31508003EA01040FCF799BD10BDB0B5BEB035A82021AD
S31508003EB0FCF750FB2FA81821FCF74CFB6C46B021E9
S31508003EC004F10800FCF746FB012000902046002577
S31508003ED00195FDF717FF08B1FCF77EFD44F2E040B7
S31508003EE041F20044C5F60200C4F20104016941F03A
S31508003EF020010161016901F020013D913D990168A8
S31508003F0041F00401016000682FA900F004003D900B
S31508003F103D98C0202F900220CDE930050720349027
S31508003F2040F600003295C5F602003395FFF77AFA97
S31508003F304EF60C504FF0FF32CEF200000068C0F388
S31508003F40022080F00701042928BF0421033838BF5E
S31508003F50284602FA01F1052222EA010101FA00F0D7
S31508003F604EF24741CEF20001000108704EF20810E9
S31508003F70CEF20000802101604FF4E13035A9CDE989
S31508003F8036050C203595CDE93A0520463C95CDE910
S31508003F903855FFF79DFD41F20840C4F2010000BF05
S31508003FA050E8001F21F0604140E80012002AF7D1CE
S31508003FB050E8001F21F0606140E80012002AF7D19E
S31508003FC0206820F000502060606820F4904060600F
S31508003FD0A06820F02A00A060206840F00100206058
S31508003FE0E0698002FCD5E0694002F9D53EB0B0BD73
S31508003FF0FEE70000FEE700000000000000000000E9
S31508004000EFF30980BFF36F8F154B1A681EF0100F78
S3150800401008BF20ED108A20E9F04F10602DE909004D
S315080040204FF0500080F31188BFF34F8FBFF36F8FA7
S3150800403001F024FA4FF0000080F31188BDE809006A
S3150800404019680868B0E8F04F1EF0100F08BFB0EC0A
S31508004050108A80F30988BFF36F8F704700BF00BFCF
S3150800406074010024F0B581B044F20047C5F6020792
S31508004070BA6A02F00302032A01D1012073E0054659
S3150800408038680C4620F080603860FDF7A1FB0646CC
S315080040903868000105D5FDF79BFB801B0228F7D978
S315080040A05EE0B86AEE6895E80E0020F47C30012CD4
S315080040B040EA0130A2F101016FF35F214FF47E421D
S315080040C002EB4322B86292B24FF0FE4302EB0100C4
S315080040D04FF4FE012A6901EB064101F4FE0103EBE8
S315080040E00262084402F0FE410844B863F86A696946
S315080040F020F0C00040EA0100F862F86AA96920F0D9
S31508004100200040EA0100F862F86A4FF6F87120F0DC
S315080041101000F862F86BEA6920EA01004FF4001112
S3150800412040EAC200F863F86A08BF4FF4801140F00D
S315080041301000002CF86208BF4FF40021F86A084303
S31508004140F862386840F080603860FDF741FB044645
S315080041503868000106D4FDF73BFB001B0328F7D39C
S31508004160032000E0002001B0F0BD0000F0B581B0EA
S3150800417044F20047C5F60207BA6A02F00302032AA8
S3150800418001D1012073E0054638680C4620F08050BE
S315080041903860FDF71DFB06463868800005D5FDF733
S315080041A017FB801B0228F7D95EE0B86AEE6895E827
S315080041B00E0020F07C70012C40EA0150A2F10101AA
S315080041C06FF35F214FF47E4202EB4322B86292B24C
S315080041D04FF0FE4302EB01004FF4FE012A6901EBA2
S315080041E0064101F4FE0103EB0262084402F0FE41B7
S315080041F008443864F86A696920F4406040EA0100B6
S31508004200F862F86AA96920F4007040EA0100F862C9
S31508004210F86A4FF6F87120F48070F862786CEA69EB
S3150800422020EA01004FF0807140EAC2007864F86A1B
S3150800423008BF4FF4000140F48070002CF86208BFF4
S315080042404FF48001F86A0843F862386840F08050F5
S315080042503860FDF7BDFA04463868800006D4FDF7D5
S31508004260B7FA001B0328F7D3032000E0002001B0AB
S31508004270F0BD000044F20040C5F602000169C1F332
S31508004280C20103291FD8DFE801F002190C110068E2
S3150800429049F20001C0F2D031C0F3C10021FA00F0A2
S315080042A0704747F64000C0F27D10704780B584B06D
S315080042B001A8FFF719F9019804B080BD40F600106F
S315080042C0C0F23D0070470020704700000000000063
S315080042D0074B19680868B0E8F04F80F30988BFF300
S315080042E06F8F4FF0000080F31188704700BF00BF42
S315080042F07401002480B54EF21000CEF2000000686A
S3150800430001F01AF9012808BF80BDBDE8804001F018
S31508004310FCB8000010B59CB044F6180409A84C2156
S31508004320C5F60204FCF716F901A82021FCF712F9D4
S315080043300220FDF78FFB00200090206820F4404003
S315080043402060206800F440400090009820688004AF
S31508004350FCD50120099016224FF48031CDE91520AD
S315080043600C20199009A80A9102211491CDE912117D
S31508004370CDE917110024CDE91A44FEF767FB20B1F1
S31508004380EFF3108072B600BFFEE73F2001900320CE
S315080043904FF48061CDE9020440200494CDE905007C
S315080043A0CDE9071001A80321FEF72AF918B1EFF3A2
S315080043B0108072B6FEE71CB010BD4EF6885042F269
S315080043C0000CCEF20000C5F2002C026842F470021E
S315080043D00260DCF8000000F00F00062806D8DCF8BA
S315080043E00000072262F30300CCF8000044F2004004
S315080043F04EF67F51C5F60200CEF6F621026842F067
S315080044000102026000220261036819400160DCF8BB
S315080044100010090706D5DCF80010072363F303012B
S31508004420CCF8001040F200218261C261C0F202217C
S31508004430026281620021C0F2FF11C16240F280214E
S31508004440C0F20111016342638163C263016442647D
S31508004450016821F4802101600266D0F8D410C904ED
S3150800446048BF7047D0F8D41043F2D20241F48051C5
S31508004470C0F8D41044F20001C5F200210A60D0F851
S31508004480D41021F48051C0F8D410704740F29C0033
S31508004490C2F20040FEF7F0BD10B540F6FF32D0F884
S315080044A000E0C4F2000290420DDCB0F1804F1BD050
S315080044B040F20043C4F20003984215D040F60003C8
S315080044C0C4F200030EE040F60043C4F2000398422B
S315080044D00AD040F20043C4F20103984204D00023F4
S315080044E0C4F20103984204D12EF070024B6843EAE5
S315080044F0020E4EF2FF3343F6FF7CC4F20003C4F209
S31508004500010C98420FDD604522DC4EF20043C4F2EE
S315080045100003984236D00023C4F20103984231D0F2
S3150800452040F2004322E040F2FF73C4F200039842CF
S315080045301FDD40F60003C4F20003984222D040F67D
S315080045400043C4F2000398421CD04EF2000315E063
S3150800455044F20003C4F20103984213D044F6000360
S31508004560C4F2010398420DD044F20043C4F2010399
S3150800457006E0B0F1804F05D040F20043C4F20003D4
S31508004580984204D12EF44072CB6843EA020E4B6976
S3150800459060450A688C68C46282620EDD44F20002D5
S315080045A0C4F20102904213D044F60002C4F201029A
S315080045B090420DD044F2004206E00022C4F2010205
S315080045C0904205D040F20042C4F20102904201D165
S315080045D009690163016841F0040101600121416133
S315080045E02EF080011943016010BD416EF9B180B506
S315080045F0016845F2227CC0F6000C45F22A7E8A68DC
S31508004600C0F6000E8968490FC2F342621CF80130F1
S315080046101EF801101B01B3FBF1F11CF802301EF85D
S3150800462002201B01B3FBF2F2BDE8804001E0012144
S315080046300122A0F86A10A0F868207047816A0A0764
S3150800464008D50268D0F838C0536823F4004343EA13
S315080046500C035360CA0708D00268D0F82CC0536808
S3150800466023F4003343EA0C0353608A0708D502682B
S31508004670D0F830C0536823F4803343EA0C03536000
S315080046804A0708D50268D0F834C0536823F4802353
S3150800469043EA0C035360CA0608D50268D0F83CC042
S315080046A0936823F4805343EA0C0393608A0608D57B
S315080046B00268D0F840C0936823F4005343EA0C0319
S315080046C093604A0612D50268D0F844C0BCF5801F2C
S315080046D0536823F4801343EA0C03536006D15368E6
S315080046E023F4C00C836C43EA0C035360090658BFD5
S315080046F070470168C06C4A6822F40022104348607B
S3150800470070470000B0B582B004460020C4F8900097
S31508004710FDF75EF8216805460A68120719D54FF4B1
S31508004720001100226FF07E40009020462B4600F0D4
S3150800473029FA68B1206850E8000F216820F0800047
S3150800474041E80002002AF5D103202021882230E022
S3150800475021680868400723D54FF4800100226FF0CE
S315080047607E40009020462B4600F00CFAC0B100BFF0
S31508004770206850E8000F216820F4907041E8000294
S31508004780002AF5D1206850E8020F216820F00100C0
S3150800479041E80202002AF5D1032020218C2208E0F4
S315080047A02020C4F88800C4F88C000021E166702235
S315080047B00020A150002184F8841002B0B0BD00008A
S315080047C0016851E8001F026821F4907142E800135D
S315080047D0002BF5D14FF6FE7CCEF6FF7C026852E838
S315080047E0022F036802EA0C0243E802210029F5D1E8
S315080047F0C16E01290AD100BF016851E8001F02688D
S3150800480021F0100142E80013002BF5D12021C0F851
S315080048108C100021C166416770470000F0B583B06F
S315080048200446006846F6F31640F6004E2269E76924
S31508004830D4E902130A4361690568CCF6FF76114389
S3150800484005EA06021143C5F6000E394301604168C0
S31508004850704521F4405144F2004C41EA030141609D
S31508004860A2694FF2FF431CBF216A0A438168C1F25D
S31508004870FF13194047F6FF3311438160C16AC4F23A
S315080048800003C5F6020C21F00F01626A98424FF048
S31508004890800341EA0201C16218DD41F2FF71C4F2E8
S315080048A00101884227DC47F60041C4F2000188422C
S315080048B04ED041F20001C4F20101884231D041F2E2
S315080048C00041C4F2010188422BD04FE044F6FF3183
S315080048D0C4F2000188422FDD44F60041C4F200010B
S315080048E0884235D045F20001C4F2000188422FD033
S315080048F047F6000128E041F60001C4F201018842AA
S315080049000FD041F60041C4F20101884209D0704532
S315080049102CD1DCF8581001F00703062B25D297A1F5
S3150800492020E0DCF85410C1F3C203062B1DD245F271
S31508004930E461C0F6000115E044F20041C4F200014A
S31508004940884205D044F60001C4F2000188420DD120
S31508004950DCF8541001F00703062B06D245F2DE6197
S31508004960C0F600010B441B7800E08023704540F632
S315080049700010C0F23D0013D0B7F5004F1FD10F2B22
S315080049804FF0010136DC082B00F2D380DFE803F094
S315080049900596D1D184D1D1D18C00FDF7A6FF8FE041
S315080049A00F2B4FF001011BDC022B39D0042B48D00A
S315080049B0082B40F0BE806846FDF714F944E00F2B3B
S315080049C04FF0010121DC082B00F2B380DFE803F089
S315080049D00595B1B168B1B1B17100FDF786FF8EE0FA
S315080049E0102B20D0202B33D0402B40F0A2804FF440
S315080049F000402DE0102B00F0A580202B62D0402B24
S31508004A0040F097804FF400405CE0102B00F0A8803F
S31508004A10202B76D0402B40F08C804FF4004070E07D
S31508004A20FDF73CF811E0DCF80000800649F20000CA
S31508004A30C0F2D0300CD5DCF80010C1F3C101C84073
S31508004A4006E06846FDF73EF8019800286ED0626ACF
S31508004A5045F20A71C0F6000131F812106268B0FB1F
S31508004A60F1F002EB420188424FF0010161D31303D2
S31508004A7098425ED8010E0023000210EB520041F165
S31508004A800001FBF7AFFC4FF60052A0F54071C0F2EB
S31508004A900F02914248D34BE06846FDF713F806E04B
S31508004AA06846FDF70FF807E06846FDF79BF801989A
S31508004AB006E06846FDF796F8019820E0FDF728FF1E
S31508004AC0A0B3626A45F20A71C0F6000131F8121005
S31508004AD0B0FBF1F061684A0802EB40004FF6EF724E
S31508004AE0B0FBF1F0A0F11001914221D84FF6F07118
S31508004AF00140C0F34200084416E0FDF709FFA8B1DB
S31508004B00626A45F20A71C0F6000131F8121062684D
S31508004B10B0FBF1F000EB5200B0FBF2F0A0F110018F
S31508004B204FF6EF72914203D82168C860002100E071
S31508004B3001214FF00110A0660020C4E91D000846B7
S31508004B4003B0F0BDDCF80000800649F20000C0F2B0
S31508004B50D030B7D5DCF80010C1F3C101C840B1E7C1
S31508004B60DCF80000800649F20000C0F2D030C8D553
S31508004B70DCF80010C1F3C101C840C2E702040810FE
S31508004B80204000002DE9F047804600680D46C769B9
S31508004B903940491BB1FA81F149098A422DD1DDF81C
S31508004BA0209016469A4609F1010703248FB1FCF7AF
S31508004BB00FFEB9F1000F21D0A0EB0A0048451DD819
S31508004BC0D8F800000168490703D5402D18BF802D85
S31508004BD008D1C1692940491BB1FA81F149098E42B8
S31508004BE0E4D00AE0C16909070BD4C1690905F0D503
S31508004BF0032420254FF4006106E000242046BDE882
S31508004C00F08701240821082501624046FFF7D8FDF0
S31508004C10C8F89050002088F88400EFE700F048BBF9
S31508004C2000F0AABBFEE780B5022000F04BF940F27F
S31508004C305871C2F20001086080BD90ED010A90ED3E
S31508004C40021A21EE400A90ED001A90ED032AA1EE11
S31508004C50020A70479FED080A002200BF00EB020C0B
S31508004C608B1804329CED001A93ED002AA1EE020A75
S31508004C700C2AF3D1704700BF000000009FED070A19
S31508004C80002100BF421804310C2992ED001AA1EE4A
S31508004C90010AF7D1B1EEC00A704700BF0000000054
S31508004CA091ED002A91ED013A91ED024A90ED025AF2
S31508004CB090ED006A90ED017A23EE450A64EE460A05
S31508004CC022EE471AA7EE040AE5EE020AA6EE031A32
S31508004CD070470000F0B5D1E9002C4FF0000E9FEDAB
S31508004CE0130A00BF0EEB4E0100236446B0EE401ACD
S31508004CF000252646571996ED003A04350C3697EDE9
S31508004D00002A0C2DA2EE031AF4D15D180133032BE9
S31508004D1004F1040400EB850585ED001AE6D10EF1D1
S31508004D20010E0C32BEF1030FDCD1F0BD000000000D
S31508004D3090ED011A90ED020A20EE414A90ED002A04
S31508004D4090ED033A9FED0F6AA2EE034AB0EEC45AFD
S31508004D50B4EE465AF1EE10FAA1BFB7EE005A85EE48
S31508004D60044AB1EE405A23EE040AA1BF61EE440A92
S31508004D7024EE051A62EE041A704703A00FA1462214
S31508004D80FBF7A8FBBD3786357374643A3A616273DC
S31508004D902864657429203E3D20455053494C4F4EA2
S31508004DA020262620224D6174726978206973207343
S31508004DB0696E67756C617222000000002E2F7061A3
S31508004DC06C2F6D6174685F6170692F7372632F6DE4
S31508004DD061747269785F6170692E63707000000093
S31508004DE010B524210446FBF7B5FBB7EE000A0020F0
S31508004DF09FED081A00212246884201F1010100FEB2
S31508004E00012A0329A2EC012AF6D101300C34032821
S31508004E10F0D110BD0000000084B09FED1C0A0021EF
S31508004E20421804310C2992ED001AA1EE010AF7D1B5
S31508004E30B1EEC00A9FED161AB4EE410AF1EE10FA69
S31508004E4018DBB7EE001A002101AA0391CDE901117A
S31508004E5081EE000A431893ED001A5318043120EE28
S31508004E60011A0C2983ED001AF4D101A890EC030A63
S31508004E7004B0704745F2327045F25F71C0F6000023
S31508004E80C0F600014122FBF725FB00BF0000000029
S31508004E90BD378635B0B50C4624210546FBF75AFBC7
S31508004EA0002000BF00212A46635804310C2942F825
S31508004EB00C3BF9D101300C34032805F10405F1D176
S31508004EC0B0BD00000138C0B2052803D802A151F8C8
S31508004ED02000704700207047680000200800002462
S31508004EE0000000000000000000000000A8000020EC
S31508004EF084B001200090FCF72DFD0020019048F2B7
S31508004F001F70029040F2011003906846FCF7F3FC0C
S31508004F100420FCF72CFDFCF76EFCFFF7FBF9FEF707
S31508004F20B5FEFEF791FEFEF7DDFEFEF77FFFFEF704
S31508004F30BBFF41F20000C4F2010000BF50E8001FA9
S31508004F4041F0200140E80012002AF7D100F030F8BD
S31508004F500120FCF757FBFBE780B500F02DF900F0C0
S31508004F6029F800F0DBF840F284104FF07E51C2F2C7
S31508004F7000404FF0804200234FF0814CC0E90012F8
S31508004F8040F26070C4F24003C2F200000160C0E95A
S31508004F90012340F26C70C2F20000C0E90012C0E9B9
S31508004FA0023C40F2E800C2F2004080E80E1080BDE4
S31508004FB0FFF7D2BF2DE9F0479CB000250DF1280C6C
S31508004FC04FF07E5013904FF08041002240F20008C7
S31508004FD040F20009C4F21015C4F24002CDE91110DE
S31508004FE040F2F80015924FF0814316930027C4F259
S31508004FF0C008C4F2E0094FF082468CE86002CDE9A9
S315080050000F32C2F2004000220DF1280C0DF14C0AB5
S3150800501000231491C4F2A0071797CDF86080CDF845
S3150800502064901A961B95CDE90D8700BF0CEB020517
S315080050300AEB0207002600BFBC19A91994ED000A5D
S3150800504091ED001A8119043630EE010A0C2E81ED15
S31508005050000AF1D101330C30032B02F10C02E5D121
S3150800506040F2441001A9C2F20040CDE901ACFFF7B5
S3150800507031FE01A85146FFF70DFF40F2D0200199F5
S31508005080C2F20000016002994160039981600499A7
S31508005090C16005990161069941610799816108997D
S315080050A0C1610999016201A8FFF79AFE40F2201032
S315080050B00199C2F20040016002994160039981603A
S315080050C00499C16005990161069941610799816151
S315080050D00899C161099901624FF08140CDE901093A
S315080050E04FF08040CDE9030801A8FFF7A6FD40F27E
S315080050F01C10B5EE400AC2F20040F1EE10FA80ED3F
S31508005100000A08D001A8FFF713FE40F2C020C2F239
S31508005110000080EC040A1CB0BDE8F08710B58CB01E
S315080051204FF08143069300230022C4F2A00307939D
S31508005130002340F2681CC4F2C003089300234FF012
S315080051407E504FF080410491C4F240020592C4F2A9
S31508005150E00309934FF082430A9300230292CDE9B4
S3150800516000104FF0000E03A99FED120A6A46C2F21C
S31508005170004C0390C4F210130B9300BFB0EE401A14
S31508005180002300BFC818D418043390ED002A94ED04
S31508005190003AA2EE031A0C2BF4D10CEB8E000EF19A
S315080051A0010EBEF1030F01F10C0180ED001AE5D1E5
S315080051B00CB010BD00000000B0B586B04FF07E50B0
S315080051C003904FF080400490002040F27C73C4F2B4
S315080051D0400005904FF08140009000200022C4F264
S315080051E0A000019000206946C4F2C000029003A8FE
S315080051F0C2F2000385188C1895ED000A94ED001A82
S315080052009D18043230EE010A0C2A85ED000AF1D108
S3150800521040F29C130022C2F2004300BF8D18841886
S3150800522095ED000A94ED001A9D18043230EE410AF5
S315080052300C2A85ED000AF1D140F298720021C2F2DB
S31508005240000200BF431893ED000A5318043130EEEC
S31508005250000A0C2983ED000AF4D103AC6D462046FA
S315080052602946FFF7F7FC40F298102946C2F200409B
S3150800527080ED000A2046FFF713FD40F28C10C2F2BB
S31508005280004080EC030A2046FFF7C6FD40F28C700A
S31508005290C2F2000080EC030A2046FFF7EFFC40F25A
S315080052A08870C2F2000080ED000A06B0B0BD0000AA
S315080052B080B581B041F21C00C4F2010001680907FB
S315080052C006D50821416081688DF803109DF8031002
S315080052D0016889061ED540F22C1C40F28C01C2F2E8
S315080052E0000CC2F20041DCF800200968531C03F0E8
S315080052F03F038B4205D181688DF802109DF8021094
S3150800530008E040F2680E8168C2F2000E0EF802103C
S31508005310CCF80030016809062CD540F23411C2F2E7
S3150800532000010A68A2B140F2940C40F24802C2F2A7
S31508005330004CC2F20042DCF80030D25CC260581C55
S3150800534000F03F00CCF8000008680138086011E05A
S3150800535041F20000C4F2010050E8001F21F080016C
S3150800536040E80012002AF7D140F288000021C2F274
S315080053700040017001B080BD80B581B041F21C408B
S31508005380C4F201000168090706D508214160816851
S315080053908DF803109DF80310016889061ED540F2A2
S315080053A0301C40F29001C2F2000CC2F20041DCF857
S315080053B000200968531C03F03F038B4205D181681E
S315080053C08DF802109DF8021008E040F2A80E8168D8
S315080053D0C2F2000E0EF80210CCF800300168090679
S315080053E02CD540F23811C2F200010A68A2B140F287
S315080053F0980C40F2E802C2F2004CC2F20002DCF855
S315080054000030D25CC260581C00F03F00CCF80000A7
S3150800541008680138086011E041F20040C4F2010052
S3150800542050E8001F21F0800140E80012002AF7D159
S3150800543040F228100021C2F20000017001B080BDC0
S315080054400169D0E90132D1F804C09A6084455360F5
S3150800545008BF4A60002202610868013808600868C7
S315080054607047D0F800C043684B609A688A609960B4
S31508005470516008610CF101010160704740F27C102F
S31508005480C2F20040006830B140F2AC100121C2F20D
S3150800549000400160704740F2AC1040F2801CC2F236
S315080054A00040C2F2004C002140F2F8230160C2F22B
S315080054B00003DCF8001001EB810253F8220003EB2D
S315080054C08202B0B15068436802F108008342536013
S315080054D001D15B68536040F27410DA68C2F200408A
S315080054E00260CCF80010704752F8140D01390028F4
S315080054F0E8D10029F8D14FF0500080F31188BFF3A6
S315080055006F8FBFF34F8F00BFFEE780B54FF0500097
