:020000040800F2
:10000000D81500249D030008AD2A0008351E0008FD
:10001000A92A000879060008B13000080000000095
:10002000000000000000000000000000812D00081A
:100030007B06000800000000B12A0008AD2D000872
:10004000BB030008BB030008BB030008BB03000898
:10005000BB030008BB030008BB030008BB03000888
:10006000BB030008BB030008BB030008BB03000878
:10007000BB030008BB030008BB030008BB03000868
:10008000BB030008BB030008BB030008BB03000858
:10009000BB030008BB030008BB030008BB03000848
:1000A000BB030008BB030008BB030008BB03000838
:1000B000BB030008BB030008BB030008BB03000828
:1000C000BB030008BB030008BB030008BB03000818
:1000D000BB030008A3300008A7300008BB030008DA
:1000E000BB030008BB03000800000000BB030008BE
:1000F000BB030008BB030008BB030008BB030008E8
:10010000BB030008BB030008BB030008BB030008D7
:10011000BB030008BB030008BB030008BB030008C7
:10012000BB030008BB030008BB030008BB030008B7
:10013000BB030008BB030008BB030008BB030008A7
:1001400000000000000000000000000000000000AF
:10015000BB030008BB030008BB030008AB3000086A
:10016000BB030008BB030008BB030008BB03000877
:10017000BB030008BB030008BB030008000000002D
:10018000BB030008BB030008BB030008BB03000857
:10019000BB030008BB030008BB030008BB03000847
:1001A000BB030008BB030008BB03000800000000FD
:1001B000BB030008BB030008BB030008BB03000827
:1001C000BB030008BB0300080000000000000000A3
:1001D0000000000000000000BB0300080000000059
:1001E000000000000000000000000000000000000F
:1001F0000000000000000000BB030008BB03000873
:10020000BB030008BB03000800000000BB0300089C
:10021000BB030008BB030008452F0008BB03000810
:10022000BB03000800000000BB0300080000000042
:10023000BB030008BB03000800000000BB0300086C
:10024000BB030008BB030008BB030008BB03000896
:10025000BB030008BB030008BB030008BB03000886
:10026000BB030008BB030008BB030008BB03000876
:10027000BB030008BB030008BB030008000000002C
:10028000BB030008BB030008BB030008BB03000856
:1002900000000000BB030008BB03000800000000D2
:1002A00000000000BB030008BB030008BB030008FC
:1002B000BB030008BB030008BB030008BB03000826
:1002C000BB030008BB030008BB03000800F002F8F2
:1002D00000F054F814A696E8000CB244B344DA4592
:1002E00001D100F04BF8BAE80F000FA696E83000F5
:1002F000A5EB040504EB0607AAEB0704A7F1010729
:100300004FEA15154FEA3414A4F10104AC4201D3AD
:1003100000F034F813F0010F18BFFB1A43F001038B
:1003200000F001F8DBE71847884D0000B84D0000E9
:10033000103A24BF78C878C1FAD8520724BF30C811
:1003400030C144BF04680C60704700007047000073
:100350000023002400250026103A28BF78C1FBD8CE
:10036000520728BF30C148BF0B6070471FB504F06B
:1003700020FE00F0AFF81FBD10B510BD00F00CF965
:100380001146FFF7F3FF02F0D1FE00F02AF903B4A3
:10039000FFF7F2FF03BC00F0F1F800000A488047C5
:1003A0000A4880470A480047FEE7FEE7FEE7FEE707
:1003B000FEE7FEE7FEE7FEE7FEE7FEE70548064943
:1003C000064A074B7047000089060008732E000894
:1003D000CD020008D80F0024D8150024D81100241D
:1003E000D8110024032A40F2308010F0030C00F0F2
:1003F000158011F8013BBCF1020F624498BF11F85F
:1004000001CB00F8013B38BF11F8013BA2F1040217
:1004100098BF00F801CB38BF00F8013B11F003038F
:1004200000F07980083AC0F0088051F8043B083A9F
:1004300051F804CBA0E80810F5E7121D5CBF51F895
:10044000043B40F8043BAFF30080D20724BF11F80F
:10045000013B11F801CB48BF11F8012B24BF00F874
:10046000013B00F801CB48BF00F8012B704702F0B8
:10047000FF0343EA032242EA024200F002B84FF0CF
:10048000000200B5134694469646203922BFA0E8E4
:100490000C50A0E80C50B1F12001BFF4F7AF0907F0
:1004A00028BFA0E80C5048BF0CC05DF804EB8900E1
:1004B00028BF40F8042B08BF704748BF20F8022B24
:1004C00011F0804F18BF00F8012B7047704770473C
:1004D0007047000008487CB578440090074878448D
:1004E000009C0546019004E02046016808448047CE
:1004F000241DAC42F8D17CBD044C0000024C00002D
:1005000010B5002000F040F8FFF736FFBDE81040BE
:10051000012000F033B810B5203AC0F00B80B1E8EC
:100520001850A0E81850B1E81850A0E81850203A28
:10053000BFF4F5AF5FEA027C24BFB1E81850A0E831
:10054000185044BF18C918C0BDE810405FEA827C4B
:1005500024BF51F8043B40F8043B08BF7047D20762
:1005600028BF31F8023B48BF11F8012B28BF20F803
:10057000023B48BF00F8012B7047000001491820DA
:10058000ABBEFEE72600020010B500F039F8BDE86A
:10059000104000F02FB87047754600F049F8AE469D
:1005A00005006946534620F00700854618B020B57F
:1005B000FFF704FFBDE820404FF000064FF00007B2
:1005C0004FF000084FF0000BAC46ACE8C009ACE8B7
:1005D000C009ACE8C009ACE8C00921F007018D46AC
:1005E000704710B50446AFF300802046BDE81040C8
:1005F000FFF7CDBE002801D0FFF7C0BF7047000055
:1006000010B5002102A000F017F8012010BD000075
:10061000534947414252543A2041626E6F726D61B4
:100620006C207465726D696E6174696F6E00000094
:10063000004870471800002470B505460C460A2093
:1006400000E06D1C00F011F835B128780028F8D1D1
:1006500002E0641C00F009F814B120780028F8D1F9
:10066000BDE870400A20AFF3008008B569468DF8F8
:1006700000000320ABBE08BDFEE77047EFF310801B
:1006800072B600BFFEE7000044F60400C5F60200A3
:10069000816841F00201816001688904FCD57047DE
:1006A00040F2F870C2F200400068704740F2080063
:1006B00040F2F871C2F20040C2F2004100780A68CC
:1006C00010440860704780B5032000F01AF900F06C
:1006D00053FF44F2184144F6CC73C5F60201C0F64C
:1006E00000030A68C2F303229A5C096801F00F0153
:1006F00002F01F02595CD04040F20402C2F20042F4
:1007000001F01F0120FA01F1116040F20001C2F274
:10071000004108600F2000F007F808B1012080BDFB
:1007200000F09DF8002080BD0F2842D8B0B58AB0F7
:100730000446762000222146002500F0B5F87620F8
:1007400000F0A2F840F20C00C2F20040046044F253
:10075000F040C5F60200016841F4802101600068A4
:1007600001A900F480200290029802A800F09FFEE8
:1007700000F0EFFE4DF683614000C4F21B3144F6F9
:100780000002A0FB010140F23820C2F200404FF00D
:10079000FF33C4F20102026003EB9141C0E901158D
:1007A00040F2E731C0E9031501F0F1F918B1012079
:1007B00007E00120704740F23820C2F2004001F00B
:1007C00017FA0AB0B0BD10B54EF6985E4378CEF277
:1007D000000E90F800C0CEF80030DEF8083023F0AC
:1007E0000103CEF808304368CEF80430037BC27AA8
:1007F000817A447B120642EA0372837B42EAC1415A
:10080000C27B41EA8441447A41EA4341007A41EAA9
:10081000024141EA042141EA400040EA0C00CEF8DE
:10082000080010BD4EF62450CEF20000BFF35F8FDB
:10083000016821F4803101600021016770474EF6A4
:10084000245140F00100CEF200010867086840F42E
:1008500080300860BFF34F8FBFF36F8F704781B058
:1008600044F2F4400022C5F60200016841F00201A2
:10087000016000680F2100F0020000906FF001009D
:10088000009B01B000F010B800280CD400F01F014C
:10089000012202FA01F14EF20012C0F34A10CEF228
:1008A000000242F82010704770B54EF60C5C4FF015
:1008B000FF36CEF2000C00F1604505F56445DCF82A
:1008C0000030C3F3022E8EF00703042B28BF04234D
:1008D000BEF1030406FA03F321EA030100F00F035B
:1008E00038BF0024043B0028634406FA04F048BFE4
:1008F00003F10C05A14022EA000008430001287022
:1009000070BD4EF60C514FF6FF03CEF200010A689F
:100910001A4060F30A2242F0806040F0FD700860E7
:1009200070470000B0B544F60C05C5F6020529680D
:100930004907296805D401F00701081A18BF0120EA
:10094000B0BD21F0070108432860FFF7A9FE044667
:1009500055F8080C800407D4FFF7A2FE001BB0F581
:100960007A7FF5D90120B0BD0020B0BD2DE9F04758
:100970000446C07844F210480007C5F6020824D5A2
:10098000606E4FEA3051032936D8DFE801F00209E2
:100990000F17D8F81C1041F40031C8F81C100DE0F6
:1009A00004F10800022102F0B5F804E004F1280087
:1009B000022102F033F9064640B9606ED8F84010C3
:1009C00021F440110843C8F8400000266078C007B1
:1009D00001D1354629E0A06D04283CD83546DFE832
:1009E00000F003130D191900D8F81C00354640F427
:1009F0000030C8F81C000DE00126E7E704F12800EC
:100A0000002102F00BF904E004F10800002102F0DB
:100A100081F805462F464DB9D8F84000A16D20F069
:100A2000070000250843C8F84000374660784007B3
:100A30002FD5D4F8A4004FEA7050052814D8DFE869
:100A400000F003160D1C1C1CD8F81C0040F40030EC
:100A5000C8F81C0011E001250127E7E704F1280090
:100A6000002102F0DBF807E00125012612E004F185
:100A70000800002102F04EF805462E4655B9D8F878
:100A80004800D4F8A41020F4600000250843C8F8FA
:100A900048003E46607800072CD5D4F8A8004FEAFD
:100AA0003060052811D8DFE800F003130A1919197E
:100AB000D8F81C0040F40030C8F81C000EE004F127
:100AC0002800002102F0AAF807E00125012712E022
:100AD00004F10800002102F01DF805462F4655B923
:100AE000D8F84800D4F8A81020F0E06000250843AA
:100AF000C8F848003746E078800720D5E06C4FEA18
:100B00003010032830D8DFE800F00F02090FD8F8C2
:100B10001C0040F40030C8F81C0005E004F1080097
:100B2000022101F0F7FF05462E464DB9D8F83C00EA
:100B3000E16C20F0300000250843C8F83C003E4638
:100B40006078C0062AD5E06D4FEA303004283AD8E4
:100B5000DFE800F003130D191900D8F81C0040F469
:100B60000030C8F81C000EE001250126E8E704F17A
:100B70002800002102F052F804E004F108000021EE
:100B800001F0C8FF05462F464DB9D8F84000E16D89
:100B900020F4E04000250843C8F84000374660785C
:100BA000800624D5206E4FEA3040052800F22683C7
:100BB000DFE800F012030C12121204F10800012108
:100BC00001F0A8FF07E001250127E8E704F128006C
:100BD000012102F023F805462E464DB9D8F8400011
:100BE000216E20F4E02000250843C8F840003E466E
:100BF0006078400623D5D4F8AC004FEA3070052861
:100C000000F2FF82DFE800F00F03090F0F0F04F17D
:100C10000800012101F07EFF04E004F12800012119
:100C200001F0FCFF05462F4655B9D8F84800D4F826
:100C3000AC1020F0E04000250843C8F848003746D3
:100C4000607800061FD5E06E90B1B0F1005F09D06A
:100C5000B0F1805F29D1D8F81C0040F40030C8F80A
:100C60001C0005E004F10800012101F053FF0546D6
:100C70002E464DB9D8F84000E16E20F040500025D6
:100C80000843C8F840003E46E078C00721D0A06C79
:100C900003284FD8DFE800F012020C12D8F81C002D
:100CA00040F40030C8F81C0008E001250126EBE7FD
:100CB00004F10800022101F02DFF0546A9464DB9B7
:100CC000D8F83C00A16C20F0030000250843C8F8C8
:100CD0003C00B146A078400601D44F4616E0D8F853
:100CE000F00340F48070C8F8F003FFF7D9FC064623
:100CF000D8F8F003C00507D4FFF7D2FC801B6428A6
:100D0000F6D90325032701E02F46BDB12078C0079F
:100D100056D0A06F4FEAF000052800F27582DFE898
:100D200000F044033E44444404F10800012101F072
:100D3000F1FE39E001254FF00109CBE7D8F860104A
:100D4000D4F8B000414011F4407F11D0D8F86010C1
:100D5000D8F8602042F48032C8F86020D8F86020CB
:100D600021F4407122F48032C8F86020C8F8601085
:100D7000B0F5807F40F05C82FFF792FC064641F2BE
:100D8000883A0325032700BFD8F86000800700F1E8
:100D90004D82FFF785FC801B5045F5D9B6E704F17D
:100DA0002800012101F03AFF05462E464DB9D8F83A
:100DB0004400A16F20F0380000250843C8F8440023
:100DC0003E46207880071FD5606F052800F21F82FD
:100DD000DFE800F00F03090F0F0F04F108000121F5
:100DE00001F098FE04E004F12800012101F016FF53
:100DF00005462F464DB9D8F84400616F20F0070032
:100E000000250843C8F8440037462078400721D51C
:100E1000D4F89000052800F2FD81DFE800F00F0310
:100E2000090F0F0F04F10800012101F073FE04E027
:100E300004F12800012101F0F1FE05462E4655B9C6
:100E4000D8F84800D4F8901020F007000025084397
:100E5000C8F848003E462078800623D5D4F88C0098
:100E60004FEA3070052800F2D881DFE800F00F0368
:100E7000090F0F0F04F10800002101F04BFE04E000
:100E800004F12800022101F0C9FE05462F4655B99C
:100E9000D8F84400D4F88C1020F0E0400025084336
:100EA000C8F8440037462078400623D5D4F8980087
:100EB0004FEAB020052800F2B381DFE800F00F030D
:100EC000090F0F0F04F10800002101F023FE04E0D8
:100ED00004F12800022101F0A1FE05462E4655B975
:100EE000D8F84800D4F8981020F4E05000250843C2
:100EF000C8F848003E462078000623D5D4F89C0068
:100F00004FEA7030052800F28E81DFE800F00F0311
:100F1000090F0F0F04F10800002101F0FBFD04E0B0
:100F200004F12800022101F079FE05462F4655B94B
:100F3000D8F84800D4F89C1020F4604000250843FD
:100F4000C8F8480037462068010716D5D4F8800055
:100F5000B0F5805F09D104F12800022101F05EFEA6
:100F6000002818BF0127D4F88000D8F8441021F4D5
:100F700040510843C8F844002068C10616D5D4F88B
:100F80009400B0F5807F09D104F12800022101F01E
:100F900045FE002818BF0127D4F89400D8F848105F
:100FA00021F440710843C8F848002068000322D5A6
:100FB000D4F8A000B0F5003F11D0B0F5803F08D0C4
:100FC000002840F0138104F10800002101F0A2FD87
:100FD00004E004F12800022101F020FE05462E461F
:100FE00055B9D8F84800D4F8A01020F440300025B6
:100FF0000843C8F848003E46A078400724D5D4F8F6
:101000008400B0F5401F13D0B0F5001F0AD0B0F532
:10101000801F40F0EE80D8F81C0040F40030C8F883
:101020001C0005E004F12800012101F0F7FD054650
:101030002F4655B9D8F84400D4F8841020F4401055
:1010400000250843C8F844003746A078C00701D1FE
:101050003E461FE0206DB0F5803F07D0C0B9D8F8FC
:101060001C0040F40030C8F81C0005E004F1080042
:10107000022101F04FFD05462E465DB9D8F83C002F
:10108000216D20F4803000250843C8F83C00DFE7DC
:10109000012501262168880001D4606809E004F177
:1010A0002800022101F0BAFD002818BF0126D4E96A
:1010B00000108A031AD5E26F6FF0010303EB3223AD
:1010C000022B0BD34FEA322343B1012B40F0948023
:1010D000D8F81C3043F40033C8F81C303DB9D8F8B8
:1010E000443023F440731A43C8F844203546CA02FA
:1010F00007D5D8F84020236F22F000421A43C8F8E1
:1011000040208A0207D5D8F84020A36E22F08072D2
:101110001A43C8F840204A000CD5D8F8002022F421
:101120000042C8F80020D4F8B420D8F800301A43A0
:10113000C8F80020CA0F07D0D8F83C20636D22F011
:1011400040521A43C8F83C20090208D5D8F8441088
:10115000D4F8882021F440011143C8F84410C10795
:1011600008D004F10800002101F0D4FC002818BFC9
:1011700005466068810708D504F10800012101F0E7
:10118000C9FC002818BF05466068410708D504F16E
:101190000800022101F0BEFC002818BF0546606867
:1011A000010708D504F12800002101F037FD0028CF
:1011B00018BF05466068C10608D504F12800012162
:1011C00001F02CFD002818BF05466068800607D591
:1011D00004F12800022101F021FD002818BF01259B
:1011E000002D18BF01252846BDE8F08701250126FE
:1011F00002E70125012728E7012578E701250126D7
:10120000F6E4012501271BE501250126D9E5012585
:101210000127FAE5012501261DE60125012742E601
:101220000125012667E6012501278CE6D4F8B000E8
:101230004FF6CF73D8F80020C0F2FF0300F44071DE
:1012400022F47C5203EA10136FF31F30B1F5407F94
:1012500008BF1A430025C8F80020D8F860100843DA
:10126000C8F8600039E500002DE9F04381B000289E
:1012700000F0198142F200080446C5F200288946B0
:10128000D8F8000000F00F0081420ED9D8F8000015
:1012900020F00F0040EA0900C8F80000D8F800006C
:1012A00000F00F00484540F0FE80206844F21047EF
:1012B0004107C5F602070AD52169BA6802F0700233
:1012C000914204D9BA6822F070021143B960010753
:1012D0000AD56169FA6802F07002914204D9FA688D
:1012E00022F070021143F960C1060AD5A169FA68BB
:1012F00002F4E062914204D9FA6822F4E0621143F8
:10130000F96081060AD5E1693A6902F070029142FA
:1013100004D93A6922F070021143396110F00201D8
:101320000AD0E268BB6803F00F039A4204D9BB6895
:1013300023F00F031A43BA60C20736D0B86820F40E
:101340007061D4E901021143B960012857F8101CFB
:1013500009D0032804D0022808D1890309D4A2E0C7
:10136000890106D49FE0C90503D49CE0490740F1F8
:101370009A80396821F0070108433860FFF790F937
:10138000064641F2883500BF3868616800F03800D1
:10139000B0EBC10F06D0FFF783F9801BA842F3D949
:1013A000032081E0206800F0020151B1E168BA68D1
:1013B00002F00F02914204D2BA6822F00F021143E8
:1013C000B960D8F8001001F00F0189450DD2D8F8A6
:1013D000001021F00F0141EA0901C8F80010D8F807
:1013E000001001F00F0149455DD141070AD521697F
:1013F000BA6802F07002914204D2BA6822F0700218
:101400001143B96001070AD56169FA6802F07002F8
:10141000914204D2FA6822F070021143F960C106C9
:101420000AD5A169FA6802F4E062914204D2FA682E
:1014300022F4E0621143F96080060AD5E069396957
:1014400001F07001884204D2396921F0700108432B
:10145000386100F091F8B96844F6CC72C0F6000229
:10146000C1F30321515CBB6803F00F0301F01F01BE
:10147000D25C20FA01F102F01F0040F20402C2F235
:10148000004221FA00F0106040F20C0040F200022D
:10149000C2F20040C2F200420068116001B0BDE833
:1014A000F043FFF741B9012001B0BDE8F0833F22CE
:1014B000026044F21842C5F6020252F8083C03F0FA
:1014C00007034360136803F470638360136803F0D9
:1014D0000F03C360136803F070030361536803F0E4
:1014E00070034361536803F4E0638361926802F020
:1014F0007002C26142F20000C5F20020006800F0F4
:101500000F000860704780B500F036F844F21841CB
:1015100044F6CC73C5F60201C0F600030A68C2F3B4
:1015200003229A5C096801F00F0102F01F02595C66
:1015300020FA02F201F01F0040F20401C2F2004161
:1015400022FA00F0086040F20001C2F200410A6095
:1015500080BD80B5FFF7D7FF44F21C4144F6CC7242
:10156000C5F60201C0F600020968C1F30221515C10
:1015700001F01F01C84080BD44F20041C5F60201E0
:101580000869C0F3C200032814D002280DD088BB1C
:101590000868800649F20000C0F2D03058BF70479A
:1015A0000968C1F3C101C840704747F64000C0F266
:1015B0007D1070478B6A886AD1F82CC04A6BC0F3E3
:1015C0000510E0B1C2F3CC0203F0030300EE102AD1
:1015D0009FED291AB8EE400A20EE010A9FED271A66
:1015E000DFE803F0021F0F1F0A6892060CD49FED7C
:1015F000251A16E040F60010C0F23D0070470020AA
:1016000070479FED1F1A0CE00A6849F20003C0F210
:10161000D033C2F3C10223FA02F201EE102AB8EE6F
:10162000411A0A6B9FED183A6FF35F2202EE102AFF
:101630005FEACC7203FE000A03EE100A086BB8EEF4
:10164000422AC0F34620B8EE433A013030EE020A97
:10165000B7EE002A81EE031A30EE020A21EE000AEC
:1016600001EE100AB8EE411A80EE010ABCEEC00A83
:1016700010EE100A704700BF000000390024744AC1
:1016800020BCBE4B0024744C0000000058B3F0B5E1
:1016900081B00446007844F20046C007C5F6020651
:1016A00023D12078800769D5306910F03801B06AFD
:1016B00042D0182908BF5FEA80703DD0E0683168E9
:1016C000002800F03B8121F0190108433060FEF74B
:1016D000E7FF05463068400749D4FEF7E1FF401BAD
:1016E0000228F7D973E101207047306900F0380112
:1016F000B06A102905D018290AD100F00300022889
:1017000006D130688003CCD560680028C9D1C0E01C
:1017100061683068002900F05D81B1F5A02F00F00C
:101720004381B1F5803F00F0438120F48030306088
:10173000306820F480203DE130684007E06802D541
:10174000002800F0A680316821F0190108433060BC
:10175000FEF7A6FF054600BF3068400707D4FEF736
:101760009FFF401B02284FF00300F5D930E170685D
:10177000216920F0FE4040EA016070602078C006D8
:101780001AD5306900F03801B06A082907D0182945
:1017900040F0968000F00300012840F0918030680E
:1017A000C00502D5E069802873D1F068216A20F075
:1017B0007C5040EA0160F0602078000755D4207822
:1017C000800668D42078400700F19280656A002D79
:1017D00049D0306900F03800182840F02381012DED
:1017E000B16A306B55D001F00302A36A9A4250D11E
:1017F000C1F30511E26A91424BD10146226B6FF3AE
:101800005F21013A914244D1C0F34622616B013914
:101810008A423ED1C0F30642A16B01398A4238D1D7
:10182000C0F30660E16B0139884232D1706BA16C64
:10183000C0F3CC00814216D0F06A20F00100F062C3
:10184000FEF72EFF0546FEF72BFFA842FBD0706B7C
:101850004FF6F871A26C884340EAC2007063F06AE8
:1018600040F00100F0620020B2E060690028706F73
:1018700052D040F001007067FEF712FF054600BF2E
:10188000706F80079BD4FEF70BFF401B0228F7D92F
:101890009DE001209CE0A0690028306872D040F4EF
:1018A00080503060FEF7FCFE054600BF30688004C3
:1018B0003FF588AFFEF7F4FE401B0228F6D986E01C
:1018C000E0690028306800F09B8040F080003060C4
:1018D000FEF7E6FE054600BF3068C0053FF565AF80
:1018E000FEF7DEFE401B02284FF00300F4D96FE044
:1018F000D6F8000440F48070C6F80004FEF7D0FE6D
:10190000054600BFD6F80004C00529D4FEF7C8FE7E
:10191000401B6428F6D95AE020F001007067FEF7FA
:10192000BFFE0546706F80077FF549AFFEF7B8FE32
:10193000401B02284FF00300F4D949E021F00100D8
:101940003060FEF7ADFE0546306840077FF516AF04
:10195000FEF7A6FE401B02284FF00300F4D937E043
:10196000A168306F002900F09780052900F07C8085
:10197000012900F07D8020F001003067306F20F0F9
:10198000040077E020F480503060FEF789FE0546C1
:10199000306880047FF516AFFEF782FE401B0228F8
:1019A0004FF00300F4D913E040F480203060306839
:1019B00040F480303060FEF773FE054630688003E7
:1019C0003FF56FAEFEF76CFE401B6428F6D903208E
:1019D00001B0F0BD20F480303060306820F4802009
:1019E0003060FEF75DFE0546306880037FF559AE36
:1019F000FEF756FE401B64284FF00300F4D9E7E7DA
:101A000020F080003060FEF74BFE05463068C005D0
:101A10007FF5D2AEFEF744FE401B02284FF00300D4
:101A2000F4D9D5E7306820F080703060FEF738FEDA
:101A3000022D05460CD100BF3068800144D5FEF769
:101A40002FFE401B02284FF00300F5D9C0E700BF6E
:101A5000306880017FF507AFFEF722FE401B0228A9
:101A60004FF00300F4D9B3E740F004003067306F63
:101A700040F001003067FEF713FE054641F288375B
:101A8000306F80073FF5A2AEFEF70AFE401BB8425A
:101A90004FF00300F4D99BE720F001003067306F6E
:101AA00020F004003067FEF7FBFD054641F2883761
:101AB000306F80077FF58AAEFEF7F2FD401BB8421B
:101AC0004FF00300F4D983E704F12807B06A40F22D
:101AD000F33188438ECF0843591E40EA02104FF479
:101AE0007E426FF35F21B06202EB47204FF4FE02AB
:101AF00080B2E36B0844A16B02EB01414FF0FE4260
:101B000001F4FE0102EB0362084402F0FE410844C6
:101B10003063F06A4FF6F87120F00100F062706BEC
:101B2000A26C884340EAC2007063F06A216C20F026
:101B30000C000843F062F06A616C20F00200084378
:101B4000F062F06A40F48030F062F06A40F40030F5
:101B5000F062F06A40F48020F062F06A40F0010028
:101B6000F062306840F080703060FEF799FD044606
:101B7000306880013FF577AEFEF792FD001B02282A
:101B80004FF00300F4D923E770477047704760B304
:101B900010B5044690F83D0028B9002084F83C00B8
:101BA000204600F024F8022084F83D002068211D22
:101BB00001F0CEF9012084F8480084F83E0084F852
:101BC0003F0084F8400084F8410084F8420084F823
:101BD000430084F8440084F8450084F8460084F803
:101BE000470084F83D00002010BD01207047704779
:101BF00090F83D10012922D1022180F83D100168A2
:101C00004DF6FF70C4F200008142C86840F0010048
:101C1000C86016DC40F2FF70C4F20000814226DD8D
:101C200040F60000C4F20000814232D040F600408D
:101C3000C4F2000081422CD041F6000025E00120D2
:101C400070474FF6FF70C4F20000814215DD00209E
:101C5000C4F2010081421CD044F20000C4F2010031
:101C6000814216D040F20040C4F201000FE0B1F111
:101C7000804F0ED040F2004007E04EF20000C4F268
:101C80000000814205D04EF20040C4F200008142C3
:101C90000BD107228868C0F2010202400020062A08
:101CA00018BFB2F5803F00D17047086840F00100CE
:101CB0000860002070477047F0B581B004460068A6
:101CC000C5680669B10716D515F0020113D06FF08B
:101CD00002010161012121778069800703D020463C
:101CE000FFF7E9FF05E0204600F096F8204600F0F7
:101CF00094F800202077700718D515F0040015D04F
:101D000020686FF00401016102212177806910F4DD
:101D1000407F03D02046FFF7CEFF05E0204600F0CD
:101D20007BF8204600F079F800202077300717D59F
:101D300015F0080014D020686FF00801016104213B
:101D40002177C069800703D02046FFF7B4FF05E084
:101D5000204600F061F8204600F05FF80020207770
:101D6000F00618D515F0100015D020686FF010019E
:101D7000016108212177C06910F4407F03D020461B
:101D8000FFF799FF05E0204600F046F8204600F0F6
:101D900044F800202077F00718BF15F0010006D0A6
:101DA00020686FF001010161204600F037F805F06E
:101DB000800716F4025F18BF002F06D020686FF46A
:101DC000025101612046FFF7E0FEF00507D537B16B
:101DD00020686FF4807101612046FFF7D5FE700620
:101DE00009D515F0400006D020686FF04001016170
:101DF000204600F01DF8B0060CD515F0200009D0E3
:101E000020686FF020010161204601B0BDE8F0407C
:101E1000FFF7BCBE01B0F0BD7047704744F600014B
:101E20000068C4F20101884218BF7047FEF73EBC4B
:101E300070470000FEE700002DE9F0470B6893FAB9
:101E4000A3F2B2FA82F233FA02F654D04FF0010C48
:101E50000CFA02F613EA060449D04E6804FB04FEAD
:101E6000751E022D16D2D0F808800EEB4E05D1E972
:101E7000027907FB0EFA28EA0507ED4347EA0A074D
:101E80008760D0F8048009FB03F728EA03033B438B
:101E9000436002E00EEB4E03DD430B69C7682F4041
:101EA000022E03FB0EF343EA0703C36017D1230A94
:101EB000B4F5807F03FB03F34FF0240403FB03F32B
:101EC0003CBF20240EFB0EF3D1F814800759C3EB5E
:101ED000031608FB03F327EA060633430351D1E94F
:101EE0000034066804FB0EF72E40374307600132CA
:101EF00033FA02F7ACD10020BDE8F08710B544F208
:101F000000444FF0000EC5F60204A26A02F003027C
:101F1000DFE802F0020F161E2268520718D5226869
:101F200049F20003C0F2D033C2F3C10223FA02FE29
:101F30000EE0226840F60013D205C0F23D0305E032
:101F4000226847F640039203C0F27D1303EAE27E63
:101F500000228260C0E90022A36A226BE16AC907FD
:101F6000C3F3051302D19FED3F0A0AE0616B9FEDB9
:101F70003E1AC1F3CC0100EE101AB8EE400A20EE72
:101F8000010A002B6CD06FF35F22E16AC90302F1F2
:101F9000010C1FD501EE10EA02EE103A03EE10CA52
:101FA000216BC1F34621B8EE411AB8EE422A013145
:101FB000B8EE433A81EE021A30EE032A21EE021AFD
:101FC00002EE101AB8EE422A81EE021ABCEEC11AD5
:101FD00080ED001AE16A89031FD501EE10EA02EED6
:101FE000103A03EE10CA216BC1F30641B8EE411A54
:101FF000B8EE422A0131B8EE433A81EE021A30EED1
:10200000032A21EE021A02EE101AB8EE422A81EEDD
:10201000021ABCEEC11A80ED011AE16A49031FD50C
:1020200001EE10EA02EE103A03EE10CA216BC1F382
:102030000661B8EE411AB8EE422A0131B8EE433AD1
:1020400081EE021A30EE030A21EE000A01EE101AA8
:10205000B8EE411A80EE010ABCEEC00A80ED020A19
:1020600010BD00BF000000000000003910B544F2B0
:1020700000444FF0000EC5F60204A26A02F003020B
:10208000DFE802F0020F161E2268520718D52268F8
:1020900049F20003C0F2D033C2F3C10223FA02FEB8
:1020A0000EE0226840F60013D205C0F23D0305E0C1
:1020B000226847F640039203C0F27D1303EAE27EF2
:1020C00000228260C0E90022A36AA26BE16AC9060D
:1020D000C3F3053302D49FED3F0A0AE0E16B9FEDA5
:1020E0003E1AC1F3CC0100EE101AB8EE400A20EE01
:1020F000010A002B6CD06FF35F22E16A090302F141
:10210000010C1FD501EE10EA02EE103A03EE10CAE0
:10211000A16BC1F34621B8EE411AB8EE422A013153
:10212000B8EE433A81EE021A30EE032A21EE021A8B
:1021300002EE101AB8EE422A81EE021ABCEEC11A63
:1021400080ED001AE16AC9021FD501EE10EA02EE25
:10215000103A03EE10CAA16BC1F30641B8EE411A62
:10216000B8EE422A0131B8EE433A81EE021A30EE5F
:10217000032A21EE021A02EE101AB8EE422A81EE6C
:10218000021ABCEEC11A80ED011AE16A89021FD55C
:1021900001EE10EA02EE103A03EE10CAA16BC1F391
:1021A0000661B8EE411AB8EE422A0131B8EE433A60
:1021B00081EE021A30EE030A21EE000A01EE101A37
:1021C000B8EE411A80EE010ABCEEC00A80ED020AA8
:1021D00010BD00BF000000000000003910B544F23F
:1021E00000444FF0000EC5F60204A26A02F003029A
:1021F000DFE802F0020F161E2268520718D5226887
:1022000049F20003C0F2D033C2F3C10223FA02FE46
:102210000EE0226840F60013D205C0F23D0305E04F
:10222000226847F640039203C0F27D1303EAE27E80
:1022300000228260C0E90022A36A226CE16AC9051B
:10224000C3F3055302D49FED400A0AE0616C9FED91
:102250003F1AC1F3CC0100EE101AB8EE400A20EE8E
:10226000010A002B6FD0BEF1000F6CD06FF35F221C
:10227000E16A490202F1010C1FD501EE10EA02EEFB
:10228000103A03EE10CA216CC1F34621B8EE411A90
:10229000B8EE422A0131B8EE433A81EE021A30EE2E
:1022A000032A21EE021A02EE101AB8EE422A81EE3B
:1022B000021ABCEEC11A80ED001AE16A09021FD5AC
:1022C00001EE10EA02EE103A03EE10CA216CC1F3DF
:1022D0000641B8EE411AB8EE422A0131B8EE433A4F
:1022E00081EE021A30EE032A21EE021A02EE101AD3
:1022F000B8EE422A81EE021ABCEEC11A80ED011A34
:10230000E16AC9011FD501EE10EA02EE103A03EEB0
:1023100010CA216CC1F30661B8EE411AB8EE422A28
:102320000131B8EE433A81EE021A30EE030A21EE93
:10233000000A01EE101AB8EE411A80EE010ABCEE56
:10234000C00A80ED020A10BD000000000000003944
:1023500010B584B040F244210246C0F30423C0F219
:10236000580161F31F2244F20044010EC5F6020435
:10237000D26C99401140D94040EA01410720C0F297
:10238000037081424FF0000016DC40F20732C0F2C9
:102390000172914227DC0822C0F20072914267D09C
:1023A00040F20832C0F2007291427DD00822C0F2A1
:1023B0000172914246D092E040F20732C0F20472BC
:1023C000914228DC0822C0F2037291424BD040F2C5
:1023D0000832C0F20372914245D00822C0F2047262
:1023E000914237D07BE040F20832C0F20172914254
:1023F00028D00822C0F20272914205D040F2083281
:10240000C0F2027291426AD1206880002ED501A8E4
:10241000FFF7E4FE1CE040F20832C0F20472914281
:1024200018D00822C0F20572914205D040F208325D
:10243000C0F20572914252D1206F4FF4004101EA7F
:1024400080304CE02068000110D501A8FFF70EFE97
:10245000029844E0206840F60011C005C0F23D013A
:1024600001EAE0703BE02068400713D4002036E02A
:1024700000F058FCA16944F6DC72C0F60002C1F31A
:102480000321515CA36903F00F03D35CE469C4F337
:1024900002141AE0206849F20001C0F2D031C0F302
:1024A000C10021FA00F01AE000F03CFCA16944F6FA
:1024B000DC72C0F60002C1F30321515CA36903F092
:1024C0000F03D35CE469C4F30224125D01F01F0121
:1024D000C84003F01F01C84002F01F01C84004B00B
:1024E00010BD0000B0B504460068C0073BD10D46E2
:1024F00046F6F31105F108032068CEF6FF71084097
:102500000ECB084369691843EB6908430821184357
:102510002060606847F6FF3320F44050C4F20003A7
:1025200010436060A869A26822F44072C0F2007192
:1025300010439C42A0604FF0010016DC44F6FF32CD
:10254000C4F20002944227DD44F60042C4F20002C5
:1025500094423DD045F20002C4F20002944237D0CA
:1025600047F6000220E00120B0BD41F2FF32C4F284
:102570000102944201F540721BDD41F20041C4F2B8
:1025800001018C4223D041F60001C4F201018C42CA
:102590001DD041F6004114E044F20042C4F20002B2
:1025A000944215D044F60002C4F2000294420FD0C7
:1025B00035E047F60043C4F200039C4208D041F2E4
:1025C0000001C4F201018C42114601D027E01146FE
:1025D0000846FFF7BDFEC8B16968B9B12A680B2A81
:1025E0001CD812A353F82220B0FBF2F0EA69B2F52E
:1025F000004F0DD1400000EB5100B0FBF1F04FF661
:10260000F0710140C0F34200084406E0012006E0FA
:1026100000EB5100B0FBF1F080B2E06000202988AF
:10262000E26A22F00F021143E162B0BD0100000036
:102630000200000004000000060000000800000086
:102640000A0000000C000000100000002000000044
:1026500040000000800000000001000080B542F64C
:10266000A55044F6EC72C0F60000C0F6000200214E
:1026700000F0C1FD40F23421C2F20041086080BD8B
:1026800081B044F2E040C5F60200016841F08001EB
:102690000160016801F0800100910099016841F03A
:1026A00001010160016801F00101009100990168D8
:1026B00041F002010160016801F0020100910099FE
:1026C000016841F004010160006800F0040000901E
:1026D000009801B070470000F0B5BDB034A82021CB
:1026E0002025FDF7CCFE2EA81821FDF7C8FE6C466C
:1026F000B02104F10800FDF7C2FE01200090204641
:1027000000260196FEF732F908B1FDF7B7FF44F253
:10271000E04041F20004C5F60200C4F201040427BF
:10272000016941F010010161016901F010013C9162
:102730003C99016841F00201016000682EA900F097
:1027400002003C903C984FF440402E900220CDE98E
:102750002F0640F200403196C5F6020032963397BC
:10276000FFF76AFB4EF60C500522CEF2000000681F
:10277000C0F3022080F00701042938BF0F46033858
:102780004FF0FF3138BF3046B94022EA010101FA6B
:1027900000F04EF22541CEF20001000108704EF229
:1027A0000410CEF2000034A905604FF4E1303496F5
:1027B000CDE935060C203B96CDE939062046CDE91A
:1027C0003766FFF78FFE41F20800C4F2010000BF38
:1027D00050E8001F21F0604140E80012002AF7D1C4
:1027E00050E8001F21F0606140E80012002AF7D194
:1027F000206820F000502060606820F49040606005
:10280000A06820F02A00A060206840F0010020604D
:10281000E0698002FCD5E0694002F9D53DB0F0BD29
:10282000F0B5BDB034A82021FDF729FE2EA818214F
:10283000FDF725FE6C46B02104F10800FDF71FFEF0
:1028400020460025019502270097FEF78FF808B172
:10285000FDF714FF44F2E04044F20044C5F60200E4
:102860000C26C4F20004816841F400318160816863
:1028700001F400313C913C99016841F00101016093
:1028800000682EA900F001003C903C98072033908E
:102890000020C5F602003295CDE92E67CDE930550E
:1028A000FFF7CAFA4EF60C504FF0FF32CEF200009E
:1028B0000068C0F3022080F00701042928BF04212A
:1028C000033838BF284602FA01F1052222EA010145
:1028D00001FA00F04EF22641CEF20001000108702C
:1028E0004EF20410CEF20000402101604FF4E130BE
:1028F00034A9CDE9350520463495CDE93755CDE9E4
:1029000039653B95FFF7EEFD44F20840C4F2000044
:1029100050E8001F21F0604140E80012002AF7D182
:1029200050E8001F21F0606140E80012002AF7D152
:10293000206820F000502060606820F490406060C3
:10294000A06820F02A00A060206840F0010020600C
:10295000E0698002FCD5E0694002F9D53DB0F0BDE8
:10296000B0B5BEB035A82021FDF789FD2FA81821EC
:10297000FDF785FD6C46B02104F10800FDF77FFDF1
:1029800001200090204600250195FDF7EFFF08B1DA
:10299000FDF774FE44F2E04041F20044C5F6020047
:1029A000C4F20104016941F020010161016901F0F3
:1029B00020013D913D99016841F0040101600068EA
:1029C0002FA900F004003D903D98C0202F900220D8
:1029D000CDE930050720349040F600003295C5F669
:1029E00002003395FFF728FA4EF60C504FF0FF32F5
:1029F000CEF200000068C0F3022080F00701042935
:102A000028BF0421033838BF284602FA01F1052205
:102A100022EA010101FA00F04EF24741CEF2000134
:102A2000000108704EF20810CEF200008021016013
:102A30004FF4E13035A9CDE936050C203595CDE9C7
:102A40003A0520463C95CDE93855FFF74BFD41F25C
:102A50000840C4F2010000BF50E8001F21F06041AF
:102A600040E80012002AF7D150E8001F21F0606111
:102A700040E80012002AF7D1206820F000502060C2
:102A8000606820F490406060A06820F02A00A06098
:102A9000206840F001002060E0698002FCD5E06918
:102AA0004002F9D53EB0B0BDFEE70000FEE70000F1
:102AB000EFF30980BFF36F8F154B1A681EF0100FEC
:102AC00008BF20ED108A20E9F04F10602DE90900C1
:102AD0004FF0500080F31188BFF34F8FBFF36F8F1B
:102AE00001F0CEFB4FF0000080F31188BDE8090033
:102AF00019680868B0E8F04F1EF0100F08BFB0EC7E
:102B0000108A80F30988BFF36F8F704700BF00BF42
:102B100078030024F0B581B044F20047C5F60207FF
:102B2000BA6A02F00302032A01D1012073E00546CC
:102B300038680C4620F080603860FDF7B1FD06462D
:102B40003868000105D5FDF7ABFD801B0228F7D9D9
:102B50005EE0B86AEE6895E80E0020F47C30012C47
:102B600040EA0130A2F101016FF35F214FF47E4290
:102B700002EB4322B86292B24FF0FE4302EB010037
:102B80004FF4FE012A6901EB064101F4FE0103EB5B
:102B90000262084402F0FE410844B863F86A6969B9
:102BA00020F0C00040EA0100F862F86AA96920F04C
:102BB000200040EA0100F862F86A4FF6F87120F050
:102BC0001000F862F86BEA6920EA01004FF4001186
:102BD00040EAC200F863F86A08BF4FF4801140F081
:102BE0001000002CF86208BF4FF40021F86A084377
:102BF000F862386840F080603860FDF751FD0446A7
:102C00003868000106D4FDF74BFD001B0328F7D3FD
:102C1000032000E0002001B0F0BD0000F0B581B05D
:102C200044F20047C5F60207BA6A02F00302032A1B
:102C300001D1012073E0054638680C4620F0805031
:102C40003860FDF72DFD06463868800005D5FDF794
:102C500027FD801B0228F7D95EE0B86AEE6895E888
:102C60000E0020F07C70012C40EA0150A2F101011D
:102C70006FF35F214FF47E4202EB4322B86292B2BF
:102C80004FF0FE4302EB01004FF4FE012A6901EB15
:102C9000064101F4FE0103EB0262084402F0FE412A
:102CA00008443864F86A696920F4406040EA010029
:102CB000F862F86AA96920F4007040EA0100F8623D
:102CC000F86A4FF6F87120F48070F862786CEA695F
:102CD00020EA01004FF0807140EAC2007864F86A8F
:102CE00008BF4FF4000140F48070002CF86208BF68
:102CF0004FF48001F86A0843F862386840F0805069
:102D00003860FDF7CDFC04463868800006D4FDF736
:102D1000C7FC001B0328F7D3032000E0002001B00C
:102D2000F0BD000044F20040C5F602000169C1F3A5
:102D3000C20103291FD8DFE801F002190C11006855
:102D400049F20001C0F2D031C0F3C10021FA00F015
:102D5000704747F64000C0F27D10704780B584B0E0
:102D600001A8FFF7CBF8019804B080BD40F6001031
:102D7000C0F23D00704700207047000000000000D6
:102D8000074B19680868B0E8F04F80F30988BFF373
:102D90006F8F4FF0000080F31188704700BF00BFB5
:102DA00078030024012000F0E8F9FBE780B54EF23B
:102DB0001000CEF20000006801F097FE012808BF65
:102DC00080BDBDE8804001F038BB000010B59CB06C
:102DD00044F6180409A84C21C5F60204FDF74FFB80
:102DE00001A82021FDF74BFB0220FDF79BFD0020F1
:102DF0000090206820F440402060206800F44040AB
:102E00000090009820688004FCD5012009901622CB
:102E10004FF48031CDE915200C20199009A80A91B2
:102E200002211491CDE91211CDE917110024CDE949
:102E30001A44FEF72BFC20B1EFF3108072B600BFEE
:102E4000FEE73F20019003204FF48061CDE90204AA
:102E500040200494CDE90500CDE9071001A8032125
:102E6000FEF702FA18B1EFF3108072B6FEE71CB05D
:102E700010BD4EF6885042F2000CCEF20000C5F2B2
:102E8000002C026842F470020260DCF8000000F0DE
:102E90000F00062806D8DCF80000072262F30300C2
:102EA000CCF8000044F200404EF67F51C5F6020017
:102EB000CEF6F621026842F00102026000220261B1
:102EC000036819400160DCF80010090706D5DCF83A
:102ED0000010072363F30301CCF8001040F2002137
:102EE0008261C261C0F20221026281620021C0F2ED
:102EF000FF11C16240F28021C0F2011101634263FF
:102F00008163C26301644264016821F4802101602D
:102F10000266D0F8D410C90448BF7047D0F8D41066
:102F200043F2D20241F48051C0F8D41044F20001BF
:102F3000C5F200210A60D0F8D41021F48051C0F805
:102F4000D410704740F23820C2F20040FEF7B4BE01
:102F500010B540F6FF32D0F800E0C4F20002904213
:102F60000DDCB0F1804F1BD040F20043C4F20003EF
:102F7000984215D040F60003C4F200030EE040F67C
:102F80000043C4F2000398420AD040F20043C4F266
:102F90000103984204D00023C4F20103984204D1F3
:102FA0002EF070024B6843EA020E4EF2FF3343F6F6
:102FB000FF7CC4F20003C4F2010C98420FDD6045AF
:102FC00022DC4EF20043C4F20003984236D00023C4
:102FD000C4F20103984231D040F2004322E040F2B3
:102FE000FF73C4F2000398421FDD40F60003C4F2F1
:102FF0000003984222D040F60043C4F200039842F6
:103000001CD04EF2000315E044F20003C4F20103A9
:10301000984213D044F60003C4F2010398420DD045
:1030200044F20043C4F2010306E0B0F1804F05D042
:1030300040F20043C4F20003984204D12EF44072DF
:10304000CB6843EA020E4B6960450A688C68C4622B
:1030500082620EDD44F20002C4F20102904213D0FB
:1030600044F60002C4F2010290420DD044F2004244
:1030700006E00022C4F20102904205D040F2004274
:10308000C4F20102904201D109690163016841F073
:1030900004010160012141612EF0800119430160AA
:1030A00010BD00F0C5BD00F00FBE00F059BE00001D
:1030B000FEE780B540F27C00C2F200400078BFF32A
:1030C0005F8FC00718BF80BD40F27C00C2F2004095
:1030D00000F090FD48B340F284100021C2F200409D
:1030E0000122BFF35F8F017040F2C810C2F20040AE
:1030F000BFF35F8FBFF35F8F017040F20C20C2F20D
:103100000040BFF35F8FBFF35F8F017040F280011B
:10311000BFF35F8FC2F2004140F27C00C2F2004078
:103120000A70BDE8804000F07BBD80BD84B0012006
:103130000090FDF777FB0020019048F21F7002908D
:1031400040F2011003906846FDF73DFB0420FDF7B7
:1031500076FBFDF7B8FAFFF739FEFFF791FAFFF7B4
:10316000BBFAFFF75DFBFFF7FBFB00F014F8FFF77E
:1031700075FA00F023F800BFFEE7EFF3058111B107
:103180006FF00500704720B180B500F0A7FF002068
:1031900080BD00207047EFF3058010B16FF005008F
:1031A000704740F27800C2F20040016811B14FF060
:1031B000FF307047012101600020704710B5EFF328
:1031C000058010B16FF0050413E040F27800C2F200
:1031D0000040016801290AD14EF61F510024CEF2A9
:1031E00000010C700221016000F0F0FF01E04FF0DF
:1031F000FF34204610BD2DE9F04184B08E460024F6
:103200000394EFF3058198B391BB1AB39369002B34
:1032100008BF1823382B2BD81179C90728D1576933
:103220004FEA970C002FD2E90286654608BF802539
:10323000B8F1000F11681FD05C2E19D31269BAB112
:10324000B7B1CDE9003262467346CDF8088001F08F
:103250000FFC0EE0802518230021AAB203AFCDE9B0
:103260000037734601F0D6FB0399012808BF0C46CE
:10327000204604B0BDE8F081002EF9D11269002A81
:10328000F6D1EAE7F0B581B040F6C47240F2783684
:10329000C2F20042C2F2004604460D461768326888
:1032A000101D00F0A8FD601C0BD155B13068011D48
:1032B00040F69C70C2F2004001B0BDE8F04000F062
:1032C000F2BD3068E41944600BD340F28830C2F29A
:1032D000004000683168043101B0BDE8F04000F002
:1032E000C5BD40F28030C2F2004000683168043150
:1032F00000F0BCFD40F62870C2F2004001688C422C
:1033000038BF046001B0F0BD2DE9F047044600F07D
:10331000E1FD40F2FC7040F27837C2F20040C2F2A8
:10332000004740F6907A40F290360168C2F2004AB7
:10333000013101603968C2F2004651B1DAF800008B
:1033400000283ED13868E16AC06A884298BF3C6074
:1033500037E03C600068012833D10025701900F087
:1033600076FD1435B5F58C6FF8D140F6F468C2F2ED
:103370000048404600F06BFD40F60879C2F2004973
:10338000484600F064FD40F63C70C2F2004000F098
:103390005EFD40F6B070C2F2004000F058FD40F60D
:1033A0009C70C2F2004000F052FD40F28030C2F248
:1033B0000040C0F8008040F28830C2F20040C0F8FF
:1033C000009040F60800C2F200400168013101603F
:1033D000616440F60C01C2F20041E06A0A68904262
:1033E00088BF086000EB8000211D06EB800000F024
:1033F0005AFD00F095FDDAF8000078B13868E16A0E
:10340000C06A88420AD24EF604504FF08051CEF284
:1034100000000160BFF34F8FBFF36F8FBDE8F087EF
:1034200070B582B000F056FD40F6C876C2F2004694
:10343000306850BB40F6C864C2F20044204600F039
:1034400006FD40F6DC65C2F20045284600F0FFFCB0
:1034500040F27C3040F28422C2F2004040F2243339
:10346000C2F20042C2F20043046040F28C30C2F269
:103470000040102105600A200025009500F0F4FFAF
:10348000306010B103A100F0F3FD02B0BDE8704060
:1034900000F046BD546D72510000000070B5866B9F
:1034A0000446036CDBB1154612B3E0681A46FCF71C
:1034B00099FFE168206C2268091A9142E16003D209
:1034C0004042A1680844E060A81E3146B0FA80F08E
:1034D000002E18BF012140090840361A15E0206867
:1034E000002598B9A06801F0CDFBA56005460DE068
:1034F00060681A46FCF776FFD4E90101226C10449B
:103500006060884201D3206860600025701CA06361
:10351000284670BD10B5044690F8590002280AD01C
:10352000012803D040B9206B00F012FD2046BDE811
:10353000104000F00DBD10BD4FF0500080F3118819
:10354000BFF36F8FBFF34F8FFEE7000040F600051B
:1035500040F2903A4EF6045840F6B07740F2FC76CE
:10356000C2F20045C2F2004ACEF200084FF0805984
:10357000C2F20047C2F20046286890B100F0AAFCEF
:10358000F868C468201D00F036FC306801383060EF
:1035900028680138286000F0C3FC2046FFF7BAFF16
:1035A000EAE7DAF800000228E6D3C8F80090BFF393
:1035B0004F8FBFF36F8FDFE72DE9F0470A9C164668
:1035C0000F468246206B9100A5229846DDE90859F6
:1035D000FCF74DFF206B4FF0000100EB8600A0F1DF
:1035E000040020F0070604F1340057B17A5C42541D
:1035F0001AB10F2901F10101F8D1002084F843002C
:1036000000E00170372D04F1040028BF37250027A2
:10361000C4E91357E56200F025FC04F1180000F03E
:1036200021FCC5F13800A061304651464246246174
:103630006462676584F8587000F0C6FAB9F1000F4B
:10364000206018BFC9F80040BDE8F08780B540F69B
:103650009472C2F2004200BF114612688242FBD34C
:10366000D1F804E0D0F804C001EB0E03834203D18B
:10367000F4440846C1F804C000EB0C03934201D0A7
:1036800013460AE040F28433C2F200431B689A42B8
:1036900003D0D2E90032624442608142036018BF25
:1036A000086080BD8C4601469445006141F804CF16
:1036B00008D940F27C309A42C2F200400AD29C45BE
:1036C0000ED207E0D21A8069824209D240F28C30D1
:1036D000C2F2004080B5006800F0C8FB002080BD49
:1036E0000120704708480068006880F308884FF0A0
:1036F000000080F3148862B661B6BFF34F8FBFF34A
:103700006F8F00DF00BF000008ED00E02DE9F04FF3
:1037100081B0804601F0FBF940F274398246C2F272
:103720000049D9F80010884238D240F27C35C2F204
:1037300000452868016841B34FF0000BC068C668B7
:103740000768341D204600F056FB316A3046884732
:1037500096F82800400714D5B0693844B84207D914
:10376000706028682146366100F080FB09E000BFE8
:103770000021002330463A46CDF800B001F0E8FBC6
:10378000A8B1286801680029D8D140F28C31C2F272
:1037900000410A68086001202A6000E00020C8F8A3
:1037A00000005046C9F800A001B0BDE8F08F4FF00E
:1037B000500080F31188BFF36F8FBFF34F8F00BFAE
:1037C000FEE7000081B00020009040F21000C2F23D
:1037D000004000684FF0500181F31188BFF36F8FF4
:1037E000BFF34F8F013001D0FEE700BF00980028E3
:1037F000FCD001B07047000086B040F27C3B40F640
:10380000C877C2F2004B02ACC2F200474FF0000A88
:1038100001AD00BFDBF8000006681EB1C068D0F83B
:10382000008001E04FF0000800F022FD2046FFF785
:103830006DFF029911B101F0B7FAB1E08146B6B15E
:10384000C84514D801F0B0FADBF800005E46C06845
:10385000D0F80CB00BF1040000F0CDFA9BF8280072
:10386000410707D400F0FA008BF8280017E0E6B112
:10387000002223E0DBF818004A4600EB0801584616
:103880004346FFF70FFF50B1002100235846424640
:10389000CDF800A001F05CFB002800F09E80DBF872
:1038A000201058468847B3467AE040F28C30C2F286
:1038B000004000680068B0FA80F042093868A8EB60
:1038C000090100F0E8FB01F06FFA002868D14EF61C
:1038D00004504FF08051CEF200000160BFF34F8FD3
:1038E000BFF36F8F5CE000BF0298B0F1FF3F06DCD2
:1038F000DDE90320059990470298002850D4049EE2
:10390000706910B1301D00F076FA2846FFF7FEFE10
:103910000299092944D80246DFE801F0050505347B
:10392000253B0505342596F82800039BB16940F036
:10393000010086F8280019443046FFF7B3FE78B33B
:10394000316A3046884796F82800400728D5039802
:10395000B1690A18002100233046CDF800A001F01B
:10396000F7FAE8B92FE096F8280040F00101039833
:1039700086F82810B061E0B1811830461346FFF791
:1039800091FE0DE096F8280000F0FE0086F8280071
:1039900006E096F828008107F6D4304600F0D8FA01
:1039A00038680022214600F02DFF00287FF49CAFEC
:1039B00030E74FF0500080F31188BFF36F8FBFF3F3
:1039C0004F8F00BFFEE74FF0500080F31188BFF328
:1039D0006F8FBFF34F8F00BFFEE74FF0500080F3B3
:1039E0001188BFF36F8FBFF34F8F00BFFEE700005A
:1039F000F0B581B0044600F06DFA94F94560012EEF
:103A00000EDB04F1240500BF286848B1284601F008
:103A100083F908B100F096FB70B2013E0128F3DC97
:103A2000FF2684F8456000F07BFA00F053FA94F921
:103A30004470012F0EDB04F1100500BF286848B167
:103A4000284601F069F908B100F07CFB78B2013F2B
:103A50000128F3DC84F8446001B0BDE8F04000F0D8
:103A60005FBA0000F0B581B0044600F001FC40F2FE
:103A70008431C2F20041086828B140F6F061C2F218
:103A8000004109782DE040F200020027C2F2000256
:103A9000530702F5705302F1070023F0070318BF24
:103AA00020F0070240F69470A3F108060E60C2F2FF
:103AB0000040C0E9002743E90277086840F6247116
:103AC000C2F20041B31A53600B6040F61C711060E3
:103AD000C2F2004140F6F062C2F200420B600121E6
:103AE0001170002C4FF000024FF0000548BF01227A
:103AF0005AD0114058D124F0070140F61C761031FD
:103B0000620708BF04F10801C2F200464B1E32688A
:103B1000934249D240F69472C2F2004217687B6821
:103B20008B4205D23C681CB13A4627466368F7E7EA
:103B3000874212D05B1A1568112B3868106012D3B7
:103B4000781842070BD04FF0500080F31188BFF374
:103B50006F8FBFF34F8F00BFFEE7002524E0436067
:103B60007960FFF773FD40F624717868C2F2004176
:103B70003268121A32600B6808359A4238BF0A6000
:103B800040F6F061C2F20041097800294FF00001CF
:103B900018BF40F00040C7E9001040F63070C2F294
:103BA000004001680131016001F0FEF8680708D0AB
:103BB0004FF0500080F31188BFF36F8FBFF34F8F2A
:103BC000FEE7284601B0F0BD43F2C57321F00101C4
:103BD00040F8081C4FF0807140F8041CA0F144012B
:103BE000C0F6000340F80C3C6FF0020340E90932D4
:103BF00008467047017809B10020704741780129D3
:103C000003D08A0705D402224270481E18BF012043
:103C1000704780B545F21C00C0F6000000F004F8C3
:103C2000012101704170704780B5FCF769FC00000C
:103C300041F21C00C4F201000168890610D540F26F
:103C4000102C8268C2F2004C40F28401C2F20041A2
:103C5000DCF80030CA54591C01F03F01CCF80010C8
:103C60000168090658BF704740F22821C2F200419E
:103C70000A68A2B140F21C2C40F24412C2F2004C7D
:103C8000C2F20042DCF80030D25C0133C26003F0C3
:103C90003F00CCF80000086801380860704741F226
:103CA0000000C4F2010000BF50E8001F21F08001B5
:103CB00040E80012002AF7D140F284100021C2F23D
:103CC000004001707047000044F21C40C4F2000044
:103CD0000168890610D540F2142C8268C2F2004CAB
:103CE00040F2C401C2F20041DCF80030CA54591C51
:103CF00001F03F01CCF800100168090658BF704779
:103D000040F22C21C2F200410A68A2B140F2202CFC
:103D100040F28812C2F2004CC2F20042DCF80030DD
:103D2000D25C0133C26003F03F00CCF800000868A9
:103D300001380860704744F20040C4F2000000BF40
:103D400050E8001F21F0800140E80012002AF7D15E
:103D500040F2C8100021C2F200400170704700001C
:103D600041F21C40C4F201000168890610D540F2FE
:103D7000182C8268C2F2004C40F20411C2F20041D9
:103D8000DCF80030CA54591C01F03F01CCF8001097
:103D90000168090658BF704740F23021C2F2004165
:103DA0000A68A2B140F2242C40F2CC12C2F2004CBC
:103DB000C2F20042DCF80030D25C0133C26003F092
:103DC0003F00CCF80000086801380860704741F2F5
:103DD0000040C4F2010000BF50E8001F21F0800144
:103DE00040E80012002AF7D140F20C200021C2F274
:103DF0000040017070470169D0E90132D1F804C078
:103E00009A608445536008BF4A60002202610868D6
:103E1000013808600868704740F61023C2F200437A
:103E2000036040F61000C2F200400860802010607D
:103E3000704740F66C63C2F20043036040F66C20AA
:103E4000C2F2004008604FF4807010607047024674
:103E50004FF0FF3142F8081F00214260C0E9032201
:103E600001607047002101617047000080B5D1F802
:103E700000C01CF1010207D000F10802964652680A
:103E800013686345FAD903E0D0F810E0DEF80420A7
:103E90004A609160C1F808E0CEF80410086101683A
:103EA0000131016080BDD0F800C043684B609A6862
:103EB0008A609960516008610CF1010101607047EE
:103EC000DFF80C00016841F47001016070470000E8
:103ED00088ED00E04FF0500080F31188BFF36F8F42
:103EE000BFF34F8F40F21000C2F20040016800297A
:103EF00001F10101016000D070474EF60450CEF28E
:103F000000000068000608BF70474FF0500080F3C3
:103F10001188BFF36F8FBFF34F8F00BFFEE7000024
:103F200040F21000C2F20040016839B1013901606D
:103F300018BF7047002080F3118870474FF0500081
:103F400080F31188BFF36F8FBFF34F8FFEE7000040
:103F5000B0B5D0B1044640F6F060C2F2004000783F
:103F6000002818BF4FF0004054F8041C08420DD040
:103F7000A4F108052A6892B14FF0500080F311882F
:103F8000BFF36F8FBFF34F8FFEE7B0BD4FF0500010
:103F900080F31188BFF36F8FBFF34F8FFEE721EAE5
:103FA000000044F8040C00F063F940F61C7054F86B
:103FB000041CC2F200400268114401602846FFF769
:103FC00045FB40F63470C2F20040016801310160E7
:103FD000BDE8B04000F0E8BE4EF210000021CEF285
:103FE000000044F6D352C1F262020160816040F2E7
:103FF0000001C2F200410968A1FB02124FF0FF313B
:1040000001EB92114160072101607047EFF30580D9
:10401000102814D34EF2F03140F2F072CEF20001CB
:10402000C2F20042405C1178884208D24FF0500042
:1040300080F31188BFF36F8FBFF34F8FFEE74EF60B
:104040000C5040F2F471CEF20000C2F20041006860
:10405000096800F4E060884298BF70474FF0500054
:1040600080F31188BFF36F8FBFF34F8FFEE700001F
:1040700040F6507C0022C2F2004C00BF5CF83230A7
:104080001BB10132082AF9D170470CEBC2034CF87E
:1040900032105860704770B515460E460446FFF75B
:1040A00019FF94F84400FF2802D1002084F844004E
:1040B00094F84500FF2802D1002084F84500FFF75E
:1040C0002FFFA06B28B904F1240031462A4600F0E6
:1040D0005DF82046BDE87040FFF78ABC80B5C0B1EE
:1040E00040F60401C2F200410A6842B14FF05000AC
:1040F00080F31188BFF36F8FBFF34F8FFEE70A681D
:1041000001320A600021FFF7BDF800F04DFE00B15A
:1041100080BD4EF604504FF08051CEF20000016099
:10412000BFF34F8FBFF36F8F80BD40F62C71C2F28B
:1041300000410968016040F6C471C2F2004109689B
:104140004160704740F6D0700121C2F2004001602A
:104150007047000078B110B50C4640F27831C2F2D9
:10416000004109681831FFF781FE01212046BDE8B2
:104170001040FFF787B84FF0500080F31188BFF36D
:104180006F8FBFF34F8F00BFFEE70000A0B1B0B547
:104190000D4640F27831C2F20041144609681831E8
:1041A000FFF781FE002C214618BF4FF0FF3528464F
:1041B000BDE8B040FFF766B84FF0500080F31188BB
:1041C000BFF36F8FBFF34F8FFEE70000B0B586B02F
:1041D00005A804A903AA0025CDE90455FFF71CFE94
:1041E000DDE90320CDE9005043F24D501EA1C0F699
:1041F00000000023059C029400F03AFC40F6207178
:10420000C2F20041086010B300F068FE411C20D0EB
:1042100001281CD14FF0500080F31188BFF36F8F3D
:10422000BFF34F8F40F62870C2F200404FF0FF31CD
:10423000016040F69070C2F200400121016040F63A
:10424000C470C2F200400021016000F061F806B0C5
:10425000B0BD4FF0500080F31188BFF36F8FBFF3F4
:104260004F8F00BFFEE700BF49444C4500000000EF
:1042700040F60400C2F2004001680131016070475D
:1042800040F60400C2F20040006830B140F6D07041
:104290000121C2F200400160704740F6D07040F644
:1042A0000C0CC2F20040C2F2004C002140F29033EC
:1042B0000160C2F20043DCF8001001EB810253F808
:1042C000220003EB8202B0B15068436802F108009B
:1042D0008342536001D15B68536040F27830DA6802
:1042E000C2F200400260CCF80010704752F8140D82
:1042F00001390028E8D10029F8D14FF0500080F3AF
:104300001188BFF36F8FBFF34F8F00BFFEE7000030
:10431000B0B584B04EF600504CF27021CEF20000E1
:10432000C4F20F114B1C02689A4208D14FF05000A2
:1043300080F31188BFF36F8FBFF34F8FFEE70268E2
:104340008A4208D14FF0500080F31188BFF36F8F7D
:10435000BFF34F8FFEE74FF2007C40F2F073CFF6D1
:10436000FF7CC2F2004310F80C200292FF2200F8FA
:104370000C2010F80C208DF807209DF8072002F083
:1043800050021A7040F2F4720723C2F20042136026
:104390009DF90730B3F1FF3F46DC06231360013B74
:1043A0009DF8071049008DF807109DF907100029A6
:1043B000F4D4022B38D14FF440711160029900F807
:1043C0000C10016A41F470010162016A41F0704110
:1043D0000162FFF701FE40F210040025C2F2004422
:1043E0002560FFF76DFD4EF63470CEF200000168D7
:1043F00041F040410160FFF775F9FFF741FF039578
:1044000020684FF0500181F31188BFF36F8FBFF325
:104410004F8F013002D000BFFEE700BF0398002895
:10442000FCD0002004B0B0BD4FF0500080F31188E4
:10443000BFF36F8FBFF34F8FFEE780B54FF0500093
:1044400080F31188BFF36F8FBFF34F8F00F066FBCF
:1044500030B14EF604504FF08051CEF200000160B2
:10446000002080F3118880BDB0B582B068B11C46D1
:10447000ABB1F1B9EAB14FF0500080F31188BFF34E
:104480006F8FBFF34F8F00BFFEE74FF0500080F3F8
:104490001188BFF36F8FBFF34F8F00BFFEE74FF060
:1044A000500080F31188BFF36F8FBFF34F8F00BFB1
:1044B000FEE751B14AB94FF0500080F31188BFF3C5
:1044C0006F8FBFF34F8F00BFFEE750230193019B17
:1044D000502B13D1019B0123002984F8463008BFDB
:1044E0002246C4E90F0101212046069D226000F00A
:1044F0000FF884F84C50204602B0B0BD4FF0500089
:1045000080F31188BFF36F8FBFF34F8FFEE700007A
:1045100020B370B504460E46FFF7DCFCD4E90F016A
:104520002268002501FB0023013800FB0120A56360
:104530006260C4E902304FF0FF0084F8440084F860
:10454000450004F1100096B1FFF781FC04F124004E
:10455000FFF77DFCFFF7E4FC012070BD4FF0500039
:1045600080F31188BFF36F8FBFF34F8FFEE70168B1
:104570000029EFD000F0D0FB0028EBD04EF604501D
:104580004FF08051CEF200000160BFF34F8FBFF3B8
:104590006F8FDFE72DE9F04F83B00292B8B1044688
:1045A0001D4617460E46E1B1022D03D1E06B0128EE
:1045B00040F09D8000F099FAF8B9F7B14FF0500043
:1045C00080F31188BFF36F8FBFF34F8FFEE74FF07B
:1045D000500080F31188BFF36F8FBFF34F8F00BF80
:1045E000FEE7206C0028DFD04FF0500080F31188E8
:1045F000BFF36F8FBFF34F8FFEE7FFF76BFC022D0A
:10460000A06B5CD0E16B884259D304F11008012003
:104610006F460DF1080900BF0299002900F0818062
:10462000C00702D03846FFF780FDFFF779FCFFF79F
:104630001FFEFFF74FFC94F84400FF2802D1002032
:1046400084F8440094F84500FF2802D1002084F843
:104650004500FFF765FC3846494600F097F9002809
:1046600062D1FFF737FCD4F838A0D4F83CB0FFF79C
:1046700057FCDA4516D102994046FFF76BFD2046FC
:10468000FFF7B6F900F090FB88B94EF604504FF0F2
:104690008051CEF200000160BFF34F8FBFF36F8FE8
:1046A00005E000BF2046FFF7A3F900F07DFBFFF710
:1046B00011FCA06BE16B88424FF00000ACD22046A9
:1046C00031462A46FEF7EAFE54F8241FC9B12046B7
:1046D00000F022FB08B34EF604504FF08051CEF2AA
:1046E00000000160BFF34F8FBFF36F8F15E04FF0F5
:1046F000500080F31188BFF36F8FBFF34F8F00BF5F
:10470000FEE750B14EF604504FF08051CEF200005B
:104710000160BFF34F8FBFF36F8FFFF701FC0120E4
:1047200008E0FFF7FDFB04E02046FFF761F900F029
:104730003BFB002003B0BDE8F08F00002DE9F04303
:1047400081B0E8B105461E4691460F4609B3022ED8
:1047500002D1E86B012842D1FFF758FCEFF3118832
:104760004FF0500080F31188BFF36F8FBFF34F8F6E
:10477000022EA86B19D0E96B884216D300203CE0CA
:104780004FF0500080F31188BFF36F8FBFF34F8F4E
:10479000FEE7286C0028DAD04FF0500080F3118833
:1047A000BFF36F8FBFF34F8FFEE795F84540A86BBF
:1047B000284639463246FEF771FEFF2C19D155F8CE
:1047C000240FC8B1284600F0A7FA01460120B9F12C
:1047D000000F18BF002910D0C9F800000DE04FF0FD
:1047E000500080F31188BFF36F8FBFF34F8F00BF6E
:1047F000FEE7601C85F84500012088F3118801B0B0
:10480000BDE8F0832DE9F04F83B0029288B10446F1
:1048100016460D46002946D000F067F998B996B1C2
:104820004FF0500080F31188BFF36F8FBFF34F8FAD
:10483000FEE74FF0500080F31188BFF36F8FBFF396
:104840004F8F00BFFEE7FFF745FBD4F838A0BAF161
:10485000000F34D0226C52B1D4E902011144E1605E
:10486000814201D32168E1602846FBF7BBFDAAF134
:104870000100A06354F8100F70B1204600F04CFA0C
:1048800050B14EF604504FF08051CEF2000001605E
:10489000BFF34F8FBFF36F8F0124FFF741FB20461B
:1048A00003B0BDE8F08F206C0028B5D04FF0500069
:1048B00080F31188BFF36F8FBFF34F8FFEE704F1D2
:1048C000240801206F464FF000090DF1080B00BFCE
:1048D0000299002955D0C00702D03846FFF725FCC1
:1048E000FFF71EFBFFF7C4FCFFF7F4FA94F844004F
:1048F000FF2808BF84F8449094F84500FF2808BFBB
:1049000084F84590FFF70CFB3846594600F03EF816
:1049100060B12046FFF76CF800F046FAFFF7DAFACC
:10492000A66BFFF7FDFA1EBB2DE000BFFFF7D2FA22
:10493000A66BFFF7F5FA2EB12046FFF759F800F005
:1049400033FA15E002994046FFF704FC2046FFF7D2
:104950004FF800F029FA58B94EF604504FF0805144
:10496000CEF200000160BFF34F8FBFF36F8F00BF27
:10497000FFF7B0FAD4F838A00020BAF1000FA7D0A2
:1049800068E7002489E7002489E7000070B530B3A8
:104990000D4671B30446FFF79DFA40F6C47EC2F29D
:1049A000004EDEF8003029684A1C16D040F62C7CF8
:1049B000C2F2004CD4E90002DCF80060864201D06B
:1049C000934222D29A1A91421DD9881A2860DCF8A3
:1049D00000002060DEF800006060002416E04FF068
:1049E000500080F31188BFF36F8FBFF34F8F00BF6C
:1049F000FEE74FF0500080F31188BFF36F8FBFF3D5
:104A00004F8F00BFFEE7002028600124FFF788FADF
:104A1000204670BD2DE9F04383B0074690009846CC
:104A200015468946FFF71EF8E0B106465C20FFF701
:104A300019F8A0B104460022DDE90A1026634346B6
:104A400084F859202A46CDE9001038464946029498
:104A5000FEF7B2FD2046FEF757FC012004E0304689
:104A6000FFF776FA4FF0FF3003B0BDE8F0830000A7
:104A700070B586B00B9CD4B10C9E16B35C25049522
:104A8000049D5C2D27D1DDF828C0049D34630225E8
:104A900086F85950CDF800C005ADCDE90156FEF7B6
:104AA0008BFD3046FEF730FC059806B070BD4FF028
:104AB000500080F31188BFF36F8FBFF34F8F00BF9B
:104AC000FEE74FF0500080F31188BFF36F8FBFF304
:104AD0004F8F00BFFEE74FF0500080F31188BFF307
:104AE0006F8FBFF34F8F00BFFEE740F69070C2F2AA
:104AF0000040006848B140F60400C2F2004000687F
:104B0000B0FA80F04009400070470120704740F63D
:104B1000C470C2F200400068704700002DE9F04FF9
:104B200081B040F60400C2F20040006840B140F697
:104B300038700024C2F200400168013101609DE03C
:104B400040F6C470C2F2004001684E1C06602ED3CD
:104B500040F28030C2F200400168096849B14FF06C
:104B6000500080F31188BFF36F8FBFF34F8F00BFEA
:104B7000FEE740F288320168C2F200421368036027
:104B8000116040F62C71C2F200410A6801320A60DD
:104B90000168096821B10068C068C068406801E028
:104BA0004FF0FF3040F62871C2F20041086040F635
:104BB000287140F2783AC2F2004140F29038C2F2D5
:104BC000004AC2F200480868864201D2002443E04D
:104BD00040F280370024C2F2004738680068C0B352
:104BE00040F60C0BC2F2004B3868C068D0F80C904D
:104BF0004D4655F8040F864226D32846FFF7FBF8AA
:104C0000D9F8280018B109F11800FFF7F4F8D9F81D
:104C10002C00DBF800108842294688BFCBF8000042
:104C200000EB800008EB8000FFF73DF9D9F82C007D
:104C3000DAF80010C96A3A68884228BF012410686F
:104C40000028D1D14FF0FF3040F62871C2F2004168
:104C500001E04FF0FF300860DAF80000C06A00EBB6
:104C6000800058F82000012840F6D070C2F20040C1
:104C700088BF01240068002818BF0124204601B025
:104C8000BDE8F08FB0B580B1044640F27830C2F292
:104C90000040006884420AD04FF0500080F3118831
:104CA000BFF36F8FBFF34F8FFEE70020B0BD206DC5
:104CB00038B3013820654FF0000021D1E16AE26C81
:104CC000914208BFB0BD251D2846FFF794F8E06C5F
:104CD000E062C0F13801A16140F60C01C2F200416E
:104CE0000A68904288BF086000EB800040F2903173
:104CF000C2F2004101EB80002946FFF7D4F8012001
:104D0000B0BD4FF0500080F31188BFF36F8FBFF339
:104D10004F8F00BFFEE70000B0B5C068C5687DB129
:104D200005F118042046FFF766F840F60400C2F2C9
:104D30000040006868B140F63C70C2F200401DE0DF
:104D40004FF0500080F31188BFF36F8FBFF34F8F88
:104D5000FEE72C1D2046FFF74EF840F60C01E86AEE
:104D6000C2F200410A68904288BF086000EB8000F0
:104D700040F29031C2F2004101EB80002146FFF782
:104D800092F840F27830E96AC2F200400068C06AE6
:104D9000814206D940F6D0710120C2F2004108607C
:104DA000B0BD0020B0BD00002DE9F04F81B040F64D
:104DB0000404C2F20044206868B1FFF78BF8206851
:104DC00001382060206880B10024FFF7A9F8204650
:104DD00001B0BDE8F08F4FF0500080F31188BFF3B1
:104DE0006F8FBFF34F8F00BFFEE740F2FC70C2F23F
:104DF000004000680028E7D040F63C7640F6D078C6
:104E0000C2F20046C2F200483068002842D040F6A4
:104E10000C0740F2903940F2783BC2F20047C2F2F0
:104E20000049C2F2004B4FF0010A00BFF068C568AC
:104E300005F11800FEF7DFFF2C1D2046FEF7DBFF13
:104E4000E86A39688842214688BF386000EB8000F4
:104E500009EB8000FFF727F8E86ADBF80010C96A61
:104E6000884228BFC8F800A030680028DED140F290
:104E70008030C2F200400168096821B10068C06852
:104E8000C068406801E04FF0FF3040F62871C2F280
:104E90000041086040F63874C2F20044256855B1FC
:104EA000012600BFFFF73AFE08B1C8F80060013DD7
:104EB000F8D100202060D8F8000000283FF484AF2B
:104EC0004EF604504FF08051CEF2000001240160F4
:104ED000BFF34F8FBFF36F8F77E7000080B586B0C9
:104EE000FEF79EFA40F6C870C2F20040006808B3B0
:104EF000002004A9CDE9040005A803AAFEF799FF44
:104F0000DDE9032002210023CDE9001043F2F9700E
:104F10000DA1C0F60000DDF814C0CDF808C0FFF701
:104F2000A7FD40F6CC71C2F20041086010B101202B
:104F300006B080BD4FF0500080F31188BFF36F8F33
:104F4000BFF34F8FFEE700BF546D722053766300AE
:104F5000B0B110B584B040F6C8748646C2F20044C1
:104F60002068B0B10529CDF808E0CDE9001212DCC7
:104F7000FFF7BBFD0228206814D1069A694613E0AA
:104F80004FF0500080F31188BFF36F8FBFF34F8F46
:104F9000FEE700200BE09C46694600236246FFF7CF
:104FA000CDFB04E0694600220023FFF7F3FA04B0CA
:104FB00010BDF1EE100A4FF6FF71C0F2C03120EAC9
:104FC000010040F04070E1EE100A70470000000060
:104FD000010203040102030406070809000000009F
:104FE0000102030401020304060708091050000827
:104FF00000000000000000000000000000000000B1
:105000000002000018000000000000000000000086
:1050100064656661756C745461736B005F5F63787F
:10502000615F67756172645F616371756972652044
:105030006465746563746564207265637572736911
:10504000766520696E697469616C697A6174696FEB
:105050006E3A20646F20796F7520686176652061F3
:105060002066756E6374696F6E2D6C6F63616C2062
:10507000737461746963207661726961626C652022
:1050800077686F736520696E697469616C697A61AC
:1050900074696F6E20646570656E6473206F6E2036
:1050A000746861742066756E6374696F6E3F00008A
:1050B000E850000800000024180000003003000839
:1050C000E450000800000020003C000050030008ED
:1050D0000051000818000024C0150000500300080B
:1050E000D3DFFFFF000000000090D0030090D0034A
:1050F0000100000010000000AAAAAAAA00000000F7
:04000005080002CD20
:00000001FF
