:020000040800F2
:10000000B80600249D030008A12A00084D1E000820
:100010009D2A000869060008A930000800000000B9
:10002000000000000000000000000000812D00081A
:100030006B06000800000000B12A0008A52D00088A
:10004000BB030008BB030008BB030008BB03000898
:10005000BB030008BB030008BB030008BB03000888
:10006000BB030008BB030008BB030008BB03000878
:10007000BB030008BB030008BB030008BB03000868
:10008000BB030008BB030008BB030008BB03000858
:10009000BB030008BB030008BB030008BB03000848
:1000A000BB030008BB030008BB030008BB03000838
:1000B000BB030008BB030008BB030008BB03000828
:1000C000BB030008BB030008BB030008BB03000818
:1000D000BB0300089B3000089F300008BB030008EA
:1000E000BB030008BB03000800000000BB030008BE
:1000F000BB030008BB030008BB030008BB030008E8
:10010000BB030008BB030008BB030008BB030008D7
:10011000BB030008BB030008BB030008BB030008C7
:10012000BB030008BB030008BB030008BB030008B7
:10013000BB030008BB030008BB030008BB030008A7
:1001400000000000000000000000000000000000AF
:10015000BB030008BB030008BB030008A330000872
:10016000BB030008BB030008BB030008BB03000877
:10017000BB030008BB030008BB030008000000002D
:10018000BB030008BB030008BB030008BB03000857
:10019000BB030008BB030008BB030008BB03000847
:1001A000BB030008BB030008BB03000800000000FD
:1001B000BB030008BB030008BB030008BB03000827
:1001C000BB030008BB0300080000000000000000A3
:1001D0000000000000000000BB0300080000000059
:1001E000000000000000000000000000000000000F
:1001F0000000000000000000BB030008BB03000873
:10020000BB030008BB03000800000000BB0300089C
:10021000BB030008BB0300083D2F0008BB03000818
:10022000BB03000800000000BB0300080000000042
:10023000BB030008BB03000800000000BB0300086C
:10024000BB030008BB030008BB030008BB03000896
:10025000BB030008BB030008BB030008BB03000886
:10026000BB030008BB030008BB030008BB03000876
:10027000BB030008BB030008BB030008000000002C
:10028000BB030008BB030008BB030008BB03000856
:1002900000000000BB030008BB03000800000000D2
:1002A00000000000BB030008BB030008BB030008FC
:1002B000BB030008BB030008BB030008BB03000826
:1002C000BB030008BB030008BB03000800F002F8F2
:1002D00000F054F814A696E8000CB244B344DA4592
:1002E00001D100F04BF8BAE80F000FA696E83000F5
:1002F000A5EB040504EB0607AAEB0704A7F1010729
:100300004FEA15154FEA3414A4F10104AC4201D3AD
:1003100000F034F813F0010F18BFFB1A43F001038B
:1003200000F001F8DBE718472C3800006C380000BB
:10033000103A24BF78C878C1FAD8520724BF30C811
:1003400030C144BF04680C60704700007047000073
:100350000023002400250026103A28BF78C1FBD8CE
:10036000520728BF30C148BF0B6070471FB503F06C
:10037000D3FB00F0A7F81FBD10B510BD00F004F9C5
:100380001146FFF7F3FF03F023F900F022F903B45D
:10039000FFF7F2FF03BC00F0E9F800000A488047CD
:1003A0000A4880470A480047FEE7FEE7FEE7FEE707
:1003B000FEE7FEE7FEE7FEE7FEE7FEE70548064943
:1003C000064A074B70470000790600086B2E0008AC
:1003D000CD020008B8000024B8060024B8020024AA
:1003E000B8020024032A40F2308010F0030C00F021
:1003F000158011F8013BBCF1020F624498BF11F85F
:1004000001CB00F8013B38BF11F8013BA2F1040217
:1004100098BF00F801CB38BF00F8013B11F003038F
:1004200000F07180083AC0F0088051F8043B083AA7
:1004300051F804CBA0E80810F5E7121D5CBF51F895
:10044000043B40F8043BAFF30080D20724BF11F80F
:10045000013B11F801CB48BF11F8012B24BF00F874
:10046000013B00F801CB48BF00F8012B70474FF06B
:10047000000200B5134694469646203922BFA0E8F4
:100480000C50A0E80C50B1F12001BFF4F7AF090700
:1004900028BFA0E80C5048BF0CC05DF804EB8900F1
:1004A00028BF40F8042B08BF704748BF20F8022B34
:1004B00011F0804F18BF00F8012B7047704770474C
:1004C0007047000008487CB578440090074878449D
:1004D000009C0546019004E02046016808448047DE
:1004E000241DAC42F8D17CBDC8360000C6360000E1
:1004F00010B5002000F040F8FFF73EFFBDE81040C7
:10050000012000F033B810B5203AC0F00B80B1E8FC
:100510001850A0E81850B1E81850A0E81850203A38
:10052000BFF4F5AF5FEA027C24BFB1E81850A0E841
:10053000185044BF18C918C0BDE810405FEA827C5B
:1005400024BF51F8043B40F8043B08BF7047D20772
:1005500028BF31F8023B48BF11F8012B28BF20F813
:10056000023B48BF00F8012B7047000001491820EA
:10057000ABBEFEE72600020010B500F039F8BDE87A
:10058000104000F02FB87047754600F049F8AE46AD
:1005900005006946534620F00700854618B020B58F
:1005A000FFF70CFFBDE820404FF000064FF00007BA
:1005B0004FF000084FF0000BAC46ACE8C009ACE8C7
:1005C000C009ACE8C009ACE8C00921F007018D46BC
:1005D000704710B50446AFF300802046BDE81040D8
:1005E000FFF7D5BE002801D0FFF7C0BF704700005D
:1005F00010B5002102A000F017F8012010BD000086
:10060000534947414252543A2041626E6F726D61C4
:100610006C207465726D696E6174696F6E000000A4
:10062000004870471000002070B505460C460A20AF
:1006300000E06D1C00F011F835B128780028F8D1E1
:1006400002E0641C00F009F814B120780028F8D109
:10065000BDE870400A20AFF3008008B569468DF808
:1006600000000320ABBE08BDFEE77047EFF310802B
:1006700072B600BFFEE7000044F60400C5F60200B3
:10068000816841F00201816001688904FCD57047EE
:10069000B0B5044600F010F840F209010546C2F278
:1006A0000001621C097818BF0C4400BF00F004F878
:1006B000401BA042FAD3B0BD40F29C60C2F20000E1
:1006C0000068704740F2090040F29C61C2F20000ED
:1006D000C2F2000100780A6810440860704780B5D3
:1006E000032000F01AF900F053FF44F2184143F6DA
:1006F0003233C5F60201C0F600030A68C2F30322D2
:100700009A5C096801F00F0102F01F02595CD040A9
:1007100040F20402C2F2000201F01F0120FA01F1CE
:10072000116040F20001C2F2000108600F2000F0E9
:1007300007F808B1012080BD00F09DF8002080BDC1
:100740000F2842D8B0B58AB0044676200022214650
:10075000002500F0B5F8762000F0A2F840F20C0079
:10076000C2F20000046044F2F040C5F602000168E5
:1007700041F480210160006801A900F4802002900A
:10078000029802A800F09FFE00F0EFFE4DF6836194
:100790004000C4F21B3144F60002A0FB010140F20C
:1007A000D810C2F200004FF0FF33C4F20102026021
:1007B00003EB9141C0E9011540F2E731C0E90315AF
:1007C00001F0F1F918B1012007E00120704740F273
:1007D000D810C2F2000001F017FA0AB0B0BD10B58F
:1007E0004EF6985E4378CEF2000E90F800C0CEF838
:1007F0000030DEF8083023F00103CEF808304368FB
:10080000CEF80430037BC27A817A447B120642EA36
:100810000372837B42EAC141C27B41EA8441447A4C
:1008200041EA4341007A41EA024141EA042141EAB6
:10083000400040EA0C00CEF8080010BD4EF62450EF
:10084000CEF20000BFF35F8F016821F480310160B8
:100850000021016770474EF6245140F00100CEF2AE
:1008600000010867086840F480300860BFF34F8FCC
:10087000BFF36F8F704781B044F2F4400022C5F699
:100880000200016841F00201016000680F2100F0E0
:10089000020000906FF00100009B01B000F010B862
:1008A00000280CD400F01F01012202FA01F14EF2DF
:1008B0000012C0F34A10CEF2000242F82010704736
:1008C00070B54EF60C5C4FF0FF36CEF2000C00F126
:1008D000604505F56445DCF80030C3F3022E8EF068
:1008E0000703042B28BF0423BEF1030406FA03F315
:1008F00021EA030100F00F0338BF0024043B002865
:10090000634406FA04F048BF03F10C05A14022EA53
:10091000000008430001287070BD4EF60C514FF6E0
:10092000FF03CEF200010A681A4060F30A2242F087
:10093000806040F0FD70086070470000B0B544F67C
:100940000C05C5F6020529684907296805D401F098
:100950000701081A18BF0120B0BD21F007010843A4
:100960002860FFF7A9FE044655F8080C800407D458
:10097000FFF7A2FE001BB0F57A7FF5D90120B0BDCC
:100980000020B0BD2DE9F0470446C07844F210487D
:100990000007C5F6020824D5606E4FEA30510329DE
:1009A00036D8DFE801F002090F17D8F81C1041F41F
:1009B0000031C8F81C100DE004F10800022102F01B
:1009C000A9F804E004F12800022102F027F9064604
:1009D00040B9606ED8F8401021F440110843C8F8BF
:1009E000400000266078C00701D1354629E0A06D9F
:1009F00004283CD83546DFE800F003130D19190030
:100A0000D8F81C00354640F40030C8F81C000DE052
:100A10000126E7E704F12800002102F0FFF804E0D6
:100A200004F10800002102F075F805462F464DB983
:100A3000D8F84000A16D20F0070000250843C8F851
:100A400040003746607840072FD5D4F8A4004FEA1D
:100A50007050052814D8DFE800F003160D1C1C1C8C
:100A6000D8F81C0040F40030C8F81C0011E0012543
:100A70000127E7E704F12800002102F0CFF807E0A2
:100A80000125012612E004F10800002102F042F8DD
:100A900005462E4655B9D8F84800D4F8A41020F4DD
:100AA000600000250843C8F848003E46607800070B
:100AB0002CD5D4F8A8004FEA3060052811D8DFE81B
:100AC00000F003130A191919D8F81C0040F400307B
:100AD000C8F81C000EE004F12800002102F09EF886
:100AE00007E00125012712E004F10800002102F0CF
:100AF00011F805462F4655B9D8F84800D4F8A81083
:100B000020F0E06000250843C8F848003746E07848
:100B1000800720D5E06C4FEA3010032830D8DFE89A
:100B200000F00F02090FD8F81C0040F40030C8F89C
:100B30001C0005E004F10800022101F0EBFF05466E
:100B40002E464DB9D8F83C00E16C20F0300000256D
:100B50000843C8F83C003E466078C0062AD5E06DE0
:100B60004FEA303004283AD8DFE800F003130D19BB
:100B70001900D8F81C0040F40030C8F81C000EE042
:100B800001250126E8E704F12800002102F046F8DB
:100B900004E004F10800002101F0BCFF05462F46E7
:100BA0004DB9D8F84000E16D20F4E040002508433D
:100BB000C8F8400037466078800624D5206E4FEA9A
:100BC0003040052800F22683DFE800F012030C1203
:100BD000121204F10800012101F09CFF07E0012539
:100BE0000127E8E704F12800012102F017F8054683
:100BF0002E464DB9D8F84000216E20F4E0200025A3
:100C00000843C8F840003E466078400623D5D4F833
:100C1000AC004FEA3070052800F2FF82DFE800F0F8
:100C20000F03090F0F0F04F10800012101F072FFFB
:100C300004E004F12800012101F0F0FF05462F46F1
:100C400055B9D8F84800D4F8AC1020F0E0400025A1
:100C50000843C8F848003746607800061FD5E06EA4
:100C600090B1B0F1005F09D0B0F1805F29D1D8F820
:100C70001C0040F40030C8F81C0005E004F1080036
:100C8000012101F047FF05462E464DB9D8F8400036
:100C9000E16E20F0405000250843C8F840003E4671
:100CA000E078C00721D0A06C03284FD8DFE800F01F
:100CB00012020C12D8F81C0040F40030C8F81C00D6
:100CC00008E001250126EBE704F10800022101F00C
:100CD00021FF0546A9464DB9D8F83C00A16C20F08B
:100CE000030000250843C8F83C00B146A078400640
:100CF00001D44F4616E0D8F8F00340F48070C8F8ED
:100D0000F003FFF7D9FC0646D8F8F003C00507D476
:100D1000FFF7D2FC801B6428F6D90325032701E0E6
:100D20002F46BDB12078C00756D0A06F4FEAF00023
:100D3000052800F27582DFE800F044033E44444495
:100D400004F10800012101F0E5FE39E001254FF032
:100D50000109CBE7D8F86010D4F8B000414011F495
:100D6000407F11D0D8F86010D8F8602042F480326B
:100D7000C8F86020D8F8602021F4407122F4803255
:100D8000C8F86020C8F86010B0F5807F40F05C8241
:100D9000FFF792FC064641F2883A0325032700BF7D
:100DA000D8F86000800700F14D82FFF785FC801BBA
:100DB0005045F5D9B6E704F12800012101F02EFFD6
:100DC00005462E464DB9D8F84400A16F20F03800F2
:100DD00000250843C8F844003E46207880071FD508
:100DE000606F052800F21F82DFE800F00F03090F93
:100DF0000F0F04F10800012101F08CFE04E004F162
:100E00002800012101F00AFF05462F464DB9D8F808
:100E10004400616F20F0070000250843C8F8440033
:100E200037462078400721D5D4F89000052800F2F5
:100E3000FD81DFE800F00F03090F0F0F04F1080038
:100E4000012101F067FE04E004F12800012101F016
:100E5000E5FE05462E4655B9D8F84800D4F890105E
:100E600020F0070000250843C8F848003E462078D7
:100E7000800623D5D4F88C004FEA3070052800F2A4
:100E8000D881DFE800F00F03090F0F0F04F108000D
:100E9000002101F03FFE04E004F12800022101F0EE
:100EA000BDFE05462F4655B9D8F84400D4F88C103D
:100EB00020F0E04000250843C8F844003746207879
:100EC000400623D5D4F898004FEAB020052800F258
:100ED000B381DFE800F00F03090F0F0F04F10800E2
:100EE000002101F017FE04E004F12800022101F0C6
:100EF00095FE05462E4655B9D8F84800D4F8981006
:100F000020F4E05000250843C8F848003E46207809
:100F1000000623D5D4F89C004FEA7030052800F273
:100F20008E81DFE800F00F03090F0F0F04F10800B6
:100F3000002101F0EFFD04E004F12800022101F09E
:100F40006DFE05462F4655B9D8F84800D4F89C10D8
:100F500020F4604000250843C8F848003746206860
:100F6000010716D5D4F88000B0F5805F09D104F1EF
:100F70002800022101F052FE002818BF0127D4F8F2
:100F80008000D8F8441021F440510843C8F84400C8
:100F90002068C10616D5D4F89400B0F5807F09D139
:100FA00004F12800022101F039FE002818BF0127B2
:100FB000D4F89400D8F8481021F440710843C8F8D8
:100FC00048002068000322D5D4F8A000B0F5003F07
:100FD00011D0B0F5803F08D0002840F0138104F113
:100FE0000800002101F096FD04E004F12800022130
:100FF00001F014FE05462E4655B9D8F84800D4F83D
:10100000A01020F4403000250843C8F848003E46B0
:10101000A078400724D5D4F88400B0F5401F13D041
:10102000B0F5001F0AD0B0F5801F40F0EE80D8F870
:101030001C0040F40030C8F81C0005E004F1280052
:10104000012101F0EBFD05462F4655B9D8F84400C3
:10105000D4F8841020F4401000250843C8F8440058
:101060003746A078C00701D13E461FE0206DB0F59D
:10107000803F07D0C0B9D8F81C0040F40030C8F851
:101080001C0005E004F10800022101F043FD0546C3
:101090002E465DB9D8F83C00216D20F48030002543
:1010A0000843C8F83C00DFE70125012621688800D5
:1010B00001D4606809E004F12800022101F0AEFDCE
:1010C000002818BF0126D4E900108A031AD5E26F60
:1010D0006FF0010303EB3223022B0BD34FEA3223D1
:1010E00043B1012B40F09480D8F81C3043F4003316
:1010F000C8F81C303DB9D8F8443023F440731A4383
:10110000C8F844203546CA0207D5D8F84020236FD6
:1011100022F000421A43C8F840208A0207D5D8F8C6
:101120004020A36E22F080721A43C8F840204A0083
:101130000CD5D8F8002022F40042C8F80020D4F8DA
:10114000B420D8F800301A43C8F80020CA0F07D0DE
:10115000D8F83C20636D22F040521A43C8F83C2076
:10116000090208D5D8F84410D4F8882021F44001A9
:101170001143C8F84410C10708D004F10800002149
:1011800001F0C8FC002818BF05466068810708D533
:1011900004F10800012101F0BDFC002818BF05463C
:1011A0006068410708D504F10800022101F0B2FC93
:1011B000002818BF05466068010708D504F128001B
:1011C000002101F02BFD002818BF05466068C1060C
:1011D00008D504F12800012101F020FD002818BFE6
:1011E00005466068800607D504F12800022101F059
:1011F00015FD002818BF0125002D18BF0125284620
:10120000BDE8F0870125012602E70125012728E72F
:10121000012578E701250126F6E4012501271BE5D4
:1012200001250126D9E501250127FAE50125012639
:101230001DE60125012742E60125012667E6012575
:1012400001278CE6D4F8B0004FF6CF73D8F8002011
:10125000C0F2FF0300F4407122F47C5203EA101341
:101260006FF31F30B1F5407F08BF1A430025C8F85F
:101270000020D8F860100843C8F8600039E5000085
:101280002DE9F04381B0002800F0198142F20008F6
:101290000446C5F200288946D8F8000000F00F0087
:1012A00081420ED9D8F8000020F00F0040EA090072
:1012B000C8F80000D8F8000000F00F00484540F0E2
:1012C000FE80206844F210474107C5F602070AD5A0
:1012D0002169BA6802F07002914204D9BA6822F01A
:1012E00070021143B96001070AD56169FA6802F01A
:1012F0007002914204D9FA6822F070021143F96039
:10130000C1060AD5A169FA6802F4E062914204D9E3
:10131000FA6822F4E0621143F96081060AD5E169B6
:101320003A6902F07002914204D93A6922F07002DF
:101330001143396110F002010AD0E268BB6803F082
:101340000F039A4204D9BB6823F00F031A43BA6013
:10135000C20736D0B86820F47061D4E901021143A5
:10136000B960012857F8101C09D0032804D00228BE
:1013700008D1890309D4A2E0890106D49FE0C905F8
:1013800003D49CE0490740F19A80396821F00701B5
:1013900008433860FFF790F9064641F2883500BFF0
:1013A0003868616800F03800B0EBC10F06D0FFF775
:1013B00083F9801BA842F3D9032081E0206800F064
:1013C000020151B1E168BA6802F00F02914204D201
:1013D000BA6822F00F021143B960D8F8001001F08A
:1013E0000F0189450DD2D8F8001021F00F0141EA14
:1013F0000901C8F80010D8F8001001F00F014945A4
:101400005DD141070AD52169BA6802F070029142A4
:1014100004D2BA6822F070021143B96001070AD5FC
:101420006169FA6802F07002914204D2FA6822F00F
:1014300070021143F960C1060AD5A169FA6802F485
:10144000E062914204D2FA6822F4E0621143F9604A
:1014500080060AD5E069396901F07001884204D23A
:10146000396921F070010843386100F091F8B968DA
:1014700043F63232C0F60002C1F30321515CBB686F
:1014800003F00F0301F01F01D25C20FA01F102F01A
:101490001F0040F20402C2F2000221FA00F01060C4
:1014A00040F20C0040F20002C2F20000C2F2000260
:1014B0000068116001B0BDE8F043FFF741B90120B9
:1014C00001B0BDE8F0833F22026044F21842C5F645
:1014D000020252F8083C03F007034360136803F468
:1014E00070638360136803F00F03C360136803F035
:1014F00070030361536803F070034361536803F49E
:10150000E0638361926802F07002C26142F20000FF
:10151000C5F20020006800F00F000860704780B539
:1015200000F036F844F2184143F63233C5F60201B2
:10153000C0F600030A68C2F303229A5C096801F04E
:101540000F0102F01F02595C20FA02F201F01F00A5
:1015500040F20401C2F2000122FA00F0086040F2F9
:101560000001C2F200010A6080BD80B5FFF7D7FF1D
:1015700044F21C4143F63232C5F60201C0F60002C5
:101580000968C1F30221515C01F01F01C84080BD10
:1015900044F20041C5F602010869C0F3C200032805
:1015A00014D002280DD088BB0868800649F20000DC
:1015B000C0F2D03058BF70470968C1F3C101C840BC
:1015C000704747F64000C0F27D1070478B6A886A0A
:1015D000D1F82CC04A6BC0F30510E0B1C2F3CC02C5
:1015E00003F0030300EE102A9FED291AB8EE400A1B
:1015F00020EE010A9FED271ADFE803F0021F0F1FFC
:101600000A6892060CD49FED251A16E040F60010E9
:10161000C0F23D007047002070479FED1F1A0CE09C
:101620000A6849F20003C0F2D033C2F3C10223FAC0
:1016300002F201EE102AB8EE411A0A6B9FED183A39
:101640006FF35F2202EE102A5FEACC7203FE000AFB
:1016500003EE100A086BB8EE422AC0F34620B8EE3B
:10166000433A013030EE020AB7EE002A81EE031A47
:1016700030EE020A21EE000A01EE100AB8EE411A1D
:1016800080EE010ABCEEC00A10EE100A704700BFDF
:10169000000000390024744A20BCBE4B0024744C66
:1016A0000000000058B3F0B581B00446007844F261
:1016B0000046C007C5F6020623D12078800769D509
:1016C000306910F03801B06A42D0182908BF5FEACB
:1016D00080703DD0E0683168002800F03B8121F047
:1016E000190108433060FEF7E7FF05463068400700
:1016F00049D4FEF7E1FF401B0228F7D973E101202E
:101700007047306900F03801B06A102905D01829F7
:101710000AD100F00300022806D130688003CCD53E
:1017200060680028C9D1C0E061683068002900F015
:101730005D81B1F5A02F00F04381B1F5803F00F04D
:10174000438120F480303060306820F480203DE117
:1017500030684007E06802D5002800F0A6803168B4
:1017600021F0190108433060FEF7A6FF054600BFCF
:101770003068400707D4FEF79FFF401B02284FF058
:101780000300F5D930E17068216920F0FE4040EA9D
:10179000016070602078C0061AD5306900F0380109
:1017A000B06A082907D0182940F0968000F003009D
:1017B000012840F091803068C00502D5E06980289A
:1017C00073D1F068216A20F07C5040EA0160F0603B
:1017D0002078000755D42078800668D42078400708
:1017E00000F19280656A002D49D0306900F0380020
:1017F000182840F02381012DB16A306B55D001F0DB
:101800000302A36A9A4250D1C1F30511E26A9142E0
:101810004BD10146226B6FF35F21013A914244D1D3
:10182000C0F34622616B01398A423ED1C0F30642C1
:10183000A16B01398A4238D1C0F30660E16B0139EE
:10184000884232D1706BA16CC0F3CC00814216D0BB
:10185000F06A20F00100F062FEF72EFF0546FEF769
:101860002BFFA842FBD0706B4FF6F871A26C884337
:1018700040EAC2007063F06A40F00100F0620020AC
:10188000B2E060690028706F52D040F001007067CC
:10189000FEF712FF054600BF706F80079BD4FEF76E
:1018A0000BFF401B0228F7D99DE001209CE0A069B6
:1018B0000028306872D040F480503060FEF7FCFEA3
:1018C000054600BF306880043FF588AFFEF7F4FEA0
:1018D000401B0228F6D986E0E0690028306800F055
:1018E0009B8040F080003060FEF7E6FE054600BFBA
:1018F0003068C0053FF565AFFEF7DEFE401B0228ED
:101900004FF00300F4D96FE0D6F8000440F4807083
:10191000C6F80004FEF7D0FE054600BFD6F8000466
:10192000C00529D4FEF7C8FE401B6428F6D95AE04A
:1019300020F001007067FEF7BFFE0546706F80075C
:101940007FF549AFFEF7B8FE401B02284FF00300B9
:10195000F4D949E021F001003060FEF7ADFE054604
:10196000306840077FF516AFFEF7A6FE401B022841
:101970004FF00300F4D937E0A168306F002900F080
:101980009780052900F07C80012900F07D8020F0FF
:1019900001003067306F20F0040077E020F48050C1
:1019A0003060FEF789FE0546306880047FF516AF8B
:1019B000FEF782FE401B02284FF00300F4D913E02B
:1019C00040F480203060306840F480303060FEF7B2
:1019D00073FE0546306880033FF56FAEFEF76CFE80
:1019E000401B6428F6D9032001B0F0BD20F48030FC
:1019F0003060306820F480203060FEF75DFE0546E0
:101A0000306880037FF559AEFEF756FE401B642810
:101A10004FF00300F4D9E7E720F080003060FEF7D4
:101A20004BFE05463068C0057FF5D2AEFEF744FE9A
:101A3000401B02284FF00300F4D9D5E7306820F0AE
:101A400080703060FEF738FE022D05460CD100BFD5
:101A50003068800144D5FEF72FFE401B02284FF06E
:101A60000300F5D9C0E700BF306880017FF507AFFC
:101A7000FEF722FE401B02284FF00300F4D9B3E723
:101A800040F004003067306F40F001003067FEF72F
:101A900013FE054641F28837306F80073FF5A2AE4E
:101AA000FEF70AFE401BB8424FF00300F4D99BE753
:101AB00020F001003067306F20F004003067FEF73F
:101AC000FBFD054641F28837306F80077FF58AAE0F
:101AD000FEF7F2FD401BB8424FF00300F4D983E754
:101AE00004F12807B06A40F2F33188438ECF0843EF
:101AF000591E40EA02104FF47E426FF35F21B0623C
:101B000002EB47204FF4FE0280B2E36B0844A16B66
:101B100002EB01414FF0FE4201F4FE0102EB0362D1
:101B2000084402F0FE4108443063F06A4FF6F87151
:101B300020F00100F062706BA26C884340EAC200A2
:101B40007063F06A216C20F00C000843F062F06AC8
:101B5000616C20F002000843F062F06A40F48030CB
:101B6000F062F06A40F40030F062F06A40F48020E5
:101B7000F062F06A40F00100F062306840F080707E
:101B80003060FEF799FD0446306880013FF577AE7E
:101B9000FEF792FD001B02284FF00300F4D923E763
:101BA00070477047704760B310B5044690F83D0029
:101BB00028B9002084F83C00204600F024F80220D8
:101BC00084F83D002068211D01F0BEF9012084F851
:101BD000480084F83E0084F83F0084F8400084F810
:101BE000410084F8420084F8430084F8440084F8FB
:101BF000450084F8460084F8470084F83D00002042
:101C000010BD01207047704790F83D10012922D186
:101C1000022180F83D1001684DF6FF70C4F200000B
:101C20008142C86840F00100C86016DC40F2FF70D5
:101C3000C4F20000814226DD40F60000C4F200003C
:101C4000814232D040F60040C4F2000081422CD0E4
:101C500041F6000025E0012070474FF6FF70C4F206
:101C60000000814215DD0020C4F2010081421CD039
:101C700044F20000C4F20100814216D040F200405C
:101C8000C4F201000FE0B1F1804F0ED040F20040ED
:101C900007E04EF20000C4F20000814205D04EF28F
:101CA0000040C4F2000081420BD107228868C0F2D4
:101CB000010202400020062A18BFB2F5803F00D181
:101CC0007047086840F001000860002070477047C6
:101CD000F0B581B004460068C5680669B10716D53D
:101CE00015F0020113D06FF002010161012121778B
:101CF0008069800703D02046FFF7E9FF05E0204612
:101D000000F096F8204600F094F800202077700745
:101D100018D515F0040015D020686FF0040101619A
:101D200002212177806910F4407F03D02046FFF71D
:101D3000CEFF05E0204600F07BF8204600F079F861
:101D400000202077300717D515F0080014D0206840
:101D50006FF00801016104212177C069800703D079
:101D60002046FFF7B4FF05E0204600F061F820466A
:101D700000F05FF800202077F00618D515F010006D
:101D800015D020686FF01001016108212177C0692A
:101D900010F4407F03D02046FFF799FF05E020466E
:101DA00000F046F8204600F044F800202077F007C5
:101DB00018BF15F0010006D020686FF00101016125
:101DC000204600F037F805F0800716F4025F18BFD0
:101DD000002F06D020686FF4025101612046FFF702
:101DE000E0FEF00507D537B120686FF4807101611E
:101DF0002046FFF7D5FE700609D515F0400006D045
:101E000020686FF040010161204600F01DF8B00627
:101E10000CD515F0200009D020686FF02001016179
:101E2000204601B0BDE8F040FFF7BCBE01B0F0BDF8
:101E30007047704744F600010068C4F2010188420F
:101E400018BF7047FEF73EBC70470000FEE7000079
:101E50002DE9F0470B6893FAA3F2B2FA82F233FA53
:101E600002F654D04FF0010C0CFA02F613EA060405
:101E700049D04E6804FB04FE751E022D16D2D0F820
:101E800008800EEB4E05D1E9027907FB0EFA28EA2D
:101E90000507ED4347EA0A078760D0F8048009FB8D
:101EA00003F728EA03033B43436002E00EEB4E03D3
:101EB000DD430B69C7682F40022E03FB0EF343EA94
:101EC0000703C36017D1230AB4F5807F03FB03F334
:101ED0004FF0240403FB03F33CBF20240EFB0EF35E
:101EE000D1F814800759C3EB031608FB03F327EA64
:101EF000060633430351D1E90034066804FB0EF7AC
:101F00002E4037430760013233FA02F7ACD100208C
:101F1000BDE8F08710B544F200444FF0000EC5F65E
:101F20000204A26A02F00302DFE802F0020F161EAA
:101F30002268520718D5226849F20003C0F2D03354
:101F4000C2F3C10223FA02FE0EE0226840F600133B
:101F5000D205C0F23D0305E0226847F64003920334
:101F6000C0F27D1303EAE27E00228260C0E9002213
:101F7000A36A226BE16AC907C3F3051302D19FED7F
:101F80003F0A0AE0616B9FED3E1AC1F3CC0100EEFF
:101F9000101AB8EE400A20EE010A002B6CD06FF345
:101FA0005F22E16AC90302F1010C1FD501EE10EABC
:101FB00002EE103A03EE10CA216BC1F34621B8EECF
:101FC000411AB8EE422A0131B8EE433A81EE021AC4
:101FD00030EE032A21EE021A02EE101AB8EE422A5F
:101FE00081EE021ABCEEC11A80ED001AE16A890383
:101FF0001FD501EE10EA02EE103A03EE10CA216B73
:10200000C1F30641B8EE411AB8EE422A0131B8EEEA
:10201000433A81EE021A30EE032A21EE021A02EE52
:10202000101AB8EE422A81EE021ABCEEC11A80EDF7
:10203000011AE16A49031FD501EE10EA02EE103AD7
:1020400003EE10CA216BC1F30661B8EE411AB8EE77
:10205000422A0131B8EE433A81EE021A30EE030A09
:1020600021EE000A01EE101AB8EE411A80EE010AC4
:10207000BCEEC00A80ED020A10BD00BF00000000E7
:102080000000003910B544F200444FF0000EC5F6D0
:102090000204A26A02F00302DFE802F0020F161E39
:1020A0002268520718D5226849F20003C0F2D033E3
:1020B000C2F3C10223FA02FE0EE0226840F60013CA
:1020C000D205C0F23D0305E0226847F640039203C3
:1020D000C0F27D1303EAE27E00228260C0E90022A2
:1020E000A36AA26BE16AC906C3F3053302D49FED6C
:1020F0003F0A0AE0E16B9FED3E1AC1F3CC0100EE0E
:10210000101AB8EE400A20EE010A002B6CD06FF3D3
:102110005F22E16A090302F1010C1FD501EE10EA0A
:1021200002EE103A03EE10CAA16BC1F34621B8EEDD
:10213000411AB8EE422A0131B8EE433A81EE021A52
:1021400030EE032A21EE021A02EE101AB8EE422AED
:1021500081EE021ABCEEC11A80ED001AE16AC902D2
:102160001FD501EE10EA02EE103A03EE10CAA16B81
:10217000C1F30641B8EE411AB8EE422A0131B8EE79
:10218000433A81EE021A30EE032A21EE021A02EEE1
:10219000101AB8EE422A81EE021ABCEEC11A80ED86
:1021A000011AE16A89021FD501EE10EA02EE103A27
:1021B00003EE10CAA16BC1F30661B8EE411AB8EE86
:1021C000422A0131B8EE433A81EE021A30EE030A98
:1021D00021EE000A01EE101AB8EE411A80EE010A53
:1021E000BCEEC00A80ED020A10BD00BF0000000076
:1021F0000000003910B544F200444FF0000EC5F65F
:102200000204A26A02F00302DFE802F0020F161EC7
:102210002268520718D5226849F20003C0F2D03371
:10222000C2F3C10223FA02FE0EE0226840F6001358
:10223000D205C0F23D0305E0226847F64003920351
:10224000C0F27D1303EAE27E00228260C0E9002230
:10225000A36A226CE16AC905C3F3055302D49FED5A
:10226000400A0AE0616C9FED3F1AC1F3CC0100EE19
:10227000101AB8EE400A20EE010A002B6FD0BEF112
:10228000000F6CD06FF35F22E16A490202F1010C8A
:102290001FD501EE10EA02EE103A03EE10CA216CCF
:1022A000C1F34621B8EE411AB8EE422A0131B8EE28
:1022B000433A81EE021A30EE032A21EE021A02EEB0
:1022C000101AB8EE422A81EE021ABCEEC11A80ED55
:1022D000001AE16A09021FD501EE10EA02EE103A77
:1022E00003EE10CA216CC1F30641B8EE411AB8EEF4
:1022F000422A0131B8EE433A81EE021A30EE032A47
:1023000021EE021A02EE101AB8EE422A81EE021AEB
:10231000BCEEC11A80ED011AE16AC9011FD501EEB8
:1023200010EA02EE103A03EE10CA216CC1F3066106
:10233000B8EE411AB8EE422A0131B8EE433A81EEC6
:10234000021A30EE030A21EE000A01EE101AB8EE6E
:10235000411A80EE010ABCEEC00A80ED020A10BDEF
:10236000000000000000003910B584B040F24421A4
:102370000246C0F30423C0F2580161F31F2244F265
:102380000044010EC5F60204D26C99401140D940B8
:1023900040EA01410720C0F2037081424FF0000083
:1023A00016DC40F20732C0F20172914227DC0822AB
:1023B000C0F20072914267D040F20832C0F200725F
:1023C00091427DD00822C0F20172914246D092E043
:1023D00040F20732C0F20472914228DC0822C0F2B7
:1023E000037291424BD040F20832C0F20372914224
:1023F00045D00822C0F20472914237D07BE040F20F
:102400000832C0F20172914228D00822C0F2027252
:10241000914205D040F20832C0F2027291426AD174
:10242000206880002ED501A8FFF7E4FE1CE040F2F2
:102430000832C0F20472914218D00822C0F205722C
:10244000914205D040F20832C0F20572914252D159
:10245000206F4FF4004101EA80304CE02068000119
:1024600010D501A8FFF70EFE029844E0206840F660
:102470000011C005C0F23D0101EAE0703BE02068B8
:10248000400713D4002036E000F04CFCA16943F66D
:102490004232C0F60002C1F30321515CA36903F08C
:1024A0000F03D35CE469C4F302141AE0206849F214
:1024B0000001C0F2D031C0F3C10021FA00F01AE0EF
:1024C00000F030FCA16943F64232C0F60002C1F3CD
:1024D0000321515CA36903F00F03D35CE469C4F3E7
:1024E0000224125D01F01F01C84003F01F01C84023
:1024F00002F01F01C84004B010BD0000B0B5044692
:102500000068C0073BD10D4646F6F31105F10803FC
:102510002068CEF6FF7108400ECB08436969184366
:10252000EB690843082118432060606847F6FF33D1
:1025300020F44050C4F2000310436060A869A26810
:1025400022F44072C0F2007110439C42A0604FF030
:10255000010016DC44F6FF32C4F20002944227DD8B
:1025600044F60042C4F2000294423DD045F200021B
:10257000C4F20002944237D047F6000220E0012066
:10258000B0BD41F2FF32C4F20102944201F5407243
:102590001BDD41F20041C4F201018C4223D041F61F
:1025A0000001C4F201018C421DD041F6004114E04B
:1025B00044F20042C4F20002944215D044F60002F4
:1025C000C4F2000294420FD035E047F60043C4F253
:1025D00000039C4208D041F20001C4F201018C4288
:1025E000114601D027E011460846FFF7BDFEC8B1ED
:1025F0006968B9B12A680B2A1CD812A353F82220A3
:10260000B0FBF2F0EA69B2F5004F0DD1400000EBEB
:102610005100B0FBF1F04FF6F0710140C0F3420001
:10262000084406E0012006E000EB5100B0FBF1F0A9
:1026300080B2E06000202988E26A22F00F02114394
:10264000E162B0BD010000000200000004000000D3
:1026500006000000080000000A0000000C00000056
:10266000100000002000000040000000800000007A
:102670000001000081B044F2E040C5F602000168AC
:1026800041F080010160016801F080010091009932
:10269000016841F001010160016801F00101009150
:1026A0000099016841F002010160016801F0020136
:1026B00000910099016841F004010160006800F098
:1026C00004000090009801B070470000F0B5BDB064
:1026D00034A820212025FDF7CAFE2EA81821FDF7D9
:1026E000C6FE6C46B02104F10800FDF7C0FE0120D3
:1026F0000090204600260196FEF744F908B1FDF748
:10270000B5FF44F2E04041F20004C5F60200C4F215
:1027100001040427016941F010010161016901F020
:1027200010013C913C99016841F002010160006890
:102730002EA900F002003C903C984FF440402E90AF
:102740000220CDE92F0640F200403196C5F6020086
:1027500032963397FFF77CFB4EF60C500522CEF2F3
:1027600000000068C0F3022080F00701042938BF90
:102770000F4603384FF0FF3138BF3046B94022EAE8
:10278000010101FA00F04EF22541CEF200010001F4
:1027900008704EF20410CEF2000034A905604FF428
:1027A000E1303496CDE935060C203B96CDE939066B
:1027B0002046CDE93766FFF7A1FE41F20800C4F2DA
:1027C000010000BF50E8001F21F0604140E8001206
:1027D000002AF7D150E8001F21F0606140E80012A4
:1027E000002AF7D1206820F000502060606820F4B3
:1027F00090406060A06820F02A00A060206840F04F
:1028000001002060E0698002FCD5E0694002F9D552
:102810003DB0F0BDF0B5BDB034A82021FDF727FED6
:102820002EA81821FDF723FE6C46B02104F1080004
:10283000FDF71DFE20460025019502270097FEF7B3
:10284000A1F808B1FDF712FF44F2E04044F2004461
:10285000C5F602000C26C4F20004816841F4003180
:102860008160816801F400313C913C99016841F03C
:102870000101016000682EA900F001003C903C9825
:10288000072033900020C5F602003295CDE92E676F
:10289000CDE93055FFF7DCFA4EF60C504FF0FF3221
:1028A000CEF200000068C0F3022080F00701042986
:1028B00028BF0421033838BF284602FA01F1052257
:1028C00022EA010101FA00F04EF22641CEF20001A7
:1028D000000108704EF20410CEF2000040210160A9
:1028E0004FF4E13034A9CDE9350520463495CDE9E2
:1028F0003755CDE939653B95FFF700FE44F20840B6
:10290000C4F2000050E8001F21F0604140E80012CE
:10291000002AF7D150E8001F21F0606140E8001262
:10292000002AF7D1206820F000502060606820F471
:1029300090406060A06820F02A00A060206840F00D
:1029400001002060E0698002FCD5E0694002F9D511
:102950003DB0F0BDB0B5BEB035A82021FDF787FD74
:102960002FA81821FDF783FD6C46B02104F1080063
:10297000FDF77DFD01200090204600250195FEF722
:1029800001F808B1FDF772FE44F2E04041F2004464
:10299000C5F60200C4F20104016941F020010161A1
:1029A000016901F020013D913D99016841F0040168
:1029B000016000682FA900F004003D903D98C02000
:1029C0002F900220CDE930050720349040F600001A
:1029D0003295C5F602003395FFF73AFA4EF60C50E1
:1029E0004FF0FF32CEF200000068C0F3022080F00A
:1029F0000701042928BF0421033838BF284602FAFA
:102A000001F1052222EA010101FA00F04EF24741EC
:102A1000CEF20001000108704EF20810CEF2000064
:102A2000802101604FF4E13035A9CDE936050C2055
:102A30003595CDE93A0520463C95CDE93855FFF767
:102A40005DFD41F20840C4F2010000BF50E8001FE4
:102A500021F0604140E80012002AF7D150E8001F41
:102A600021F0606140E80012002AF7D1206820F0D0
:102A700000502060606820F490406060A06820F002
:102A80002A00A060206840F001002060E069800218
:102A9000FCD5E0694002F9D53EB0B0BDFEE70000CC
:102AA000FEE7000000000000000000000000000041
:102AB000EFF30980BFF36F8F154B1A681EF0100FEC
:102AC00008BF20ED108A20E9F04F10602DE90900C1
:102AD0004FF0500080F31188BFF34F8FBFF36F8F1B
:102AE00000F0F6FE4FF0000080F31188BDE8090009
:102AF00019680868B0E8F04F1EF0100F08BFB0EC7E
:102B0000108A80F30988BFF36F8F704700BF00BF42
:102B100030020020F0B581B044F20047C5F602074C
:102B2000BA6A02F00302032A01D1012073E00546CC
:102B300038680C4620F080603860FDF7BDFD064621
:102B40003868000105D5FDF7B7FD801B0228F7D9CD
:102B50005EE0B86AEE6895E80E0020F47C30012C47
:102B600040EA0130A2F101016FF35F214FF47E4290
:102B700002EB4322B86292B24FF0FE4302EB010037
:102B80004FF4FE012A6901EB064101F4FE0103EB5B
:102B90000262084402F0FE410844B863F86A6969B9
:102BA00020F0C00040EA0100F862F86AA96920F04C
:102BB000200040EA0100F862F86A4FF6F87120F050
:102BC0001000F862F86BEA6920EA01004FF4001186
:102BD00040EAC200F863F86A08BF4FF4801140F081
:102BE0001000002CF86208BF4FF40021F86A084377
:102BF000F862386840F080603860FDF75DFD04469B
:102C00003868000106D4FDF757FD001B0328F7D3F1
:102C1000032000E0002001B0F0BD0000F0B581B05D
:102C200044F20047C5F60207BA6A02F00302032A1B
:102C300001D1012073E0054638680C4620F0805031
:102C40003860FDF739FD06463868800005D5FDF788
:102C500033FD801B0228F7D95EE0B86AEE6895E87C
:102C60000E0020F07C70012C40EA0150A2F101011D
:102C70006FF35F214FF47E4202EB4322B86292B2BF
:102C80004FF0FE4302EB01004FF4FE012A6901EB15
:102C9000064101F4FE0103EB0262084402F0FE412A
:102CA00008443864F86A696920F4406040EA010029
:102CB000F862F86AA96920F4007040EA0100F8623D
:102CC000F86A4FF6F87120F48070F862786CEA695F
:102CD00020EA01004FF0807140EAC2007864F86A8F
:102CE00008BF4FF4000140F48070002CF86208BF68
:102CF0004FF48001F86A0843F862386840F0805069
:102D00003860FDF7D9FC04463868800006D4FDF72A
:102D1000D3FC001B0328F7D3032000E0002001B000
:102D2000F0BD000044F20040C5F602000169C1F3A5
:102D3000C20103291FD8DFE801F002190C11006855
:102D400049F20001C0F2D031C0F3C10021FA00F015
:102D5000704747F64000C0F27D10704780B584B0E0
:102D600001A8FFF7D7F8019804B080BD40F6001025
:102D7000C0F23D00704700207047000000000000D6
:102D8000074B19680868B0E8F04F80F30988BFF373
:102D90006F8F4FF0000080F31188704700BF00BFB5
:102DA0003002002080B54EF21000CEF20000006824
:102DB00000F0ECFD012808BF80BDBDE8804000F0B8
:102DC000CEBD000010B59CB044F6180409A84C21F3
:102DD000C5F60204FDF74BFB01A82021FDF747FBD8
:102DE0000220FDF7ABFD00200090206820F4404059
:102DF0002060206800F44040009000982068800423
:102E0000FCD50120099016224FF48031CDE9152020
:102E10000C20199009A80A9102211491CDE91211F0
:102E2000CDE917110024CDE91A44FEF73BFC20B18F
:102E3000EFF3108072B600BFFEE73F200190032041
:102E40004FF48061CDE9020440200494CDE90500EF
:102E5000CDE9071001A80321FEF712FA18B1EFF32C
:102E6000108072B6FEE71CB010BD4EF6885042F2DC
:102E7000000CCEF20000C5F2002C026842F4700291
:102E80000260DCF8000000F00F00062806D8DCF82D
:102E90000000072262F30300CCF8000044F2004077
:102EA0004EF67F51C5F60200CEF6F621026842F0DA
:102EB0000102026000220261036819400160DCF82F
:102EC0000010090706D5DCF80010072363F303019F
:102ED000CCF8001040F200218261C261C0F20221F0
:102EE000026281620021C0F2FF11C16240F28021C2
:102EF000C0F20111016342638163C26301644264F1
:102F0000016821F4802101600266D0F8D410C90460
:102F100048BF7047D0F8D41043F2D20241F4805138
:102F2000C0F8D41044F20001C5F200210A60D0F8C4
:102F3000D41021F48051C0F8D410704740F2D8105A
:102F4000C2F20000FEF7C4BE10B540F6FF32D0F862
:102F500000E0C4F2000290420DDCB0F1804F1BD0C3
:102F600040F20043C4F20003984215D040F600033B
:102F7000C4F200030EE040F60043C4F2000398429E
:102F80000AD040F20043C4F20103984204D0002367
:102F9000C4F20103984204D12EF070024B6843EA58
:102FA000020E4EF2FF3343F6FF7CC4F20003C4F27C
:102FB000010C98420FDD604522DC4EF20043C4F262
:102FC0000003984236D00023C4F20103984231D066
:102FD00040F2004322E040F2FF73C4F20003984243
:102FE0001FDD40F60003C4F20003984222D040F6F1
:102FF0000043C4F2000398421CD04EF2000315E0D7
:1030000044F20003C4F20103984213D044F60003D3
:10301000C4F2010398420DD044F20043C4F201030C
:1030200006E0B0F1804F05D040F20043C4F2000347
:10303000984204D12EF44072CB6843EA020E4B69E9
:1030400060450A688C68C46282620EDD44F2000248
:10305000C4F20102904213D044F60002C4F201020D
:1030600090420DD044F2004206E00022C4F2010278
:10307000904205D040F20042C4F20102904201D1D8
:1030800009690163016841F00401016001214161A6
:103090002EF080011943016010BD00F0CFBA00F09E
:1030A00031BB00F093BB0000FEE780B5012000F0CB
:1030B000BFF940F29861C2F20001086080BD03C808
:1030C00044F64E42C0F24302000A82EA112240EA6C
:1030D000016042F62B31C4F2437148401043B0FA0C
:1030E00080F04009704710B500F046FAD0F808E0CB
:1030F000BEF1000F25D0714651F828CF44F64E425C
:103100004B68C0F2430282EA13244FEA1C2242EACF
:10311000036242F62B33C4F243735A4022430CD16C
:10312000DEF82420013ACEF8242008D1DEF8202051
:1031300082600020CEF8200001E000228260084674
:1031400010BD00F0C5F900002DE9F04F81B040F24C
:10315000C01A40F2500940F27C080C468346C2F285
:10316000000AC2F20049C2F2000800BFDAF800000B
:10317000D9F80050461B38BF4036A64228BF264625
:10318000EEB1A84208EB05010CD8C5F14007BE42DC
:1031900008D958463A46FDF725F90BEB0700F21B14
:1031A000414601E058463246FDF71CF9D9F80000C7
:1031B000A842DBD1701900F03F00C9F8000030468A
:1031C00001B0BDE8F08F00002DE9F04F81B040F272
:1031D000C41A40F2540940F2BC080C468346C2F2BD
:1031E000000AC2F20049C2F2000800BFDAF800008B
:1031F000D9F80050461B38BF4036A64228BF2646A5
:10320000EEB1A84208EB05010CD8C5F14007BE425B
:1032100008D958463A46FDF7E5F80BEB0700F21BD4
:10322000414601E058463246FDF7DCF8D9F8000087
:10323000A842DBD1701900F03F00C9F80000304609
:1032400001B0BDE8F08F00002DE9F04F81B040F2F1
:10325000C81A40F2580940F2FC080C468346C2F2F4
:10326000000AC2F20049C2F2000800BFDAF800000A
:10327000D9F80050461B38BF4036A64228BF264624
:10328000EEB1A84208EB05010CD8C5F14007BE42DB
:1032900008D958463A46FDF7A5F80BEB0700F21B94
:1032A000414601E058463246FDF79CF8D9F8000047
:1032B000A842DBD1701900F03F00C9F80000304689
:1032C00001B0BDE8F08F06280BD0022805D00128F8
:1032D0000BD108461146FFF737BF08461146FFF7E6
:1032E00073BF08461146FFF7AFBF002070470000CC
:1032F000B0B50128144664D0022832D0062840F028
:10330000928040F24C000122C2F20040D0E84F5FB0
:10331000C0E8432F002BF9D1E80740F08180402C12
:1033200040F2801028BF4024C2F200002246FDF780
:1033300059F840F2D4100021C2F20000046040F2BB
:103340006400C2F20040016041F20040C4F201009A
:1033500050E8001F41F0800140E80012002AF7D138
:103360005EE040F27C100122C2F20000D0E84F5F24
:10337000C0E8432F002BF9D1E80751D1402C40F28F
:103380000C0028BF4024C2F200402246FDF72AF874
:1033900040F2D0100021C2F20000046040F2600050
:1033A000C2F20040016044F20040C4F2000000BFDD
:1033B00050E8001F41F0800140E80012002AF7D1D8
:1033C0002EE040F208000122C2F20040D0E84F5F38
:1033D000C0E8432F002BF9D1E80721D1402C40F25F
:1033E0003C1028BF4024C2F200002246FCF7FAFF3E
:1033F00040F2CC100021C2F20000046040F25C00F8
:10340000C2F20040016041F20000C4F2010000BFBE
:1034100050E8001F41F0800140E80012002AF7D177
:1034200085F0010000E0002000F00100B0BD0000C8
:103430000138C0B2052803D802A151F82000704716
:10344000002070477C000020BC000020000000002D
:103450000000000000000000FC00002080B5804754
:1034600004A000F0E8F800F051F80CA000F0E3F838
:1034700000F046F87465726D696E6174655F68612D
:103480006E646C657220756E6578706563746564D2
:103490006C792072657475726E6564007465726D06
:1034A000696E6174655F68616E646C657220756ECB
:1034B00065787065637465646C792074687265778B
:1034C00020616E20657863657074696F6E0000001E
:1034D00010B500F056F808B1046834B940F20000A5
:1034E000C2F200400068FFF7B9FF04F12800FFF7BF
:1034F000E6FD0028F2D06069FFF7B0FF00F000F8A9
:1035000080B500F003F8FFF7E3FF000070B5D0E9E5
:103510000065044600F030F844F64E41320A42F6A7
:103520002B33C0F2430142EA0562C4F2437381EADD
:1035300015215A401143A4F1280112D154F80C2C42
:10354000002A48BF524203680132994244F80C2CC9
:103550001CBF44F8103C0160416801394160606A59
:1035600070BD0268002A02BF016004F1580070BDFE
:10357000FFF7AEFFFFF7C4FF40F27000C2F2000099
:10358000704740F27000C2F20000704710B540F280
:1035900024240120C2F200040C222146FFF793FEEE
:1035A00040F2080040F29861C2F20000C2F200014D
:1035B000027840F268000968C2F20040FCF712FF8E
:1035C00001200C222146BDE81040FFF791BE00000B
:1035D00084B001200090FDF731F90020019048F2FD
:1035E0001F70029040F2011003906846FDF7F7F853
:1035F0000420FDF730F9FDF772F8FFF7E3FBFFF762
:1036000039F8FFF763F8FFF705F9FFF7A3F941F27F
:103610000000C4F2010000BF50E8001F41F020018B
:1036200040E80012002AF7D1FFF7B0FF4FF47A709C
:10363000FDF72EF8F8E780B5FCF75AFF80B581B0AA
:1036400041F21C00C4F201000168090706D50821F7
:10365000416081688DF803109DF8031001688906A8
:103660001ED540F2C01C40F25001C2F2000CC2F262
:103670000041DCF800200968531C03F03F038B4233
:1036800005D181688DF802109DF8021008E040F223
:103690007C0E8168C2F2000E0EF80210CCF80030E9
:1036A000016809062CD540F2CC11C2F200010A686B
:1036B000A2B140F25C0C40F23C12C2F2004CC2F2E9
:1036C0000002DCF80030D25CC260581C00F03F0001
:1036D000CCF8000008680138086011E041F20000F1
:1036E000C4F2010050E8001F21F0800140E8001200
:1036F000002AF7D140F208000021C2F20040017018
:1037000001B080BD80B581B044F21C40C4F200001D
:103710000168090706D50821416081688DF803100A
:103720009DF80310016889061ED540F2C41C40F2C2
:103730005401C2F2000CC2F20041DCF8002009681A
:10374000531C03F03F038B4205D181688DF80210B2
:103750009DF8021008E040F2BC0E8168C2F2000E33
:103760000EF80210CCF80030016809062CD540F2A2
:10377000D011C2F200010A68A2B140F2600C40F21E
:103780000C02C2F2004CC2F20042DCF80030D25C03
:10379000C260581C00F03F00CCF8000008680138F7
:1037A000086011E044F20040C4F2000050E8001F3D
:1037B00021F0800140E80012002AF7D140F27C108D
:1037C0000021C2F20000017001B080BD80B581B05F
:1037D00041F21C40C4F201000168090706D5082126
:1037E000416081688DF803109DF803100168890617
:1037F0001ED540F2C81C40F25801C2F2000CC2F2C1
:103800000041DCF800200968531C03F03F038B42A1
:1038100005D181688DF802109DF8021008E040F291
:10382000FC0E8168C2F2000E0EF80210CCF80030D7
:10383000016809062CD540F2D411C2F200010A68D1
:10384000A2B140F2640C40F28012C2F2004CC2F20B
:103850000002DCF80030D25CC260581C00F03F006F
:10386000CCF8000008680138086011E041F200401F
:10387000C4F2010050E8001F21F0800140E800126E
:10388000002AF7D140F24C000021C2F20040017042
:1038900001B080BD0169D0E90132D1F804C09A605D
:1038A0008445536008BF4A600022026108680138FD
:1038B000086008687047D0F800C043684B609A6899
:1038C0008A609960516008610CF1010101607047E4
:1038D00040F2A060C2F20000006830B140F2B400D3
:1038E0000121C2F200400160704740F2B40040F292
:1038F000AC0CC2F20040C2F2004C002140F238236E
:103900000160C2F20003DCF8001001EB810253F801
:10391000220003EB8202B0B15068436802F1080054
:103920008342536001D15B68536040F23020DA6813
:10393000C2F200000260CCF80010704752F8140D7B
:1039400001390028E8D10029F8D14FF0500080F368
:103950001188BFF36F8FBFF34F8F00BFFEE780B5B5
:103960004FF0500080F31188BFF36F8FBFF34F8F7C
:1039700000F01EF830B14EF604504FF08051CEF2F8
:1039800000000160002080F3118880BD40F2AC602F
:10399000C2F20000006848B140F2A060C2F200002C
:1039A0000068B0FA80F0400940007047012070477D
:1039B0002DE9F04F81B040F2A060C2F20000006833
:1039C00040B140F2A8600024C2F200000168013159
:1039D00001609DE040F2B060C2F2000001684E1C40
:1039E00006602ED340F2A800C2F2004001680968C8
:1039F00049B14FF0500080F31188BFF36F8FBFF3D0
:103A00004F8F00BFFEE740F234220168C2F200028D
:103A100013680360116040F2B001C2F200410A680D
:103A200001320A600168096821B10068C068C06895
:103A3000406801E04FF0FF3040F2A461C2F20001A3
:103A4000086040F2A46140F2302AC2F2000140F264
:103A50003828C2F2000AC2F200080868864201D281
:103A6000002443E040F2A8070024C2F2004738686F
:103A70000068C0B340F2AC0BC2F2004B3868C068BB
:103A8000D0F80C904D4655F8040F864226D32846B0
:103A9000FFF700FFD9F8280018B109F11800FFF767
:103AA000F9FED9F82C00DBF800108842294688BFBF
:103AB000CBF8000000EB800008EB8000FFF7FBFE76
:103AC000D9F82C00DAF80010C96A3A68884228BF91
:103AD000012410680028D1D14FF0FF3040F2A461DA
:103AE000C2F2000101E04FF0FF300860DAF8000098
:103AF000C06A00EB800058F82000012840F2B400B2
:103B0000C2F2004088BF01240068002818BF0124C9
:103B1000204601B0BDE8F08FF1EE100A4FF6FF71BC
:103B2000C0F2C03120EA010040F04070E1EE100A1E
:103B300070470000000001020304010203040607AD
:103B40000809000000000102030401020304060743
:103B500008090000983B0008000000201000000049
:103B600030030008A83B0008000000240800000003
:103B700030030008A83B000810000020A406000045
:103B800050030008B03B000808000024B006000005
:103B90005003000817F5FFFF0090D0030090D003FA
:103BA0004001000010000000F104000800000000C7
:04000005080002CD20
:00000001FF
